{
	"smartMentorship/userProfile.sol": {
		"userProfile": {
			"abi": [
				{
					"inputs": [],
					"name": "getMatchInfo",
					"outputs": [
						{
							"internalType": "address",
							"name": "",
							"type": "address"
						},
						{
							"internalType": "address",
							"name": "",
							"type": "address"
						},
						{
							"internalType": "bool",
							"name": "",
							"type": "bool"
						}
					],
					"stateMutability": "view",
					"type": "function"
				},
				{
					"inputs": [],
					"name": "isRegistered",
					"outputs": [
						{
							"internalType": "bool",
							"name": "",
							"type": "bool"
						}
					],
					"stateMutability": "view",
					"type": "function"
				},
				{
					"inputs": [
						{
							"internalType": "address",
							"name": "_mentorAddress",
							"type": "address"
						}
					],
					"name": "matchMentorStudent",
					"outputs": [],
					"stateMutability": "nonpayable",
					"type": "function"
				},
				{
					"inputs": [
						{
							"internalType": "address",
							"name": "",
							"type": "address"
						}
					],
					"name": "matches",
					"outputs": [
						{
							"internalType": "address",
							"name": "mentorAddress",
							"type": "address"
						},
						{
							"internalType": "address",
							"name": "studentAddress",
							"type": "address"
						},
						{
							"internalType": "bool",
							"name": "isMatched",
							"type": "bool"
						}
					],
					"stateMutability": "view",
					"type": "function"
				},
				{
					"inputs": [
						{
							"internalType": "address",
							"name": "",
							"type": "address"
						}
					],
					"name": "mentors",
					"outputs": [
						{
							"internalType": "address",
							"name": "mentorAddress",
							"type": "address"
						},
						{
							"internalType": "string",
							"name": "name",
							"type": "string"
						},
						{
							"internalType": "string",
							"name": "expertise",
							"type": "string"
						}
					],
					"stateMutability": "view",
					"type": "function"
				},
				{
					"inputs": [
						{
							"internalType": "string",
							"name": "_name",
							"type": "string"
						},
						{
							"internalType": "string",
							"name": "_expertise",
							"type": "string"
						}
					],
					"name": "registerAsMentor",
					"outputs": [],
					"stateMutability": "nonpayable",
					"type": "function"
				},
				{
					"inputs": [
						{
							"internalType": "string",
							"name": "_name",
							"type": "string"
						},
						{
							"internalType": "string",
							"name": "_interest",
							"type": "string"
						}
					],
					"name": "registerAsStudent",
					"outputs": [],
					"stateMutability": "nonpayable",
					"type": "function"
				},
				{
					"inputs": [
						{
							"internalType": "address",
							"name": "",
							"type": "address"
						}
					],
					"name": "registered",
					"outputs": [
						{
							"internalType": "bool",
							"name": "",
							"type": "bool"
						}
					],
					"stateMutability": "view",
					"type": "function"
				},
				{
					"inputs": [
						{
							"internalType": "address",
							"name": "",
							"type": "address"
						}
					],
					"name": "students",
					"outputs": [
						{
							"internalType": "address",
							"name": "studentAddress",
							"type": "address"
						},
						{
							"internalType": "string",
							"name": "name",
							"type": "string"
						},
						{
							"internalType": "string",
							"name": "interest",
							"type": "string"
						}
					],
					"stateMutability": "view",
					"type": "function"
				}
			],
			"devdoc": {
				"kind": "dev",
				"methods": {},
				"version": 1
			},
			"evm": {
				"assembly": "    /* \"smartMentorship/userProfile.sol\":56:2640  contract userProfile {... */\n  mstore(0x40, 0x80)\n  callvalue\n  dup1\n  iszero\n  tag_1\n  jumpi\n  0x00\n  dup1\n  revert\ntag_1:\n  pop\n  dataSize(sub_0)\n  dup1\n  dataOffset(sub_0)\n  0x00\n  codecopy\n  0x00\n  return\nstop\n\nsub_0: assembly {\n        /* \"smartMentorship/userProfile.sol\":56:2640  contract userProfile {... */\n      mstore(0x40, 0x80)\n      callvalue\n      dup1\n      iszero\n      tag_1\n      jumpi\n      0x00\n      dup1\n      revert\n    tag_1:\n      pop\n      jumpi(tag_2, lt(calldatasize, 0x04))\n      shr(0xe0, calldataload(0x00))\n      dup1\n      0xa6c807a9\n      gt\n      tag_12\n      jumpi\n      dup1\n      0xa6c807a9\n      eq\n      tag_7\n      jumpi\n      dup1\n      0xb2dd5c07\n      eq\n      tag_8\n      jumpi\n      dup1\n      0xc4c621ed\n      eq\n      tag_9\n      jumpi\n      dup1\n      0xcd01ab16\n      eq\n      tag_10\n      jumpi\n      dup1\n      0xeed4ea8f\n      eq\n      tag_11\n      jumpi\n      jump(tag_2)\n    tag_12:\n      dup1\n      0x063c67c2\n      eq\n      tag_3\n      jumpi\n      dup1\n      0x22366844\n      eq\n      tag_4\n      jumpi\n      dup1\n      0x80b1ecec\n      eq\n      tag_5\n      jumpi\n      dup1\n      0x9fc9d7c1\n      eq\n      tag_6\n      jumpi\n    tag_2:\n      0x00\n      dup1\n      revert\n        /* \"smartMentorship/userProfile.sol\":2317:2535  function getMatchInfo()public view returns (address, address, bool) {... */\n    tag_3:\n      tag_13\n      tag_14\n      jump\t// in\n    tag_13:\n      mload(0x40)\n      tag_15\n      swap4\n      swap3\n      swap2\n      swap1\n      tag_16\n      jump\t// in\n    tag_15:\n      mload(0x40)\n      dup1\n      swap2\n      sub\n      swap1\n      return\n        /* \"smartMentorship/userProfile.sol\":2541:2638  function isRegistered() public view returns (bool) {... */\n    tag_4:\n      tag_17\n      tag_18\n      jump\t// in\n    tag_17:\n      mload(0x40)\n      tag_19\n      swap2\n      swap1\n      tag_20\n      jump\t// in\n    tag_19:\n      mload(0x40)\n      dup1\n      swap2\n      sub\n      swap1\n      return\n        /* \"smartMentorship/userProfile.sol\":677:1090  function registerAsMentor(string memory _name, string memory _expertise) public {... */\n    tag_5:\n      tag_21\n      0x04\n      dup1\n      calldatasize\n      sub\n      dup2\n      add\n      swap1\n      tag_22\n      swap2\n      swap1\n      tag_23\n      jump\t// in\n    tag_22:\n      tag_24\n      jump\t// in\n    tag_21:\n      stop\n        /* \"smartMentorship/userProfile.sol\":1096:1461  function registerAsStudent(string memory _name, string memory _interest) public {... */\n    tag_6:\n      tag_25\n      0x04\n      dup1\n      calldatasize\n      sub\n      dup2\n      add\n      swap1\n      tag_26\n      swap2\n      swap1\n      tag_23\n      jump\t// in\n    tag_26:\n      tag_27\n      jump\t// in\n    tag_25:\n      stop\n        /* \"smartMentorship/userProfile.sol\":533:576  mapping(address => Student) public students */\n    tag_7:\n      tag_28\n      0x04\n      dup1\n      calldatasize\n      sub\n      dup2\n      add\n      swap1\n      tag_29\n      swap2\n      swap1\n      tag_30\n      jump\t// in\n    tag_29:\n      tag_31\n      jump\t// in\n    tag_28:\n      mload(0x40)\n      tag_32\n      swap4\n      swap3\n      swap2\n      swap1\n      tag_33\n      jump\t// in\n    tag_32:\n      mload(0x40)\n      dup1\n      swap2\n      sub\n      swap1\n      return\n        /* \"smartMentorship/userProfile.sol\":582:624  mapping(address => bool) public registered */\n    tag_8:\n      tag_34\n      0x04\n      dup1\n      calldatasize\n      sub\n      dup2\n      add\n      swap1\n      tag_35\n      swap2\n      swap1\n      tag_30\n      jump\t// in\n    tag_35:\n      tag_36\n      jump\t// in\n    tag_34:\n      mload(0x40)\n      tag_37\n      swap2\n      swap1\n      tag_20\n      jump\t// in\n    tag_37:\n      mload(0x40)\n      dup1\n      swap2\n      sub\n      swap1\n      return\n        /* \"smartMentorship/userProfile.sol\":1467:2311  function matchMentorStudent(address _mentorAddress) public {... */\n    tag_9:\n      tag_38\n      0x04\n      dup1\n      calldatasize\n      sub\n      dup2\n      add\n      swap1\n      tag_39\n      swap2\n      swap1\n      tag_30\n      jump\t// in\n    tag_39:\n      tag_40\n      jump\t// in\n    tag_38:\n      stop\n        /* \"smartMentorship/userProfile.sol\":630:670  mapping(address => Match) public matches */\n    tag_10:\n      tag_41\n      0x04\n      dup1\n      calldatasize\n      sub\n      dup2\n      add\n      swap1\n      tag_42\n      swap2\n      swap1\n      tag_30\n      jump\t// in\n    tag_42:\n      tag_43\n      jump\t// in\n    tag_41:\n      mload(0x40)\n      tag_44\n      swap4\n      swap3\n      swap2\n      swap1\n      tag_16\n      jump\t// in\n    tag_44:\n      mload(0x40)\n      dup1\n      swap2\n      sub\n      swap1\n      return\n        /* \"smartMentorship/userProfile.sol\":407:448  mapping(address => Mentor) public mentors */\n    tag_11:\n      tag_45\n      0x04\n      dup1\n      calldatasize\n      sub\n      dup2\n      add\n      swap1\n      tag_46\n      swap2\n      swap1\n      tag_30\n      jump\t// in\n    tag_46:\n      tag_47\n      jump\t// in\n    tag_45:\n      mload(0x40)\n      tag_48\n      swap4\n      swap3\n      swap2\n      swap1\n      tag_33\n      jump\t// in\n    tag_48:\n      mload(0x40)\n      dup1\n      swap2\n      sub\n      swap1\n      return\n        /* \"smartMentorship/userProfile.sol\":2317:2535  function getMatchInfo()public view returns (address, address, bool) {... */\n    tag_14:\n        /* \"smartMentorship/userProfile.sol\":2361:2368  address */\n      0x00\n        /* \"smartMentorship/userProfile.sol\":2370:2377  address */\n      dup1\n        /* \"smartMentorship/userProfile.sol\":2379:2383  bool */\n      0x00\n        /* \"smartMentorship/userProfile.sol\":2395:2417  Match memory matchInfo */\n      dup1\n        /* \"smartMentorship/userProfile.sol\":2420:2427  matches */\n      0x03\n        /* \"smartMentorship/userProfile.sol\":2420:2439  matches[msg.sender] */\n      0x00\n        /* \"smartMentorship/userProfile.sol\":2428:2438  msg.sender */\n      caller\n        /* \"smartMentorship/userProfile.sol\":2420:2439  matches[msg.sender] */\n      0xffffffffffffffffffffffffffffffffffffffff\n      and\n      0xffffffffffffffffffffffffffffffffffffffff\n      and\n      dup2\n      mstore\n      0x20\n      add\n      swap1\n      dup2\n      mstore\n      0x20\n      add\n      0x00\n      keccak256\n        /* \"smartMentorship/userProfile.sol\":2395:2439  Match memory matchInfo = matches[msg.sender] */\n      mload(0x40)\n      dup1\n      0x60\n      add\n      0x40\n      mstore\n      swap1\n      dup2\n      0x00\n      dup3\n      add\n      0x00\n      swap1\n      sload\n      swap1\n      0x0100\n      exp\n      swap1\n      div\n      0xffffffffffffffffffffffffffffffffffffffff\n      and\n      0xffffffffffffffffffffffffffffffffffffffff\n      and\n      0xffffffffffffffffffffffffffffffffffffffff\n      and\n      dup2\n      mstore\n      0x20\n      add\n      0x01\n      dup3\n      add\n      0x00\n      swap1\n      sload\n      swap1\n      0x0100\n      exp\n      swap1\n      div\n      0xffffffffffffffffffffffffffffffffffffffff\n      and\n      0xffffffffffffffffffffffffffffffffffffffff\n      and\n      0xffffffffffffffffffffffffffffffffffffffff\n      and\n      dup2\n      mstore\n      0x20\n      add\n      0x01\n      dup3\n      add\n      0x14\n      swap1\n      sload\n      swap1\n      0x0100\n      exp\n      swap1\n      div\n      0xff\n      and\n      iszero\n      iszero\n      iszero\n      iszero\n      dup2\n      mstore\n      pop\n      pop\n      swap1\n      pop\n        /* \"smartMentorship/userProfile.sol\":2457:2466  matchInfo */\n      dup1\n        /* \"smartMentorship/userProfile.sol\":2457:2480  matchInfo.mentorAddress */\n      0x00\n      add\n      mload\n        /* \"smartMentorship/userProfile.sol\":2482:2491  matchInfo */\n      dup2\n        /* \"smartMentorship/userProfile.sol\":2482:2506  matchInfo.studentAddress */\n      0x20\n      add\n      mload\n        /* \"smartMentorship/userProfile.sol\":2508:2517  matchInfo */\n      dup3\n        /* \"smartMentorship/userProfile.sol\":2508:2527  matchInfo.isMatched */\n      0x40\n      add\n      mload\n        /* \"smartMentorship/userProfile.sol\":2449:2528  return (matchInfo.mentorAddress, matchInfo.studentAddress, matchInfo.isMatched) */\n      swap4\n      pop\n      swap4\n      pop\n      swap4\n      pop\n      pop\n        /* \"smartMentorship/userProfile.sol\":2317:2535  function getMatchInfo()public view returns (address, address, bool) {... */\n      swap1\n      swap2\n      swap3\n      jump\t// out\n        /* \"smartMentorship/userProfile.sol\":2541:2638  function isRegistered() public view returns (bool) {... */\n    tag_18:\n        /* \"smartMentorship/userProfile.sol\":2586:2590  bool */\n      0x00\n        /* \"smartMentorship/userProfile.sol\":2609:2619  registered */\n      0x02\n        /* \"smartMentorship/userProfile.sol\":2609:2631  registered[msg.sender] */\n      0x00\n        /* \"smartMentorship/userProfile.sol\":2620:2630  msg.sender */\n      caller\n        /* \"smartMentorship/userProfile.sol\":2609:2631  registered[msg.sender] */\n      0xffffffffffffffffffffffffffffffffffffffff\n      and\n      0xffffffffffffffffffffffffffffffffffffffff\n      and\n      dup2\n      mstore\n      0x20\n      add\n      swap1\n      dup2\n      mstore\n      0x20\n      add\n      0x00\n      keccak256\n      0x00\n      swap1\n      sload\n      swap1\n      0x0100\n      exp\n      swap1\n      div\n      0xff\n      and\n        /* \"smartMentorship/userProfile.sol\":2602:2631  return registered[msg.sender] */\n      swap1\n      pop\n        /* \"smartMentorship/userProfile.sol\":2541:2638  function isRegistered() public view returns (bool) {... */\n      swap1\n      jump\t// out\n        /* \"smartMentorship/userProfile.sol\":677:1090  function registerAsMentor(string memory _name, string memory _expertise) public {... */\n    tag_24:\n        /* \"smartMentorship/userProfile.sol\":776:786  registered */\n      0x02\n        /* \"smartMentorship/userProfile.sol\":776:798  registered[msg.sender] */\n      0x00\n        /* \"smartMentorship/userProfile.sol\":787:797  msg.sender */\n      caller\n        /* \"smartMentorship/userProfile.sol\":776:798  registered[msg.sender] */\n      0xffffffffffffffffffffffffffffffffffffffff\n      and\n      0xffffffffffffffffffffffffffffffffffffffff\n      and\n      dup2\n      mstore\n      0x20\n      add\n      swap1\n      dup2\n      mstore\n      0x20\n      add\n      0x00\n      keccak256\n      0x00\n      swap1\n      sload\n      swap1\n      0x0100\n      exp\n      swap1\n      div\n      0xff\n      and\n        /* \"smartMentorship/userProfile.sol\":775:798  !registered[msg.sender] */\n      iszero\n        /* \"smartMentorship/userProfile.sol\":767:826  require(!registered[msg.sender], \"User already registered\") */\n      tag_52\n      jumpi\n      mload(0x40)\n      0x08c379a000000000000000000000000000000000000000000000000000000000\n      dup2\n      mstore\n      0x04\n      add\n      tag_53\n      swap1\n      tag_54\n      jump\t// in\n    tag_53:\n      mload(0x40)\n      dup1\n      swap2\n      sub\n      swap1\n      revert\n    tag_52:\n        /* \"smartMentorship/userProfile.sol\":837:858  Mentor storage mentor */\n      0x00\n        /* \"smartMentorship/userProfile.sol\":861:868  mentors */\n      dup1\n        /* \"smartMentorship/userProfile.sol\":861:880  mentors[msg.sender] */\n      0x00\n        /* \"smartMentorship/userProfile.sol\":869:879  msg.sender */\n      caller\n        /* \"smartMentorship/userProfile.sol\":861:880  mentors[msg.sender] */\n      0xffffffffffffffffffffffffffffffffffffffff\n      and\n      0xffffffffffffffffffffffffffffffffffffffff\n      and\n      dup2\n      mstore\n      0x20\n      add\n      swap1\n      dup2\n      mstore\n      0x20\n      add\n      0x00\n      keccak256\n        /* \"smartMentorship/userProfile.sol\":837:880  Mentor storage mentor = mentors[msg.sender] */\n      swap1\n      pop\n        /* \"smartMentorship/userProfile.sol\":966:976  msg.sender */\n      caller\n        /* \"smartMentorship/userProfile.sol\":943:949  mentor */\n      dup2\n        /* \"smartMentorship/userProfile.sol\":943:963  mentor.mentorAddress */\n      0x00\n      add\n      0x00\n        /* \"smartMentorship/userProfile.sol\":943:976  mentor.mentorAddress = msg.sender */\n      0x0100\n      exp\n      dup2\n      sload\n      dup2\n      0xffffffffffffffffffffffffffffffffffffffff\n      mul\n      not\n      and\n      swap1\n      dup4\n      0xffffffffffffffffffffffffffffffffffffffff\n      and\n      mul\n      or\n      swap1\n      sstore\n      pop\n        /* \"smartMentorship/userProfile.sol\":1000:1005  _name */\n      dup3\n        /* \"smartMentorship/userProfile.sol\":986:992  mentor */\n      dup2\n        /* \"smartMentorship/userProfile.sol\":986:997  mentor.name */\n      0x01\n      add\n        /* \"smartMentorship/userProfile.sol\":986:1005  mentor.name = _name */\n      swap1\n      dup2\n      tag_55\n      swap2\n      swap1\n      tag_56\n      jump\t// in\n    tag_55:\n      pop\n        /* \"smartMentorship/userProfile.sol\":1034:1044  _expertise */\n      dup2\n        /* \"smartMentorship/userProfile.sol\":1015:1021  mentor */\n      dup2\n        /* \"smartMentorship/userProfile.sol\":1015:1031  mentor.expertise */\n      0x02\n      add\n        /* \"smartMentorship/userProfile.sol\":1015:1044  mentor.expertise = _expertise */\n      swap1\n      dup2\n      tag_57\n      swap2\n      swap1\n      tag_56\n      jump\t// in\n    tag_57:\n      pop\n        /* \"smartMentorship/userProfile.sol\":1079:1083  true */\n      0x01\n        /* \"smartMentorship/userProfile.sol\":1054:1064  registered */\n      0x02\n        /* \"smartMentorship/userProfile.sol\":1054:1076  registered[msg.sender] */\n      0x00\n        /* \"smartMentorship/userProfile.sol\":1065:1075  msg.sender */\n      caller\n        /* \"smartMentorship/userProfile.sol\":1054:1076  registered[msg.sender] */\n      0xffffffffffffffffffffffffffffffffffffffff\n      and\n      0xffffffffffffffffffffffffffffffffffffffff\n      and\n      dup2\n      mstore\n      0x20\n      add\n      swap1\n      dup2\n      mstore\n      0x20\n      add\n      0x00\n      keccak256\n      0x00\n        /* \"smartMentorship/userProfile.sol\":1054:1083  registered[msg.sender] = true */\n      0x0100\n      exp\n      dup2\n      sload\n      dup2\n      0xff\n      mul\n      not\n      and\n      swap1\n      dup4\n      iszero\n      iszero\n      mul\n      or\n      swap1\n      sstore\n      pop\n        /* \"smartMentorship/userProfile.sol\":757:1090  {... */\n      pop\n        /* \"smartMentorship/userProfile.sol\":677:1090  function registerAsMentor(string memory _name, string memory _expertise) public {... */\n      pop\n      pop\n      jump\t// out\n        /* \"smartMentorship/userProfile.sol\":1096:1461  function registerAsStudent(string memory _name, string memory _interest) public {... */\n    tag_27:\n        /* \"smartMentorship/userProfile.sol\":1195:1205  registered */\n      0x02\n        /* \"smartMentorship/userProfile.sol\":1195:1217  registered[msg.sender] */\n      0x00\n        /* \"smartMentorship/userProfile.sol\":1206:1216  msg.sender */\n      caller\n        /* \"smartMentorship/userProfile.sol\":1195:1217  registered[msg.sender] */\n      0xffffffffffffffffffffffffffffffffffffffff\n      and\n      0xffffffffffffffffffffffffffffffffffffffff\n      and\n      dup2\n      mstore\n      0x20\n      add\n      swap1\n      dup2\n      mstore\n      0x20\n      add\n      0x00\n      keccak256\n      0x00\n      swap1\n      sload\n      swap1\n      0x0100\n      exp\n      swap1\n      div\n      0xff\n      and\n        /* \"smartMentorship/userProfile.sol\":1194:1217  !registered[msg.sender] */\n      iszero\n        /* \"smartMentorship/userProfile.sol\":1186:1245  require(!registered[msg.sender], \"User already registered\") */\n      tag_59\n      jumpi\n      mload(0x40)\n      0x08c379a000000000000000000000000000000000000000000000000000000000\n      dup2\n      mstore\n      0x04\n      add\n      tag_60\n      swap1\n      tag_54\n      jump\t// in\n    tag_60:\n      mload(0x40)\n      dup1\n      swap2\n      sub\n      swap1\n      revert\n    tag_59:\n        /* \"smartMentorship/userProfile.sol\":1256:1279  Student storage student */\n      0x00\n        /* \"smartMentorship/userProfile.sol\":1282:1290  students */\n      0x01\n        /* \"smartMentorship/userProfile.sol\":1282:1302  students[msg.sender] */\n      0x00\n        /* \"smartMentorship/userProfile.sol\":1291:1301  msg.sender */\n      caller\n        /* \"smartMentorship/userProfile.sol\":1282:1302  students[msg.sender] */\n      0xffffffffffffffffffffffffffffffffffffffff\n      and\n      0xffffffffffffffffffffffffffffffffffffffff\n      and\n      dup2\n      mstore\n      0x20\n      add\n      swap1\n      dup2\n      mstore\n      0x20\n      add\n      0x00\n      keccak256\n        /* \"smartMentorship/userProfile.sol\":1256:1302  Student storage student = students[msg.sender] */\n      swap1\n      pop\n        /* \"smartMentorship/userProfile.sol\":1337:1347  msg.sender */\n      caller\n        /* \"smartMentorship/userProfile.sol\":1312:1319  student */\n      dup2\n        /* \"smartMentorship/userProfile.sol\":1312:1334  student.studentAddress */\n      0x00\n      add\n      0x00\n        /* \"smartMentorship/userProfile.sol\":1312:1347  student.studentAddress = msg.sender */\n      0x0100\n      exp\n      dup2\n      sload\n      dup2\n      0xffffffffffffffffffffffffffffffffffffffff\n      mul\n      not\n      and\n      swap1\n      dup4\n      0xffffffffffffffffffffffffffffffffffffffff\n      and\n      mul\n      or\n      swap1\n      sstore\n      pop\n        /* \"smartMentorship/userProfile.sol\":1372:1377  _name */\n      dup3\n        /* \"smartMentorship/userProfile.sol\":1357:1364  student */\n      dup2\n        /* \"smartMentorship/userProfile.sol\":1357:1369  student.name */\n      0x01\n      add\n        /* \"smartMentorship/userProfile.sol\":1357:1377  student.name = _name */\n      swap1\n      dup2\n      tag_61\n      swap2\n      swap1\n      tag_56\n      jump\t// in\n    tag_61:\n      pop\n        /* \"smartMentorship/userProfile.sol\":1406:1415  _interest */\n      dup2\n        /* \"smartMentorship/userProfile.sol\":1387:1394  student */\n      dup2\n        /* \"smartMentorship/userProfile.sol\":1387:1403  student.interest */\n      0x02\n      add\n        /* \"smartMentorship/userProfile.sol\":1387:1415  student.interest = _interest */\n      swap1\n      dup2\n      tag_62\n      swap2\n      swap1\n      tag_56\n      jump\t// in\n    tag_62:\n      pop\n        /* \"smartMentorship/userProfile.sol\":1450:1454  true */\n      0x01\n        /* \"smartMentorship/userProfile.sol\":1425:1435  registered */\n      0x02\n        /* \"smartMentorship/userProfile.sol\":1425:1447  registered[msg.sender] */\n      0x00\n        /* \"smartMentorship/userProfile.sol\":1436:1446  msg.sender */\n      caller\n        /* \"smartMentorship/userProfile.sol\":1425:1447  registered[msg.sender] */\n      0xffffffffffffffffffffffffffffffffffffffff\n      and\n      0xffffffffffffffffffffffffffffffffffffffff\n      and\n      dup2\n      mstore\n      0x20\n      add\n      swap1\n      dup2\n      mstore\n      0x20\n      add\n      0x00\n      keccak256\n      0x00\n        /* \"smartMentorship/userProfile.sol\":1425:1454  registered[msg.sender] = true */\n      0x0100\n      exp\n      dup2\n      sload\n      dup2\n      0xff\n      mul\n      not\n      and\n      swap1\n      dup4\n      iszero\n      iszero\n      mul\n      or\n      swap1\n      sstore\n      pop\n        /* \"smartMentorship/userProfile.sol\":1176:1461  {... */\n      pop\n        /* \"smartMentorship/userProfile.sol\":1096:1461  function registerAsStudent(string memory _name, string memory _interest) public {... */\n      pop\n      pop\n      jump\t// out\n        /* \"smartMentorship/userProfile.sol\":533:576  mapping(address => Student) public students */\n    tag_31:\n      mstore(0x20, 0x01)\n      dup1\n      0x00\n      mstore\n      keccak256(0x00, 0x40)\n      0x00\n      swap2\n      pop\n      swap1\n      pop\n      dup1\n      0x00\n      add\n      0x00\n      swap1\n      sload\n      swap1\n      0x0100\n      exp\n      swap1\n      div\n      0xffffffffffffffffffffffffffffffffffffffff\n      and\n      swap1\n      dup1\n      0x01\n      add\n      dup1\n      sload\n      tag_63\n      swap1\n      tag_64\n      jump\t// in\n    tag_63:\n      dup1\n      0x1f\n      add\n      0x20\n      dup1\n      swap2\n      div\n      mul\n      0x20\n      add\n      mload(0x40)\n      swap1\n      dup2\n      add\n      0x40\n      mstore\n      dup1\n      swap3\n      swap2\n      swap1\n      dup2\n      dup2\n      mstore\n      0x20\n      add\n      dup3\n      dup1\n      sload\n      tag_65\n      swap1\n      tag_64\n      jump\t// in\n    tag_65:\n      dup1\n      iszero\n      tag_66\n      jumpi\n      dup1\n      0x1f\n      lt\n      tag_67\n      jumpi\n      0x0100\n      dup1\n      dup4\n      sload\n      div\n      mul\n      dup4\n      mstore\n      swap2\n      0x20\n      add\n      swap2\n      jump(tag_66)\n    tag_67:\n      dup3\n      add\n      swap2\n      swap1\n      0x00\n      mstore\n      keccak256(0x00, 0x20)\n      swap1\n    tag_68:\n      dup2\n      sload\n      dup2\n      mstore\n      swap1\n      0x01\n      add\n      swap1\n      0x20\n      add\n      dup1\n      dup4\n      gt\n      tag_68\n      jumpi\n      dup3\n      swap1\n      sub\n      0x1f\n      and\n      dup3\n      add\n      swap2\n    tag_66:\n      pop\n      pop\n      pop\n      pop\n      pop\n      swap1\n      dup1\n      0x02\n      add\n      dup1\n      sload\n      tag_69\n      swap1\n      tag_64\n      jump\t// in\n    tag_69:\n      dup1\n      0x1f\n      add\n      0x20\n      dup1\n      swap2\n      div\n      mul\n      0x20\n      add\n      mload(0x40)\n      swap1\n      dup2\n      add\n      0x40\n      mstore\n      dup1\n      swap3\n      swap2\n      swap1\n      dup2\n      dup2\n      mstore\n      0x20\n      add\n      dup3\n      dup1\n      sload\n      tag_70\n      swap1\n      tag_64\n      jump\t// in\n    tag_70:\n      dup1\n      iszero\n      tag_71\n      jumpi\n      dup1\n      0x1f\n      lt\n      tag_72\n      jumpi\n      0x0100\n      dup1\n      dup4\n      sload\n      div\n      mul\n      dup4\n      mstore\n      swap2\n      0x20\n      add\n      swap2\n      jump(tag_71)\n    tag_72:\n      dup3\n      add\n      swap2\n      swap1\n      0x00\n      mstore\n      keccak256(0x00, 0x20)\n      swap1\n    tag_73:\n      dup2\n      sload\n      dup2\n      mstore\n      swap1\n      0x01\n      add\n      swap1\n      0x20\n      add\n      dup1\n      dup4\n      gt\n      tag_73\n      jumpi\n      dup3\n      swap1\n      sub\n      0x1f\n      and\n      dup3\n      add\n      swap2\n    tag_71:\n      pop\n      pop\n      pop\n      pop\n      pop\n      swap1\n      pop\n      dup4\n      jump\t// out\n        /* \"smartMentorship/userProfile.sol\":582:624  mapping(address => bool) public registered */\n    tag_36:\n      mstore(0x20, 0x02)\n      dup1\n      0x00\n      mstore\n      keccak256(0x00, 0x40)\n      0x00\n      swap2\n      pop\n      sload\n      swap1\n      0x0100\n      exp\n      swap1\n      div\n      0xff\n      and\n      dup2\n      jump\t// out\n        /* \"smartMentorship/userProfile.sol\":1467:2311  function matchMentorStudent(address _mentorAddress) public {... */\n    tag_40:\n        /* \"smartMentorship/userProfile.sol\":1544:1554  registered */\n      0x02\n        /* \"smartMentorship/userProfile.sol\":1544:1566  registered[msg.sender] */\n      0x00\n        /* \"smartMentorship/userProfile.sol\":1555:1565  msg.sender */\n      caller\n        /* \"smartMentorship/userProfile.sol\":1544:1566  registered[msg.sender] */\n      0xffffffffffffffffffffffffffffffffffffffff\n      and\n      0xffffffffffffffffffffffffffffffffffffffff\n      and\n      dup2\n      mstore\n      0x20\n      add\n      swap1\n      dup2\n      mstore\n      0x20\n      add\n      0x00\n      keccak256\n      0x00\n      swap1\n      sload\n      swap1\n      0x0100\n      exp\n      swap1\n      div\n      0xff\n      and\n        /* \"smartMentorship/userProfile.sol\":1536:1594  require(registered[msg.sender], \"Student not registered.\") */\n      tag_75\n      jumpi\n      mload(0x40)\n      0x08c379a000000000000000000000000000000000000000000000000000000000\n      dup2\n      mstore\n      0x04\n      add\n      tag_76\n      swap1\n      tag_77\n      jump\t// in\n    tag_76:\n      mload(0x40)\n      dup1\n      swap2\n      sub\n      swap1\n      revert\n    tag_75:\n        /* \"smartMentorship/userProfile.sol\":1661:1662  0 */\n      0x00\n        /* \"smartMentorship/userProfile.sol\":1612:1663  mentors[_mentorAddress].mentorAddress != address(0) */\n      0xffffffffffffffffffffffffffffffffffffffff\n      and\n        /* \"smartMentorship/userProfile.sol\":1612:1619  mentors */\n      0x00\n        /* \"smartMentorship/userProfile.sol\":1612:1635  mentors[_mentorAddress] */\n      dup1\n        /* \"smartMentorship/userProfile.sol\":1620:1634  _mentorAddress */\n      dup4\n        /* \"smartMentorship/userProfile.sol\":1612:1635  mentors[_mentorAddress] */\n      0xffffffffffffffffffffffffffffffffffffffff\n      and\n      0xffffffffffffffffffffffffffffffffffffffff\n      and\n      dup2\n      mstore\n      0x20\n      add\n      swap1\n      dup2\n      mstore\n      0x20\n      add\n      0x00\n      keccak256\n        /* \"smartMentorship/userProfile.sol\":1612:1649  mentors[_mentorAddress].mentorAddress */\n      0x00\n      add\n      0x00\n      swap1\n      sload\n      swap1\n      0x0100\n      exp\n      swap1\n      div\n      0xffffffffffffffffffffffffffffffffffffffff\n      and\n        /* \"smartMentorship/userProfile.sol\":1612:1663  mentors[_mentorAddress].mentorAddress != address(0) */\n      0xffffffffffffffffffffffffffffffffffffffff\n      and\n      sub\n        /* \"smartMentorship/userProfile.sol\":1604:1683  require(mentors[_mentorAddress].mentorAddress != address(0),\"Mentor not found\") */\n      tag_78\n      jumpi\n      mload(0x40)\n      0x08c379a000000000000000000000000000000000000000000000000000000000\n      dup2\n      mstore\n      0x04\n      add\n      tag_79\n      swap1\n      tag_80\n      jump\t// in\n    tag_79:\n      mload(0x40)\n      dup1\n      swap2\n      sub\n      swap1\n      revert\n    tag_78:\n        /* \"smartMentorship/userProfile.sol\":1798:1805  mentors */\n      0x00\n        /* \"smartMentorship/userProfile.sol\":1798:1821  mentors[_mentorAddress] */\n      dup1\n        /* \"smartMentorship/userProfile.sol\":1806:1820  _mentorAddress */\n      dup3\n        /* \"smartMentorship/userProfile.sol\":1798:1821  mentors[_mentorAddress] */\n      0xffffffffffffffffffffffffffffffffffffffff\n      and\n      0xffffffffffffffffffffffffffffffffffffffff\n      and\n      dup2\n      mstore\n      0x20\n      add\n      swap1\n      dup2\n      mstore\n      0x20\n      add\n      0x00\n      keccak256\n        /* \"smartMentorship/userProfile.sol\":1798:1831  mentors[_mentorAddress].expertise */\n      0x02\n      add\n        /* \"smartMentorship/userProfile.sol\":1782:1833  keccak256(bytes(mentors[_mentorAddress].expertise)) */\n      mload(0x40)\n      tag_81\n      swap2\n      swap1\n      tag_82\n      jump\t// in\n    tag_81:\n      mload(0x40)\n      dup1\n      swap2\n      sub\n      swap1\n      keccak256\n        /* \"smartMentorship/userProfile.sol\":1731:1739  students */\n      0x01\n        /* \"smartMentorship/userProfile.sol\":1731:1751  students[msg.sender] */\n      0x00\n        /* \"smartMentorship/userProfile.sol\":1740:1750  msg.sender */\n      caller\n        /* \"smartMentorship/userProfile.sol\":1731:1751  students[msg.sender] */\n      0xffffffffffffffffffffffffffffffffffffffff\n      and\n      0xffffffffffffffffffffffffffffffffffffffff\n      and\n      dup2\n      mstore\n      0x20\n      add\n      swap1\n      dup2\n      mstore\n      0x20\n      add\n      0x00\n      keccak256\n        /* \"smartMentorship/userProfile.sol\":1731:1760  students[msg.sender].interest */\n      0x02\n      add\n        /* \"smartMentorship/userProfile.sol\":1715:1762  keccak256(bytes(students[msg.sender].interest)) */\n      mload(0x40)\n      tag_83\n      swap2\n      swap1\n      tag_82\n      jump\t// in\n    tag_83:\n      mload(0x40)\n      dup1\n      swap2\n      sub\n      swap1\n      keccak256\n        /* \"smartMentorship/userProfile.sol\":1715:1833  keccak256(bytes(students[msg.sender].interest)) ==... */\n      eq\n        /* \"smartMentorship/userProfile.sol\":1694:1894  require(... */\n      tag_84\n      jumpi\n      mload(0x40)\n      0x08c379a000000000000000000000000000000000000000000000000000000000\n      dup2\n      mstore\n      0x04\n      add\n      tag_85\n      swap1\n      tag_86\n      jump\t// in\n    tag_85:\n      mload(0x40)\n      dup1\n      swap2\n      sub\n      swap1\n      revert\n    tag_84:\n        /* \"smartMentorship/userProfile.sol\":1998:2037  Match(_mentorAddress, msg.sender, true) */\n      mload(0x40)\n      dup1\n      0x60\n      add\n      0x40\n      mstore\n      dup1\n        /* \"smartMentorship/userProfile.sol\":2004:2018  _mentorAddress */\n      dup3\n        /* \"smartMentorship/userProfile.sol\":1998:2037  Match(_mentorAddress, msg.sender, true) */\n      0xffffffffffffffffffffffffffffffffffffffff\n      and\n      dup2\n      mstore\n      0x20\n      add\n        /* \"smartMentorship/userProfile.sol\":2020:2030  msg.sender */\n      caller\n        /* \"smartMentorship/userProfile.sol\":1998:2037  Match(_mentorAddress, msg.sender, true) */\n      0xffffffffffffffffffffffffffffffffffffffff\n      and\n      dup2\n      mstore\n      0x20\n      add\n        /* \"smartMentorship/userProfile.sol\":2032:2036  true */\n      0x01\n        /* \"smartMentorship/userProfile.sol\":1998:2037  Match(_mentorAddress, msg.sender, true) */\n      iszero\n      iszero\n      dup2\n      mstore\n      pop\n        /* \"smartMentorship/userProfile.sol\":1976:1983  matches */\n      0x03\n        /* \"smartMentorship/userProfile.sol\":1976:1995  matches[msg.sender] */\n      0x00\n        /* \"smartMentorship/userProfile.sol\":1984:1994  msg.sender */\n      caller\n        /* \"smartMentorship/userProfile.sol\":1976:1995  matches[msg.sender] */\n      0xffffffffffffffffffffffffffffffffffffffff\n      and\n      0xffffffffffffffffffffffffffffffffffffffff\n      and\n      dup2\n      mstore\n      0x20\n      add\n      swap1\n      dup2\n      mstore\n      0x20\n      add\n      0x00\n      keccak256\n        /* \"smartMentorship/userProfile.sol\":1976:2037  matches[msg.sender] = Match(_mentorAddress, msg.sender, true) */\n      0x00\n      dup3\n      add\n      mload\n      dup2\n      0x00\n      add\n      exp(0x0100, 0x00)\n      dup2\n      sload\n      dup2\n      0xffffffffffffffffffffffffffffffffffffffff\n      mul\n      not\n      and\n      swap1\n      dup4\n      0xffffffffffffffffffffffffffffffffffffffff\n      and\n      mul\n      or\n      swap1\n      sstore\n      pop\n      0x20\n      dup3\n      add\n      mload\n      dup2\n      0x01\n      add\n      exp(0x0100, 0x00)\n      dup2\n      sload\n      dup2\n      0xffffffffffffffffffffffffffffffffffffffff\n      mul\n      not\n      and\n      swap1\n      dup4\n      0xffffffffffffffffffffffffffffffffffffffff\n      and\n      mul\n      or\n      swap1\n      sstore\n      pop\n      0x40\n      dup3\n      add\n      mload\n      dup2\n      0x01\n      add\n      exp(0x0100, 0x14)\n      dup2\n      sload\n      dup2\n      0xff\n      mul\n      not\n      and\n      swap1\n      dup4\n      iszero\n      iszero\n      mul\n      or\n      swap1\n      sstore\n      pop\n      swap1\n      pop\n      pop\n        /* \"smartMentorship/userProfile.sol\":1467:2311  function matchMentorStudent(address _mentorAddress) public {... */\n      pop\n      jump\t// out\n        /* \"smartMentorship/userProfile.sol\":630:670  mapping(address => Match) public matches */\n    tag_43:\n      mstore(0x20, 0x03)\n      dup1\n      0x00\n      mstore\n      keccak256(0x00, 0x40)\n      0x00\n      swap2\n      pop\n      swap1\n      pop\n      dup1\n      0x00\n      add\n      0x00\n      swap1\n      sload\n      swap1\n      0x0100\n      exp\n      swap1\n      div\n      0xffffffffffffffffffffffffffffffffffffffff\n      and\n      swap1\n      dup1\n      0x01\n      add\n      0x00\n      swap1\n      sload\n      swap1\n      0x0100\n      exp\n      swap1\n      div\n      0xffffffffffffffffffffffffffffffffffffffff\n      and\n      swap1\n      dup1\n      0x01\n      add\n      0x14\n      swap1\n      sload\n      swap1\n      0x0100\n      exp\n      swap1\n      div\n      0xff\n      and\n      swap1\n      pop\n      dup4\n      jump\t// out\n        /* \"smartMentorship/userProfile.sol\":407:448  mapping(address => Mentor) public mentors */\n    tag_47:\n      mstore(0x20, 0x00)\n      dup1\n      0x00\n      mstore\n      keccak256(0x00, 0x40)\n      0x00\n      swap2\n      pop\n      swap1\n      pop\n      dup1\n      0x00\n      add\n      0x00\n      swap1\n      sload\n      swap1\n      0x0100\n      exp\n      swap1\n      div\n      0xffffffffffffffffffffffffffffffffffffffff\n      and\n      swap1\n      dup1\n      0x01\n      add\n      dup1\n      sload\n      tag_87\n      swap1\n      tag_64\n      jump\t// in\n    tag_87:\n      dup1\n      0x1f\n      add\n      0x20\n      dup1\n      swap2\n      div\n      mul\n      0x20\n      add\n      mload(0x40)\n      swap1\n      dup2\n      add\n      0x40\n      mstore\n      dup1\n      swap3\n      swap2\n      swap1\n      dup2\n      dup2\n      mstore\n      0x20\n      add\n      dup3\n      dup1\n      sload\n      tag_88\n      swap1\n      tag_64\n      jump\t// in\n    tag_88:\n      dup1\n      iszero\n      tag_89\n      jumpi\n      dup1\n      0x1f\n      lt\n      tag_90\n      jumpi\n      0x0100\n      dup1\n      dup4\n      sload\n      div\n      mul\n      dup4\n      mstore\n      swap2\n      0x20\n      add\n      swap2\n      jump(tag_89)\n    tag_90:\n      dup3\n      add\n      swap2\n      swap1\n      0x00\n      mstore\n      keccak256(0x00, 0x20)\n      swap1\n    tag_91:\n      dup2\n      sload\n      dup2\n      mstore\n      swap1\n      0x01\n      add\n      swap1\n      0x20\n      add\n      dup1\n      dup4\n      gt\n      tag_91\n      jumpi\n      dup3\n      swap1\n      sub\n      0x1f\n      and\n      dup3\n      add\n      swap2\n    tag_89:\n      pop\n      pop\n      pop\n      pop\n      pop\n      swap1\n      dup1\n      0x02\n      add\n      dup1\n      sload\n      tag_92\n      swap1\n      tag_64\n      jump\t// in\n    tag_92:\n      dup1\n      0x1f\n      add\n      0x20\n      dup1\n      swap2\n      div\n      mul\n      0x20\n      add\n      mload(0x40)\n      swap1\n      dup2\n      add\n      0x40\n      mstore\n      dup1\n      swap3\n      swap2\n      swap1\n      dup2\n      dup2\n      mstore\n      0x20\n      add\n      dup3\n      dup1\n      sload\n      tag_93\n      swap1\n      tag_64\n      jump\t// in\n    tag_93:\n      dup1\n      iszero\n      tag_94\n      jumpi\n      dup1\n      0x1f\n      lt\n      tag_95\n      jumpi\n      0x0100\n      dup1\n      dup4\n      sload\n      div\n      mul\n      dup4\n      mstore\n      swap2\n      0x20\n      add\n      swap2\n      jump(tag_94)\n    tag_95:\n      dup3\n      add\n      swap2\n      swap1\n      0x00\n      mstore\n      keccak256(0x00, 0x20)\n      swap1\n    tag_96:\n      dup2\n      sload\n      dup2\n      mstore\n      swap1\n      0x01\n      add\n      swap1\n      0x20\n      add\n      dup1\n      dup4\n      gt\n      tag_96\n      jumpi\n      dup3\n      swap1\n      sub\n      0x1f\n      and\n      dup3\n      add\n      swap2\n    tag_94:\n      pop\n      pop\n      pop\n      pop\n      pop\n      swap1\n      pop\n      dup4\n      jump\t// out\n        /* \"#utility.yul\":7:133   */\n    tag_97:\n        /* \"#utility.yul\":44:51   */\n      0x00\n        /* \"#utility.yul\":84:126   */\n      0xffffffffffffffffffffffffffffffffffffffff\n        /* \"#utility.yul\":77:82   */\n      dup3\n        /* \"#utility.yul\":73:127   */\n      and\n        /* \"#utility.yul\":62:127   */\n      swap1\n      pop\n        /* \"#utility.yul\":7:133   */\n      swap2\n      swap1\n      pop\n      jump\t// out\n        /* \"#utility.yul\":139:235   */\n    tag_98:\n        /* \"#utility.yul\":176:183   */\n      0x00\n        /* \"#utility.yul\":205:229   */\n      tag_152\n        /* \"#utility.yul\":223:228   */\n      dup3\n        /* \"#utility.yul\":205:229   */\n      tag_97\n      jump\t// in\n    tag_152:\n        /* \"#utility.yul\":194:229   */\n      swap1\n      pop\n        /* \"#utility.yul\":139:235   */\n      swap2\n      swap1\n      pop\n      jump\t// out\n        /* \"#utility.yul\":241:359   */\n    tag_99:\n        /* \"#utility.yul\":328:352   */\n      tag_154\n        /* \"#utility.yul\":346:351   */\n      dup2\n        /* \"#utility.yul\":328:352   */\n      tag_98\n      jump\t// in\n    tag_154:\n        /* \"#utility.yul\":323:326   */\n      dup3\n        /* \"#utility.yul\":316:353   */\n      mstore\n        /* \"#utility.yul\":241:359   */\n      pop\n      pop\n      jump\t// out\n        /* \"#utility.yul\":365:455   */\n    tag_100:\n        /* \"#utility.yul\":399:406   */\n      0x00\n        /* \"#utility.yul\":442:447   */\n      dup2\n        /* \"#utility.yul\":435:448   */\n      iszero\n        /* \"#utility.yul\":428:449   */\n      iszero\n        /* \"#utility.yul\":417:449   */\n      swap1\n      pop\n        /* \"#utility.yul\":365:455   */\n      swap2\n      swap1\n      pop\n      jump\t// out\n        /* \"#utility.yul\":461:570   */\n    tag_101:\n        /* \"#utility.yul\":542:563   */\n      tag_157\n        /* \"#utility.yul\":557:562   */\n      dup2\n        /* \"#utility.yul\":542:563   */\n      tag_100\n      jump\t// in\n    tag_157:\n        /* \"#utility.yul\":537:540   */\n      dup3\n        /* \"#utility.yul\":530:564   */\n      mstore\n        /* \"#utility.yul\":461:570   */\n      pop\n      pop\n      jump\t// out\n        /* \"#utility.yul\":576:1006   */\n    tag_16:\n        /* \"#utility.yul\":719:723   */\n      0x00\n        /* \"#utility.yul\":757:759   */\n      0x60\n        /* \"#utility.yul\":746:755   */\n      dup3\n        /* \"#utility.yul\":742:760   */\n      add\n        /* \"#utility.yul\":734:760   */\n      swap1\n      pop\n        /* \"#utility.yul\":770:841   */\n      tag_159\n        /* \"#utility.yul\":838:839   */\n      0x00\n        /* \"#utility.yul\":827:836   */\n      dup4\n        /* \"#utility.yul\":823:840   */\n      add\n        /* \"#utility.yul\":814:820   */\n      dup7\n        /* \"#utility.yul\":770:841   */\n      tag_99\n      jump\t// in\n    tag_159:\n        /* \"#utility.yul\":851:923   */\n      tag_160\n        /* \"#utility.yul\":919:921   */\n      0x20\n        /* \"#utility.yul\":908:917   */\n      dup4\n        /* \"#utility.yul\":904:922   */\n      add\n        /* \"#utility.yul\":895:901   */\n      dup6\n        /* \"#utility.yul\":851:923   */\n      tag_99\n      jump\t// in\n    tag_160:\n        /* \"#utility.yul\":933:999   */\n      tag_161\n        /* \"#utility.yul\":995:997   */\n      0x40\n        /* \"#utility.yul\":984:993   */\n      dup4\n        /* \"#utility.yul\":980:998   */\n      add\n        /* \"#utility.yul\":971:977   */\n      dup5\n        /* \"#utility.yul\":933:999   */\n      tag_101\n      jump\t// in\n    tag_161:\n        /* \"#utility.yul\":576:1006   */\n      swap5\n      swap4\n      pop\n      pop\n      pop\n      pop\n      jump\t// out\n        /* \"#utility.yul\":1012:1222   */\n    tag_20:\n        /* \"#utility.yul\":1099:1103   */\n      0x00\n        /* \"#utility.yul\":1137:1139   */\n      0x20\n        /* \"#utility.yul\":1126:1135   */\n      dup3\n        /* \"#utility.yul\":1122:1140   */\n      add\n        /* \"#utility.yul\":1114:1140   */\n      swap1\n      pop\n        /* \"#utility.yul\":1150:1215   */\n      tag_163\n        /* \"#utility.yul\":1212:1213   */\n      0x00\n        /* \"#utility.yul\":1201:1210   */\n      dup4\n        /* \"#utility.yul\":1197:1214   */\n      add\n        /* \"#utility.yul\":1188:1194   */\n      dup5\n        /* \"#utility.yul\":1150:1215   */\n      tag_101\n      jump\t// in\n    tag_163:\n        /* \"#utility.yul\":1012:1222   */\n      swap3\n      swap2\n      pop\n      pop\n      jump\t// out\n        /* \"#utility.yul\":1228:1303   */\n    tag_102:\n        /* \"#utility.yul\":1261:1267   */\n      0x00\n        /* \"#utility.yul\":1294:1296   */\n      0x40\n        /* \"#utility.yul\":1288:1297   */\n      mload\n        /* \"#utility.yul\":1278:1297   */\n      swap1\n      pop\n        /* \"#utility.yul\":1228:1303   */\n      swap1\n      jump\t// out\n        /* \"#utility.yul\":1309:1426   */\n    tag_103:\n        /* \"#utility.yul\":1418:1419   */\n      0x00\n        /* \"#utility.yul\":1415:1416   */\n      dup1\n        /* \"#utility.yul\":1408:1420   */\n      revert\n        /* \"#utility.yul\":1432:1549   */\n    tag_104:\n        /* \"#utility.yul\":1541:1542   */\n      0x00\n        /* \"#utility.yul\":1538:1539   */\n      dup1\n        /* \"#utility.yul\":1531:1543   */\n      revert\n        /* \"#utility.yul\":1555:1672   */\n    tag_105:\n        /* \"#utility.yul\":1664:1665   */\n      0x00\n        /* \"#utility.yul\":1661:1662   */\n      dup1\n        /* \"#utility.yul\":1654:1666   */\n      revert\n        /* \"#utility.yul\":1678:1795   */\n    tag_106:\n        /* \"#utility.yul\":1787:1788   */\n      0x00\n        /* \"#utility.yul\":1784:1785   */\n      dup1\n        /* \"#utility.yul\":1777:1789   */\n      revert\n        /* \"#utility.yul\":1801:1903   */\n    tag_107:\n        /* \"#utility.yul\":1842:1848   */\n      0x00\n        /* \"#utility.yul\":1893:1895   */\n      0x1f\n        /* \"#utility.yul\":1889:1896   */\n      not\n        /* \"#utility.yul\":1884:1886   */\n      0x1f\n        /* \"#utility.yul\":1877:1882   */\n      dup4\n        /* \"#utility.yul\":1873:1887   */\n      add\n        /* \"#utility.yul\":1869:1897   */\n      and\n        /* \"#utility.yul\":1859:1897   */\n      swap1\n      pop\n        /* \"#utility.yul\":1801:1903   */\n      swap2\n      swap1\n      pop\n      jump\t// out\n        /* \"#utility.yul\":1909:2089   */\n    tag_108:\n        /* \"#utility.yul\":1957:2034   */\n      0x4e487b7100000000000000000000000000000000000000000000000000000000\n        /* \"#utility.yul\":1954:1955   */\n      0x00\n        /* \"#utility.yul\":1947:2035   */\n      mstore\n        /* \"#utility.yul\":2054:2058   */\n      0x41\n        /* \"#utility.yul\":2051:2052   */\n      0x04\n        /* \"#utility.yul\":2044:2059   */\n      mstore\n        /* \"#utility.yul\":2078:2082   */\n      0x24\n        /* \"#utility.yul\":2075:2076   */\n      0x00\n        /* \"#utility.yul\":2068:2083   */\n      revert\n        /* \"#utility.yul\":2095:2376   */\n    tag_109:\n        /* \"#utility.yul\":2178:2205   */\n      tag_172\n        /* \"#utility.yul\":2200:2204   */\n      dup3\n        /* \"#utility.yul\":2178:2205   */\n      tag_107\n      jump\t// in\n    tag_172:\n        /* \"#utility.yul\":2170:2176   */\n      dup2\n        /* \"#utility.yul\":2166:2206   */\n      add\n        /* \"#utility.yul\":2308:2314   */\n      dup2\n        /* \"#utility.yul\":2296:2306   */\n      dup2\n        /* \"#utility.yul\":2293:2315   */\n      lt\n        /* \"#utility.yul\":2272:2290   */\n      0xffffffffffffffff\n        /* \"#utility.yul\":2260:2270   */\n      dup3\n        /* \"#utility.yul\":2257:2291   */\n      gt\n        /* \"#utility.yul\":2254:2316   */\n      or\n        /* \"#utility.yul\":2251:2339   */\n      iszero\n      tag_173\n      jumpi\n        /* \"#utility.yul\":2319:2337   */\n      tag_174\n      tag_108\n      jump\t// in\n    tag_174:\n        /* \"#utility.yul\":2251:2339   */\n    tag_173:\n        /* \"#utility.yul\":2359:2369   */\n      dup1\n        /* \"#utility.yul\":2355:2357   */\n      0x40\n        /* \"#utility.yul\":2348:2370   */\n      mstore\n        /* \"#utility.yul\":2138:2376   */\n      pop\n        /* \"#utility.yul\":2095:2376   */\n      pop\n      pop\n      jump\t// out\n        /* \"#utility.yul\":2382:2511   */\n    tag_110:\n        /* \"#utility.yul\":2416:2422   */\n      0x00\n        /* \"#utility.yul\":2443:2463   */\n      tag_176\n      tag_102\n      jump\t// in\n    tag_176:\n        /* \"#utility.yul\":2433:2463   */\n      swap1\n      pop\n        /* \"#utility.yul\":2472:2505   */\n      tag_177\n        /* \"#utility.yul\":2500:2504   */\n      dup3\n        /* \"#utility.yul\":2492:2498   */\n      dup3\n        /* \"#utility.yul\":2472:2505   */\n      tag_109\n      jump\t// in\n    tag_177:\n        /* \"#utility.yul\":2382:2511   */\n      swap2\n      swap1\n      pop\n      jump\t// out\n        /* \"#utility.yul\":2517:2825   */\n    tag_111:\n        /* \"#utility.yul\":2579:2583   */\n      0x00\n        /* \"#utility.yul\":2669:2687   */\n      0xffffffffffffffff\n        /* \"#utility.yul\":2661:2667   */\n      dup3\n        /* \"#utility.yul\":2658:2688   */\n      gt\n        /* \"#utility.yul\":2655:2711   */\n      iszero\n      tag_179\n      jumpi\n        /* \"#utility.yul\":2691:2709   */\n      tag_180\n      tag_108\n      jump\t// in\n    tag_180:\n        /* \"#utility.yul\":2655:2711   */\n    tag_179:\n        /* \"#utility.yul\":2729:2758   */\n      tag_181\n        /* \"#utility.yul\":2751:2757   */\n      dup3\n        /* \"#utility.yul\":2729:2758   */\n      tag_107\n      jump\t// in\n    tag_181:\n        /* \"#utility.yul\":2721:2758   */\n      swap1\n      pop\n        /* \"#utility.yul\":2813:2817   */\n      0x20\n        /* \"#utility.yul\":2807:2811   */\n      dup2\n        /* \"#utility.yul\":2803:2818   */\n      add\n        /* \"#utility.yul\":2795:2818   */\n      swap1\n      pop\n        /* \"#utility.yul\":2517:2825   */\n      swap2\n      swap1\n      pop\n      jump\t// out\n        /* \"#utility.yul\":2831:2977   */\n    tag_112:\n        /* \"#utility.yul\":2928:2934   */\n      dup3\n        /* \"#utility.yul\":2923:2926   */\n      dup2\n        /* \"#utility.yul\":2918:2921   */\n      dup4\n        /* \"#utility.yul\":2905:2935   */\n      calldatacopy\n        /* \"#utility.yul\":2969:2970   */\n      0x00\n        /* \"#utility.yul\":2960:2966   */\n      dup4\n        /* \"#utility.yul\":2955:2958   */\n      dup4\n        /* \"#utility.yul\":2951:2967   */\n      add\n        /* \"#utility.yul\":2944:2971   */\n      mstore\n        /* \"#utility.yul\":2831:2977   */\n      pop\n      pop\n      pop\n      jump\t// out\n        /* \"#utility.yul\":2983:3408   */\n    tag_113:\n        /* \"#utility.yul\":3061:3066   */\n      0x00\n        /* \"#utility.yul\":3086:3152   */\n      tag_184\n        /* \"#utility.yul\":3102:3151   */\n      tag_185\n        /* \"#utility.yul\":3144:3150   */\n      dup5\n        /* \"#utility.yul\":3102:3151   */\n      tag_111\n      jump\t// in\n    tag_185:\n        /* \"#utility.yul\":3086:3152   */\n      tag_110\n      jump\t// in\n    tag_184:\n        /* \"#utility.yul\":3077:3152   */\n      swap1\n      pop\n        /* \"#utility.yul\":3175:3181   */\n      dup3\n        /* \"#utility.yul\":3168:3173   */\n      dup2\n        /* \"#utility.yul\":3161:3182   */\n      mstore\n        /* \"#utility.yul\":3213:3217   */\n      0x20\n        /* \"#utility.yul\":3206:3211   */\n      dup2\n        /* \"#utility.yul\":3202:3218   */\n      add\n        /* \"#utility.yul\":3251:3254   */\n      dup5\n        /* \"#utility.yul\":3242:3248   */\n      dup5\n        /* \"#utility.yul\":3237:3240   */\n      dup5\n        /* \"#utility.yul\":3233:3249   */\n      add\n        /* \"#utility.yul\":3230:3255   */\n      gt\n        /* \"#utility.yul\":3227:3339   */\n      iszero\n      tag_186\n      jumpi\n        /* \"#utility.yul\":3258:3337   */\n      tag_187\n      tag_106\n      jump\t// in\n    tag_187:\n        /* \"#utility.yul\":3227:3339   */\n    tag_186:\n        /* \"#utility.yul\":3348:3402   */\n      tag_188\n        /* \"#utility.yul\":3395:3401   */\n      dup5\n        /* \"#utility.yul\":3390:3393   */\n      dup3\n        /* \"#utility.yul\":3385:3388   */\n      dup6\n        /* \"#utility.yul\":3348:3402   */\n      tag_112\n      jump\t// in\n    tag_188:\n        /* \"#utility.yul\":3067:3408   */\n      pop\n        /* \"#utility.yul\":2983:3408   */\n      swap4\n      swap3\n      pop\n      pop\n      pop\n      jump\t// out\n        /* \"#utility.yul\":3428:3768   */\n    tag_114:\n        /* \"#utility.yul\":3484:3489   */\n      0x00\n        /* \"#utility.yul\":3533:3536   */\n      dup3\n        /* \"#utility.yul\":3526:3530   */\n      0x1f\n        /* \"#utility.yul\":3518:3524   */\n      dup4\n        /* \"#utility.yul\":3514:3531   */\n      add\n        /* \"#utility.yul\":3510:3537   */\n      slt\n        /* \"#utility.yul\":3500:3622   */\n      tag_190\n      jumpi\n        /* \"#utility.yul\":3541:3620   */\n      tag_191\n      tag_105\n      jump\t// in\n    tag_191:\n        /* \"#utility.yul\":3500:3622   */\n    tag_190:\n        /* \"#utility.yul\":3658:3664   */\n      dup2\n        /* \"#utility.yul\":3645:3665   */\n      calldataload\n        /* \"#utility.yul\":3683:3762   */\n      tag_192\n        /* \"#utility.yul\":3758:3761   */\n      dup5\n        /* \"#utility.yul\":3750:3756   */\n      dup3\n        /* \"#utility.yul\":3743:3747   */\n      0x20\n        /* \"#utility.yul\":3735:3741   */\n      dup7\n        /* \"#utility.yul\":3731:3748   */\n      add\n        /* \"#utility.yul\":3683:3762   */\n      tag_113\n      jump\t// in\n    tag_192:\n        /* \"#utility.yul\":3674:3762   */\n      swap2\n      pop\n        /* \"#utility.yul\":3490:3768   */\n      pop\n        /* \"#utility.yul\":3428:3768   */\n      swap3\n      swap2\n      pop\n      pop\n      jump\t// out\n        /* \"#utility.yul\":3774:4608   */\n    tag_23:\n        /* \"#utility.yul\":3862:3868   */\n      0x00\n        /* \"#utility.yul\":3870:3876   */\n      dup1\n        /* \"#utility.yul\":3919:3921   */\n      0x40\n        /* \"#utility.yul\":3907:3916   */\n      dup4\n        /* \"#utility.yul\":3898:3905   */\n      dup6\n        /* \"#utility.yul\":3894:3917   */\n      sub\n        /* \"#utility.yul\":3890:3922   */\n      slt\n        /* \"#utility.yul\":3887:4006   */\n      iszero\n      tag_194\n      jumpi\n        /* \"#utility.yul\":3925:4004   */\n      tag_195\n      tag_103\n      jump\t// in\n    tag_195:\n        /* \"#utility.yul\":3887:4006   */\n    tag_194:\n        /* \"#utility.yul\":4073:4074   */\n      0x00\n        /* \"#utility.yul\":4062:4071   */\n      dup4\n        /* \"#utility.yul\":4058:4075   */\n      add\n        /* \"#utility.yul\":4045:4076   */\n      calldataload\n        /* \"#utility.yul\":4103:4121   */\n      0xffffffffffffffff\n        /* \"#utility.yul\":4095:4101   */\n      dup2\n        /* \"#utility.yul\":4092:4122   */\n      gt\n        /* \"#utility.yul\":4089:4206   */\n      iszero\n      tag_196\n      jumpi\n        /* \"#utility.yul\":4125:4204   */\n      tag_197\n      tag_104\n      jump\t// in\n    tag_197:\n        /* \"#utility.yul\":4089:4206   */\n    tag_196:\n        /* \"#utility.yul\":4230:4293   */\n      tag_198\n        /* \"#utility.yul\":4285:4292   */\n      dup6\n        /* \"#utility.yul\":4276:4282   */\n      dup3\n        /* \"#utility.yul\":4265:4274   */\n      dup7\n        /* \"#utility.yul\":4261:4283   */\n      add\n        /* \"#utility.yul\":4230:4293   */\n      tag_114\n      jump\t// in\n    tag_198:\n        /* \"#utility.yul\":4220:4293   */\n      swap3\n      pop\n        /* \"#utility.yul\":4016:4303   */\n      pop\n        /* \"#utility.yul\":4370:4372   */\n      0x20\n        /* \"#utility.yul\":4359:4368   */\n      dup4\n        /* \"#utility.yul\":4355:4373   */\n      add\n        /* \"#utility.yul\":4342:4374   */\n      calldataload\n        /* \"#utility.yul\":4401:4419   */\n      0xffffffffffffffff\n        /* \"#utility.yul\":4393:4399   */\n      dup2\n        /* \"#utility.yul\":4390:4420   */\n      gt\n        /* \"#utility.yul\":4387:4504   */\n      iszero\n      tag_199\n      jumpi\n        /* \"#utility.yul\":4423:4502   */\n      tag_200\n      tag_104\n      jump\t// in\n    tag_200:\n        /* \"#utility.yul\":4387:4504   */\n    tag_199:\n        /* \"#utility.yul\":4528:4591   */\n      tag_201\n        /* \"#utility.yul\":4583:4590   */\n      dup6\n        /* \"#utility.yul\":4574:4580   */\n      dup3\n        /* \"#utility.yul\":4563:4572   */\n      dup7\n        /* \"#utility.yul\":4559:4581   */\n      add\n        /* \"#utility.yul\":4528:4591   */\n      tag_114\n      jump\t// in\n    tag_201:\n        /* \"#utility.yul\":4518:4591   */\n      swap2\n      pop\n        /* \"#utility.yul\":4313:4601   */\n      pop\n        /* \"#utility.yul\":3774:4608   */\n      swap3\n      pop\n      swap3\n      swap1\n      pop\n      jump\t// out\n        /* \"#utility.yul\":4614:4736   */\n    tag_115:\n        /* \"#utility.yul\":4687:4711   */\n      tag_203\n        /* \"#utility.yul\":4705:4710   */\n      dup2\n        /* \"#utility.yul\":4687:4711   */\n      tag_98\n      jump\t// in\n    tag_203:\n        /* \"#utility.yul\":4680:4685   */\n      dup2\n        /* \"#utility.yul\":4677:4712   */\n      eq\n        /* \"#utility.yul\":4667:4730   */\n      tag_204\n      jumpi\n        /* \"#utility.yul\":4726:4727   */\n      0x00\n        /* \"#utility.yul\":4723:4724   */\n      dup1\n        /* \"#utility.yul\":4716:4728   */\n      revert\n        /* \"#utility.yul\":4667:4730   */\n    tag_204:\n        /* \"#utility.yul\":4614:4736   */\n      pop\n      jump\t// out\n        /* \"#utility.yul\":4742:4881   */\n    tag_116:\n        /* \"#utility.yul\":4788:4793   */\n      0x00\n        /* \"#utility.yul\":4826:4832   */\n      dup2\n        /* \"#utility.yul\":4813:4833   */\n      calldataload\n        /* \"#utility.yul\":4804:4833   */\n      swap1\n      pop\n        /* \"#utility.yul\":4842:4875   */\n      tag_206\n        /* \"#utility.yul\":4869:4874   */\n      dup2\n        /* \"#utility.yul\":4842:4875   */\n      tag_115\n      jump\t// in\n    tag_206:\n        /* \"#utility.yul\":4742:4881   */\n      swap3\n      swap2\n      pop\n      pop\n      jump\t// out\n        /* \"#utility.yul\":4887:5216   */\n    tag_30:\n        /* \"#utility.yul\":4946:4952   */\n      0x00\n        /* \"#utility.yul\":4995:4997   */\n      0x20\n        /* \"#utility.yul\":4983:4992   */\n      dup3\n        /* \"#utility.yul\":4974:4981   */\n      dup5\n        /* \"#utility.yul\":4970:4993   */\n      sub\n        /* \"#utility.yul\":4966:4998   */\n      slt\n        /* \"#utility.yul\":4963:5082   */\n      iszero\n      tag_208\n      jumpi\n        /* \"#utility.yul\":5001:5080   */\n      tag_209\n      tag_103\n      jump\t// in\n    tag_209:\n        /* \"#utility.yul\":4963:5082   */\n    tag_208:\n        /* \"#utility.yul\":5121:5122   */\n      0x00\n        /* \"#utility.yul\":5146:5199   */\n      tag_210\n        /* \"#utility.yul\":5191:5198   */\n      dup5\n        /* \"#utility.yul\":5182:5188   */\n      dup3\n        /* \"#utility.yul\":5171:5180   */\n      dup6\n        /* \"#utility.yul\":5167:5189   */\n      add\n        /* \"#utility.yul\":5146:5199   */\n      tag_116\n      jump\t// in\n    tag_210:\n        /* \"#utility.yul\":5136:5199   */\n      swap2\n      pop\n        /* \"#utility.yul\":5092:5209   */\n      pop\n        /* \"#utility.yul\":4887:5216   */\n      swap3\n      swap2\n      pop\n      pop\n      jump\t// out\n        /* \"#utility.yul\":5222:5321   */\n    tag_117:\n        /* \"#utility.yul\":5274:5280   */\n      0x00\n        /* \"#utility.yul\":5308:5313   */\n      dup2\n        /* \"#utility.yul\":5302:5314   */\n      mload\n        /* \"#utility.yul\":5292:5314   */\n      swap1\n      pop\n        /* \"#utility.yul\":5222:5321   */\n      swap2\n      swap1\n      pop\n      jump\t// out\n        /* \"#utility.yul\":5327:5496   */\n    tag_118:\n        /* \"#utility.yul\":5411:5422   */\n      0x00\n        /* \"#utility.yul\":5445:5451   */\n      dup3\n        /* \"#utility.yul\":5440:5443   */\n      dup3\n        /* \"#utility.yul\":5433:5452   */\n      mstore\n        /* \"#utility.yul\":5485:5489   */\n      0x20\n        /* \"#utility.yul\":5480:5483   */\n      dup3\n        /* \"#utility.yul\":5476:5490   */\n      add\n        /* \"#utility.yul\":5461:5490   */\n      swap1\n      pop\n        /* \"#utility.yul\":5327:5496   */\n      swap3\n      swap2\n      pop\n      pop\n      jump\t// out\n        /* \"#utility.yul\":5502:5748   */\n    tag_119:\n        /* \"#utility.yul\":5583:5584   */\n      0x00\n        /* \"#utility.yul\":5593:5706   */\n    tag_214:\n        /* \"#utility.yul\":5607:5613   */\n      dup4\n        /* \"#utility.yul\":5604:5605   */\n      dup2\n        /* \"#utility.yul\":5601:5614   */\n      lt\n        /* \"#utility.yul\":5593:5706   */\n      iszero\n      tag_216\n      jumpi\n        /* \"#utility.yul\":5692:5693   */\n      dup1\n        /* \"#utility.yul\":5687:5690   */\n      dup3\n        /* \"#utility.yul\":5683:5694   */\n      add\n        /* \"#utility.yul\":5677:5695   */\n      mload\n        /* \"#utility.yul\":5673:5674   */\n      dup2\n        /* \"#utility.yul\":5668:5671   */\n      dup5\n        /* \"#utility.yul\":5664:5675   */\n      add\n        /* \"#utility.yul\":5657:5696   */\n      mstore\n        /* \"#utility.yul\":5629:5631   */\n      0x20\n        /* \"#utility.yul\":5626:5627   */\n      dup2\n        /* \"#utility.yul\":5622:5632   */\n      add\n        /* \"#utility.yul\":5617:5632   */\n      swap1\n      pop\n        /* \"#utility.yul\":5593:5706   */\n      jump(tag_214)\n    tag_216:\n        /* \"#utility.yul\":5740:5741   */\n      0x00\n        /* \"#utility.yul\":5731:5737   */\n      dup5\n        /* \"#utility.yul\":5726:5729   */\n      dup5\n        /* \"#utility.yul\":5722:5738   */\n      add\n        /* \"#utility.yul\":5715:5742   */\n      mstore\n        /* \"#utility.yul\":5564:5748   */\n      pop\n        /* \"#utility.yul\":5502:5748   */\n      pop\n      pop\n      pop\n      jump\t// out\n        /* \"#utility.yul\":5754:6131   */\n    tag_120:\n        /* \"#utility.yul\":5842:5845   */\n      0x00\n        /* \"#utility.yul\":5870:5909   */\n      tag_218\n        /* \"#utility.yul\":5903:5908   */\n      dup3\n        /* \"#utility.yul\":5870:5909   */\n      tag_117\n      jump\t// in\n    tag_218:\n        /* \"#utility.yul\":5925:5996   */\n      tag_219\n        /* \"#utility.yul\":5989:5995   */\n      dup2\n        /* \"#utility.yul\":5984:5987   */\n      dup6\n        /* \"#utility.yul\":5925:5996   */\n      tag_118\n      jump\t// in\n    tag_219:\n        /* \"#utility.yul\":5918:5996   */\n      swap4\n      pop\n        /* \"#utility.yul\":6005:6070   */\n      tag_220\n        /* \"#utility.yul\":6063:6069   */\n      dup2\n        /* \"#utility.yul\":6058:6061   */\n      dup6\n        /* \"#utility.yul\":6051:6055   */\n      0x20\n        /* \"#utility.yul\":6044:6049   */\n      dup7\n        /* \"#utility.yul\":6040:6056   */\n      add\n        /* \"#utility.yul\":6005:6070   */\n      tag_119\n      jump\t// in\n    tag_220:\n        /* \"#utility.yul\":6095:6124   */\n      tag_221\n        /* \"#utility.yul\":6117:6123   */\n      dup2\n        /* \"#utility.yul\":6095:6124   */\n      tag_107\n      jump\t// in\n    tag_221:\n        /* \"#utility.yul\":6090:6093   */\n      dup5\n        /* \"#utility.yul\":6086:6125   */\n      add\n        /* \"#utility.yul\":6079:6125   */\n      swap2\n      pop\n        /* \"#utility.yul\":5846:6131   */\n      pop\n        /* \"#utility.yul\":5754:6131   */\n      swap3\n      swap2\n      pop\n      pop\n      jump\t// out\n        /* \"#utility.yul\":6137:6761   */\n    tag_33:\n        /* \"#utility.yul\":6326:6330   */\n      0x00\n        /* \"#utility.yul\":6364:6366   */\n      0x60\n        /* \"#utility.yul\":6353:6362   */\n      dup3\n        /* \"#utility.yul\":6349:6367   */\n      add\n        /* \"#utility.yul\":6341:6367   */\n      swap1\n      pop\n        /* \"#utility.yul\":6377:6448   */\n      tag_223\n        /* \"#utility.yul\":6445:6446   */\n      0x00\n        /* \"#utility.yul\":6434:6443   */\n      dup4\n        /* \"#utility.yul\":6430:6447   */\n      add\n        /* \"#utility.yul\":6421:6427   */\n      dup7\n        /* \"#utility.yul\":6377:6448   */\n      tag_99\n      jump\t// in\n    tag_223:\n        /* \"#utility.yul\":6495:6504   */\n      dup2\n        /* \"#utility.yul\":6489:6493   */\n      dup2\n        /* \"#utility.yul\":6485:6505   */\n      sub\n        /* \"#utility.yul\":6480:6482   */\n      0x20\n        /* \"#utility.yul\":6469:6478   */\n      dup4\n        /* \"#utility.yul\":6465:6483   */\n      add\n        /* \"#utility.yul\":6458:6506   */\n      mstore\n        /* \"#utility.yul\":6523:6601   */\n      tag_224\n        /* \"#utility.yul\":6596:6600   */\n      dup2\n        /* \"#utility.yul\":6587:6593   */\n      dup6\n        /* \"#utility.yul\":6523:6601   */\n      tag_120\n      jump\t// in\n    tag_224:\n        /* \"#utility.yul\":6515:6601   */\n      swap1\n      pop\n        /* \"#utility.yul\":6648:6657   */\n      dup2\n        /* \"#utility.yul\":6642:6646   */\n      dup2\n        /* \"#utility.yul\":6638:6658   */\n      sub\n        /* \"#utility.yul\":6633:6635   */\n      0x40\n        /* \"#utility.yul\":6622:6631   */\n      dup4\n        /* \"#utility.yul\":6618:6636   */\n      add\n        /* \"#utility.yul\":6611:6659   */\n      mstore\n        /* \"#utility.yul\":6676:6754   */\n      tag_225\n        /* \"#utility.yul\":6749:6753   */\n      dup2\n        /* \"#utility.yul\":6740:6746   */\n      dup5\n        /* \"#utility.yul\":6676:6754   */\n      tag_120\n      jump\t// in\n    tag_225:\n        /* \"#utility.yul\":6668:6754   */\n      swap1\n      pop\n        /* \"#utility.yul\":6137:6761   */\n      swap5\n      swap4\n      pop\n      pop\n      pop\n      pop\n      jump\t// out\n        /* \"#utility.yul\":6767:6940   */\n    tag_121:\n        /* \"#utility.yul\":6907:6932   */\n      0x5573657220616c72656164792072656769737465726564000000000000000000\n        /* \"#utility.yul\":6903:6904   */\n      0x00\n        /* \"#utility.yul\":6895:6901   */\n      dup3\n        /* \"#utility.yul\":6891:6905   */\n      add\n        /* \"#utility.yul\":6884:6933   */\n      mstore\n        /* \"#utility.yul\":6767:6940   */\n      pop\n      jump\t// out\n        /* \"#utility.yul\":6946:7312   */\n    tag_122:\n        /* \"#utility.yul\":7088:7091   */\n      0x00\n        /* \"#utility.yul\":7109:7176   */\n      tag_228\n        /* \"#utility.yul\":7173:7175   */\n      0x17\n        /* \"#utility.yul\":7168:7171   */\n      dup4\n        /* \"#utility.yul\":7109:7176   */\n      tag_118\n      jump\t// in\n    tag_228:\n        /* \"#utility.yul\":7102:7176   */\n      swap2\n      pop\n        /* \"#utility.yul\":7185:7278   */\n      tag_229\n        /* \"#utility.yul\":7274:7277   */\n      dup3\n        /* \"#utility.yul\":7185:7278   */\n      tag_121\n      jump\t// in\n    tag_229:\n        /* \"#utility.yul\":7303:7305   */\n      0x20\n        /* \"#utility.yul\":7298:7301   */\n      dup3\n        /* \"#utility.yul\":7294:7306   */\n      add\n        /* \"#utility.yul\":7287:7306   */\n      swap1\n      pop\n        /* \"#utility.yul\":6946:7312   */\n      swap2\n      swap1\n      pop\n      jump\t// out\n        /* \"#utility.yul\":7318:7737   */\n    tag_54:\n        /* \"#utility.yul\":7484:7488   */\n      0x00\n        /* \"#utility.yul\":7522:7524   */\n      0x20\n        /* \"#utility.yul\":7511:7520   */\n      dup3\n        /* \"#utility.yul\":7507:7525   */\n      add\n        /* \"#utility.yul\":7499:7525   */\n      swap1\n      pop\n        /* \"#utility.yul\":7571:7580   */\n      dup2\n        /* \"#utility.yul\":7565:7569   */\n      dup2\n        /* \"#utility.yul\":7561:7581   */\n      sub\n        /* \"#utility.yul\":7557:7558   */\n      0x00\n        /* \"#utility.yul\":7546:7555   */\n      dup4\n        /* \"#utility.yul\":7542:7559   */\n      add\n        /* \"#utility.yul\":7535:7582   */\n      mstore\n        /* \"#utility.yul\":7599:7730   */\n      tag_231\n        /* \"#utility.yul\":7725:7729   */\n      dup2\n        /* \"#utility.yul\":7599:7730   */\n      tag_122\n      jump\t// in\n    tag_231:\n        /* \"#utility.yul\":7591:7730   */\n      swap1\n      pop\n        /* \"#utility.yul\":7318:7737   */\n      swap2\n      swap1\n      pop\n      jump\t// out\n        /* \"#utility.yul\":7743:7923   */\n    tag_123:\n        /* \"#utility.yul\":7791:7868   */\n      0x4e487b7100000000000000000000000000000000000000000000000000000000\n        /* \"#utility.yul\":7788:7789   */\n      0x00\n        /* \"#utility.yul\":7781:7869   */\n      mstore\n        /* \"#utility.yul\":7888:7892   */\n      0x22\n        /* \"#utility.yul\":7885:7886   */\n      0x04\n        /* \"#utility.yul\":7878:7893   */\n      mstore\n        /* \"#utility.yul\":7912:7916   */\n      0x24\n        /* \"#utility.yul\":7909:7910   */\n      0x00\n        /* \"#utility.yul\":7902:7917   */\n      revert\n        /* \"#utility.yul\":7929:8249   */\n    tag_64:\n        /* \"#utility.yul\":7973:7979   */\n      0x00\n        /* \"#utility.yul\":8010:8011   */\n      0x02\n        /* \"#utility.yul\":8004:8008   */\n      dup3\n        /* \"#utility.yul\":8000:8012   */\n      div\n        /* \"#utility.yul\":7990:8012   */\n      swap1\n      pop\n        /* \"#utility.yul\":8057:8058   */\n      0x01\n        /* \"#utility.yul\":8051:8055   */\n      dup3\n        /* \"#utility.yul\":8047:8059   */\n      and\n        /* \"#utility.yul\":8078:8096   */\n      dup1\n        /* \"#utility.yul\":8068:8149   */\n      tag_234\n      jumpi\n        /* \"#utility.yul\":8134:8138   */\n      0x7f\n        /* \"#utility.yul\":8126:8132   */\n      dup3\n        /* \"#utility.yul\":8122:8139   */\n      and\n        /* \"#utility.yul\":8112:8139   */\n      swap2\n      pop\n        /* \"#utility.yul\":8068:8149   */\n    tag_234:\n        /* \"#utility.yul\":8196:8198   */\n      0x20\n        /* \"#utility.yul\":8188:8194   */\n      dup3\n        /* \"#utility.yul\":8185:8199   */\n      lt\n        /* \"#utility.yul\":8165:8183   */\n      dup2\n        /* \"#utility.yul\":8162:8200   */\n      sub\n        /* \"#utility.yul\":8159:8243   */\n      tag_235\n      jumpi\n        /* \"#utility.yul\":8215:8233   */\n      tag_236\n      tag_123\n      jump\t// in\n    tag_236:\n        /* \"#utility.yul\":8159:8243   */\n    tag_235:\n        /* \"#utility.yul\":7980:8249   */\n      pop\n        /* \"#utility.yul\":7929:8249   */\n      swap2\n      swap1\n      pop\n      jump\t// out\n        /* \"#utility.yul\":8255:8396   */\n    tag_124:\n        /* \"#utility.yul\":8304:8308   */\n      0x00\n        /* \"#utility.yul\":8327:8330   */\n      dup2\n        /* \"#utility.yul\":8319:8330   */\n      swap1\n      pop\n        /* \"#utility.yul\":8350:8353   */\n      dup2\n        /* \"#utility.yul\":8347:8348   */\n      0x00\n        /* \"#utility.yul\":8340:8354   */\n      mstore\n        /* \"#utility.yul\":8384:8388   */\n      0x20\n        /* \"#utility.yul\":8381:8382   */\n      0x00\n        /* \"#utility.yul\":8371:8389   */\n      keccak256\n        /* \"#utility.yul\":8363:8389   */\n      swap1\n      pop\n        /* \"#utility.yul\":8255:8396   */\n      swap2\n      swap1\n      pop\n      jump\t// out\n        /* \"#utility.yul\":8402:8495   */\n    tag_125:\n        /* \"#utility.yul\":8439:8445   */\n      0x00\n        /* \"#utility.yul\":8486:8488   */\n      0x20\n        /* \"#utility.yul\":8481:8483   */\n      0x1f\n        /* \"#utility.yul\":8474:8479   */\n      dup4\n        /* \"#utility.yul\":8470:8484   */\n      add\n        /* \"#utility.yul\":8466:8489   */\n      div\n        /* \"#utility.yul\":8456:8489   */\n      swap1\n      pop\n        /* \"#utility.yul\":8402:8495   */\n      swap2\n      swap1\n      pop\n      jump\t// out\n        /* \"#utility.yul\":8501:8608   */\n    tag_126:\n        /* \"#utility.yul\":8545:8553   */\n      0x00\n        /* \"#utility.yul\":8595:8600   */\n      dup3\n        /* \"#utility.yul\":8589:8593   */\n      dup3\n        /* \"#utility.yul\":8585:8601   */\n      shl\n        /* \"#utility.yul\":8564:8601   */\n      swap1\n      pop\n        /* \"#utility.yul\":8501:8608   */\n      swap3\n      swap2\n      pop\n      pop\n      jump\t// out\n        /* \"#utility.yul\":8614:9007   */\n    tag_127:\n        /* \"#utility.yul\":8683:8689   */\n      0x00\n        /* \"#utility.yul\":8733:8734   */\n      0x08\n        /* \"#utility.yul\":8721:8731   */\n      dup4\n        /* \"#utility.yul\":8717:8735   */\n      mul\n        /* \"#utility.yul\":8756:8853   */\n      tag_241\n        /* \"#utility.yul\":8786:8852   */\n      0xffffffffffffffffffffffffffffffffffffffffffffffffffffffffffffffff\n        /* \"#utility.yul\":8775:8784   */\n      dup3\n        /* \"#utility.yul\":8756:8853   */\n      tag_126\n      jump\t// in\n    tag_241:\n        /* \"#utility.yul\":8874:8913   */\n      tag_242\n        /* \"#utility.yul\":8904:8912   */\n      dup7\n        /* \"#utility.yul\":8893:8902   */\n      dup4\n        /* \"#utility.yul\":8874:8913   */\n      tag_126\n      jump\t// in\n    tag_242:\n        /* \"#utility.yul\":8862:8913   */\n      swap6\n      pop\n        /* \"#utility.yul\":8946:8950   */\n      dup1\n        /* \"#utility.yul\":8942:8951   */\n      not\n        /* \"#utility.yul\":8935:8940   */\n      dup5\n        /* \"#utility.yul\":8931:8952   */\n      and\n        /* \"#utility.yul\":8922:8952   */\n      swap4\n      pop\n        /* \"#utility.yul\":8995:8999   */\n      dup1\n        /* \"#utility.yul\":8985:8993   */\n      dup7\n        /* \"#utility.yul\":8981:9000   */\n      and\n        /* \"#utility.yul\":8974:8979   */\n      dup5\n        /* \"#utility.yul\":8971:9001   */\n      or\n        /* \"#utility.yul\":8961:9001   */\n      swap3\n      pop\n        /* \"#utility.yul\":8690:9007   */\n      pop\n      pop\n        /* \"#utility.yul\":8614:9007   */\n      swap4\n      swap3\n      pop\n      pop\n      pop\n      jump\t// out\n        /* \"#utility.yul\":9013:9090   */\n    tag_128:\n        /* \"#utility.yul\":9050:9057   */\n      0x00\n        /* \"#utility.yul\":9079:9084   */\n      dup2\n        /* \"#utility.yul\":9068:9084   */\n      swap1\n      pop\n        /* \"#utility.yul\":9013:9090   */\n      swap2\n      swap1\n      pop\n      jump\t// out\n        /* \"#utility.yul\":9096:9156   */\n    tag_129:\n        /* \"#utility.yul\":9124:9127   */\n      0x00\n        /* \"#utility.yul\":9145:9150   */\n      dup2\n        /* \"#utility.yul\":9138:9150   */\n      swap1\n      pop\n        /* \"#utility.yul\":9096:9156   */\n      swap2\n      swap1\n      pop\n      jump\t// out\n        /* \"#utility.yul\":9162:9304   */\n    tag_130:\n        /* \"#utility.yul\":9212:9221   */\n      0x00\n        /* \"#utility.yul\":9245:9298   */\n      tag_246\n        /* \"#utility.yul\":9263:9297   */\n      tag_247\n        /* \"#utility.yul\":9272:9296   */\n      tag_248\n        /* \"#utility.yul\":9290:9295   */\n      dup5\n        /* \"#utility.yul\":9272:9296   */\n      tag_128\n      jump\t// in\n    tag_248:\n        /* \"#utility.yul\":9263:9297   */\n      tag_129\n      jump\t// in\n    tag_247:\n        /* \"#utility.yul\":9245:9298   */\n      tag_128\n      jump\t// in\n    tag_246:\n        /* \"#utility.yul\":9232:9298   */\n      swap1\n      pop\n        /* \"#utility.yul\":9162:9304   */\n      swap2\n      swap1\n      pop\n      jump\t// out\n        /* \"#utility.yul\":9310:9385   */\n    tag_131:\n        /* \"#utility.yul\":9353:9356   */\n      0x00\n        /* \"#utility.yul\":9374:9379   */\n      dup2\n        /* \"#utility.yul\":9367:9379   */\n      swap1\n      pop\n        /* \"#utility.yul\":9310:9385   */\n      swap2\n      swap1\n      pop\n      jump\t// out\n        /* \"#utility.yul\":9391:9660   */\n    tag_132:\n        /* \"#utility.yul\":9501:9540   */\n      tag_251\n        /* \"#utility.yul\":9532:9539   */\n      dup4\n        /* \"#utility.yul\":9501:9540   */\n      tag_130\n      jump\t// in\n    tag_251:\n        /* \"#utility.yul\":9562:9653   */\n      tag_252\n        /* \"#utility.yul\":9611:9652   */\n      tag_253\n        /* \"#utility.yul\":9635:9651   */\n      dup3\n        /* \"#utility.yul\":9611:9652   */\n      tag_131\n      jump\t// in\n    tag_253:\n        /* \"#utility.yul\":9603:9609   */\n      dup5\n        /* \"#utility.yul\":9596:9600   */\n      dup5\n        /* \"#utility.yul\":9590:9601   */\n      sload\n        /* \"#utility.yul\":9562:9653   */\n      tag_127\n      jump\t// in\n    tag_252:\n        /* \"#utility.yul\":9556:9560   */\n      dup3\n        /* \"#utility.yul\":9549:9654   */\n      sstore\n        /* \"#utility.yul\":9467:9660   */\n      pop\n        /* \"#utility.yul\":9391:9660   */\n      pop\n      pop\n      pop\n      jump\t// out\n        /* \"#utility.yul\":9666:9739   */\n    tag_133:\n        /* \"#utility.yul\":9711:9714   */\n      0x00\n        /* \"#utility.yul\":9666:9739   */\n      swap1\n      jump\t// out\n        /* \"#utility.yul\":9745:9934   */\n    tag_134:\n        /* \"#utility.yul\":9822:9854   */\n      tag_256\n      tag_133\n      jump\t// in\n    tag_256:\n        /* \"#utility.yul\":9863:9928   */\n      tag_257\n        /* \"#utility.yul\":9921:9927   */\n      dup2\n        /* \"#utility.yul\":9913:9919   */\n      dup5\n        /* \"#utility.yul\":9907:9911   */\n      dup5\n        /* \"#utility.yul\":9863:9928   */\n      tag_132\n      jump\t// in\n    tag_257:\n        /* \"#utility.yul\":9798:9934   */\n      pop\n        /* \"#utility.yul\":9745:9934   */\n      pop\n      pop\n      jump\t// out\n        /* \"#utility.yul\":9940:10126   */\n    tag_135:\n        /* \"#utility.yul\":10000:10120   */\n    tag_259:\n        /* \"#utility.yul\":10017:10020   */\n      dup2\n        /* \"#utility.yul\":10010:10015   */\n      dup2\n        /* \"#utility.yul\":10007:10021   */\n      lt\n        /* \"#utility.yul\":10000:10120   */\n      iszero\n      tag_261\n      jumpi\n        /* \"#utility.yul\":10071:10110   */\n      tag_262\n        /* \"#utility.yul\":10108:10109   */\n      0x00\n        /* \"#utility.yul\":10101:10106   */\n      dup3\n        /* \"#utility.yul\":10071:10110   */\n      tag_134\n      jump\t// in\n    tag_262:\n        /* \"#utility.yul\":10044:10045   */\n      0x01\n        /* \"#utility.yul\":10037:10042   */\n      dup2\n        /* \"#utility.yul\":10033:10046   */\n      add\n        /* \"#utility.yul\":10024:10046   */\n      swap1\n      pop\n        /* \"#utility.yul\":10000:10120   */\n      jump(tag_259)\n    tag_261:\n        /* \"#utility.yul\":9940:10126   */\n      pop\n      pop\n      jump\t// out\n        /* \"#utility.yul\":10132:10675   */\n    tag_136:\n        /* \"#utility.yul\":10233:10235   */\n      0x1f\n        /* \"#utility.yul\":10228:10231   */\n      dup3\n        /* \"#utility.yul\":10225:10236   */\n      gt\n        /* \"#utility.yul\":10222:10668   */\n      iszero\n      tag_264\n      jumpi\n        /* \"#utility.yul\":10267:10305   */\n      tag_265\n        /* \"#utility.yul\":10299:10304   */\n      dup2\n        /* \"#utility.yul\":10267:10305   */\n      tag_124\n      jump\t// in\n    tag_265:\n        /* \"#utility.yul\":10351:10380   */\n      tag_266\n        /* \"#utility.yul\":10369:10379   */\n      dup5\n        /* \"#utility.yul\":10351:10380   */\n      tag_125\n      jump\t// in\n    tag_266:\n        /* \"#utility.yul\":10341:10349   */\n      dup2\n        /* \"#utility.yul\":10337:10381   */\n      add\n        /* \"#utility.yul\":10534:10536   */\n      0x20\n        /* \"#utility.yul\":10522:10532   */\n      dup6\n        /* \"#utility.yul\":10519:10537   */\n      lt\n        /* \"#utility.yul\":10516:10565   */\n      iszero\n      tag_267\n      jumpi\n        /* \"#utility.yul\":10555:10563   */\n      dup2\n        /* \"#utility.yul\":10540:10563   */\n      swap1\n      pop\n        /* \"#utility.yul\":10516:10565   */\n    tag_267:\n        /* \"#utility.yul\":10578:10658   */\n      tag_268\n        /* \"#utility.yul\":10634:10656   */\n      tag_269\n        /* \"#utility.yul\":10652:10655   */\n      dup6\n        /* \"#utility.yul\":10634:10656   */\n      tag_125\n      jump\t// in\n    tag_269:\n        /* \"#utility.yul\":10624:10632   */\n      dup4\n        /* \"#utility.yul\":10620:10657   */\n      add\n        /* \"#utility.yul\":10607:10618   */\n      dup3\n        /* \"#utility.yul\":10578:10658   */\n      tag_135\n      jump\t// in\n    tag_268:\n        /* \"#utility.yul\":10237:10668   */\n      pop\n      pop\n        /* \"#utility.yul\":10222:10668   */\n    tag_264:\n        /* \"#utility.yul\":10132:10675   */\n      pop\n      pop\n      pop\n      jump\t// out\n        /* \"#utility.yul\":10681:10798   */\n    tag_137:\n        /* \"#utility.yul\":10735:10743   */\n      0x00\n        /* \"#utility.yul\":10785:10790   */\n      dup3\n        /* \"#utility.yul\":10779:10783   */\n      dup3\n        /* \"#utility.yul\":10775:10791   */\n      shr\n        /* \"#utility.yul\":10754:10791   */\n      swap1\n      pop\n        /* \"#utility.yul\":10681:10798   */\n      swap3\n      swap2\n      pop\n      pop\n      jump\t// out\n        /* \"#utility.yul\":10804:10973   */\n    tag_138:\n        /* \"#utility.yul\":10848:10854   */\n      0x00\n        /* \"#utility.yul\":10881:10932   */\n      tag_272\n        /* \"#utility.yul\":10929:10930   */\n      0x00\n        /* \"#utility.yul\":10925:10931   */\n      not\n        /* \"#utility.yul\":10917:10922   */\n      dup5\n        /* \"#utility.yul\":10914:10915   */\n      0x08\n        /* \"#utility.yul\":10910:10923   */\n      mul\n        /* \"#utility.yul\":10881:10932   */\n      tag_137\n      jump\t// in\n    tag_272:\n        /* \"#utility.yul\":10877:10933   */\n      not\n        /* \"#utility.yul\":10962:10966   */\n      dup1\n        /* \"#utility.yul\":10956:10960   */\n      dup4\n        /* \"#utility.yul\":10952:10967   */\n      and\n        /* \"#utility.yul\":10942:10967   */\n      swap2\n      pop\n        /* \"#utility.yul\":10855:10973   */\n      pop\n        /* \"#utility.yul\":10804:10973   */\n      swap3\n      swap2\n      pop\n      pop\n      jump\t// out\n        /* \"#utility.yul\":10978:11273   */\n    tag_139:\n        /* \"#utility.yul\":11054:11058   */\n      0x00\n        /* \"#utility.yul\":11200:11229   */\n      tag_274\n        /* \"#utility.yul\":11225:11228   */\n      dup4\n        /* \"#utility.yul\":11219:11223   */\n      dup4\n        /* \"#utility.yul\":11200:11229   */\n      tag_138\n      jump\t// in\n    tag_274:\n        /* \"#utility.yul\":11192:11229   */\n      swap2\n      pop\n        /* \"#utility.yul\":11262:11265   */\n      dup3\n        /* \"#utility.yul\":11259:11260   */\n      0x02\n        /* \"#utility.yul\":11255:11266   */\n      mul\n        /* \"#utility.yul\":11249:11253   */\n      dup3\n        /* \"#utility.yul\":11246:11267   */\n      or\n        /* \"#utility.yul\":11238:11267   */\n      swap1\n      pop\n        /* \"#utility.yul\":10978:11273   */\n      swap3\n      swap2\n      pop\n      pop\n      jump\t// out\n        /* \"#utility.yul\":11278:12673   */\n    tag_56:\n        /* \"#utility.yul\":11395:11432   */\n      tag_276\n        /* \"#utility.yul\":11428:11431   */\n      dup3\n        /* \"#utility.yul\":11395:11432   */\n      tag_117\n      jump\t// in\n    tag_276:\n        /* \"#utility.yul\":11497:11515   */\n      0xffffffffffffffff\n        /* \"#utility.yul\":11489:11495   */\n      dup2\n        /* \"#utility.yul\":11486:11516   */\n      gt\n        /* \"#utility.yul\":11483:11539   */\n      iszero\n      tag_277\n      jumpi\n        /* \"#utility.yul\":11519:11537   */\n      tag_278\n      tag_108\n      jump\t// in\n    tag_278:\n        /* \"#utility.yul\":11483:11539   */\n    tag_277:\n        /* \"#utility.yul\":11563:11601   */\n      tag_279\n        /* \"#utility.yul\":11595:11599   */\n      dup3\n        /* \"#utility.yul\":11589:11600   */\n      sload\n        /* \"#utility.yul\":11563:11601   */\n      tag_64\n      jump\t// in\n    tag_279:\n        /* \"#utility.yul\":11648:11715   */\n      tag_280\n        /* \"#utility.yul\":11708:11714   */\n      dup3\n        /* \"#utility.yul\":11700:11706   */\n      dup3\n        /* \"#utility.yul\":11694:11698   */\n      dup6\n        /* \"#utility.yul\":11648:11715   */\n      tag_136\n      jump\t// in\n    tag_280:\n        /* \"#utility.yul\":11742:11743   */\n      0x00\n        /* \"#utility.yul\":11766:11770   */\n      0x20\n        /* \"#utility.yul\":11753:11770   */\n      swap1\n      pop\n        /* \"#utility.yul\":11798:11800   */\n      0x1f\n        /* \"#utility.yul\":11790:11796   */\n      dup4\n        /* \"#utility.yul\":11787:11801   */\n      gt\n        /* \"#utility.yul\":11815:11816   */\n      0x01\n        /* \"#utility.yul\":11810:12428   */\n      dup2\n      eq\n      tag_282\n      jumpi\n        /* \"#utility.yul\":12472:12473   */\n      0x00\n        /* \"#utility.yul\":12489:12495   */\n      dup5\n        /* \"#utility.yul\":12486:12563   */\n      iszero\n      tag_283\n      jumpi\n        /* \"#utility.yul\":12538:12547   */\n      dup3\n        /* \"#utility.yul\":12533:12536   */\n      dup8\n        /* \"#utility.yul\":12529:12548   */\n      add\n        /* \"#utility.yul\":12523:12549   */\n      mload\n        /* \"#utility.yul\":12514:12549   */\n      swap1\n      pop\n        /* \"#utility.yul\":12486:12563   */\n    tag_283:\n        /* \"#utility.yul\":12589:12656   */\n      tag_284\n        /* \"#utility.yul\":12649:12655   */\n      dup6\n        /* \"#utility.yul\":12642:12647   */\n      dup3\n        /* \"#utility.yul\":12589:12656   */\n      tag_139\n      jump\t// in\n    tag_284:\n        /* \"#utility.yul\":12583:12587   */\n      dup7\n        /* \"#utility.yul\":12576:12657   */\n      sstore\n        /* \"#utility.yul\":12445:12667   */\n      pop\n        /* \"#utility.yul\":11780:12667   */\n      jump(tag_281)\n        /* \"#utility.yul\":11810:12428   */\n    tag_282:\n        /* \"#utility.yul\":11862:11866   */\n      0x1f\n        /* \"#utility.yul\":11858:11867   */\n      not\n        /* \"#utility.yul\":11850:11856   */\n      dup5\n        /* \"#utility.yul\":11846:11868   */\n      and\n        /* \"#utility.yul\":11896:11933   */\n      tag_285\n        /* \"#utility.yul\":11928:11932   */\n      dup7\n        /* \"#utility.yul\":11896:11933   */\n      tag_124\n      jump\t// in\n    tag_285:\n        /* \"#utility.yul\":11955:11956   */\n      0x00\n        /* \"#utility.yul\":11969:12177   */\n    tag_286:\n        /* \"#utility.yul\":11983:11990   */\n      dup3\n        /* \"#utility.yul\":11980:11981   */\n      dup2\n        /* \"#utility.yul\":11977:11991   */\n      lt\n        /* \"#utility.yul\":11969:12177   */\n      iszero\n      tag_288\n      jumpi\n        /* \"#utility.yul\":12062:12071   */\n      dup5\n        /* \"#utility.yul\":12057:12060   */\n      dup10\n        /* \"#utility.yul\":12053:12072   */\n      add\n        /* \"#utility.yul\":12047:12073   */\n      mload\n        /* \"#utility.yul\":12039:12045   */\n      dup3\n        /* \"#utility.yul\":12032:12074   */\n      sstore\n        /* \"#utility.yul\":12113:12114   */\n      0x01\n        /* \"#utility.yul\":12105:12111   */\n      dup3\n        /* \"#utility.yul\":12101:12115   */\n      add\n        /* \"#utility.yul\":12091:12115   */\n      swap2\n      pop\n        /* \"#utility.yul\":12160:12162   */\n      0x20\n        /* \"#utility.yul\":12149:12158   */\n      dup6\n        /* \"#utility.yul\":12145:12163   */\n      add\n        /* \"#utility.yul\":12132:12163   */\n      swap5\n      pop\n        /* \"#utility.yul\":12006:12010   */\n      0x20\n        /* \"#utility.yul\":12003:12004   */\n      dup2\n        /* \"#utility.yul\":11999:12011   */\n      add\n        /* \"#utility.yul\":11994:12011   */\n      swap1\n      pop\n        /* \"#utility.yul\":11969:12177   */\n      jump(tag_286)\n    tag_288:\n        /* \"#utility.yul\":12205:12211   */\n      dup7\n        /* \"#utility.yul\":12196:12203   */\n      dup4\n        /* \"#utility.yul\":12193:12212   */\n      lt\n        /* \"#utility.yul\":12190:12369   */\n      iszero\n      tag_289\n      jumpi\n        /* \"#utility.yul\":12263:12272   */\n      dup5\n        /* \"#utility.yul\":12258:12261   */\n      dup10\n        /* \"#utility.yul\":12254:12273   */\n      add\n        /* \"#utility.yul\":12248:12274   */\n      mload\n        /* \"#utility.yul\":12306:12354   */\n      tag_290\n        /* \"#utility.yul\":12348:12352   */\n      0x1f\n        /* \"#utility.yul\":12340:12346   */\n      dup10\n        /* \"#utility.yul\":12336:12353   */\n      and\n        /* \"#utility.yul\":12325:12334   */\n      dup3\n        /* \"#utility.yul\":12306:12354   */\n      tag_138\n      jump\t// in\n    tag_290:\n        /* \"#utility.yul\":12298:12304   */\n      dup4\n        /* \"#utility.yul\":12291:12355   */\n      sstore\n        /* \"#utility.yul\":12213:12369   */\n      pop\n        /* \"#utility.yul\":12190:12369   */\n    tag_289:\n        /* \"#utility.yul\":12415:12416   */\n      0x01\n        /* \"#utility.yul\":12411:12412   */\n      0x02\n        /* \"#utility.yul\":12403:12409   */\n      dup9\n        /* \"#utility.yul\":12399:12413   */\n      mul\n        /* \"#utility.yul\":12395:12417   */\n      add\n        /* \"#utility.yul\":12389:12393   */\n      dup9\n        /* \"#utility.yul\":12382:12418   */\n      sstore\n        /* \"#utility.yul\":11817:12428   */\n      pop\n      pop\n      pop\n        /* \"#utility.yul\":11780:12667   */\n    tag_281:\n      pop\n        /* \"#utility.yul\":11370:12673   */\n      pop\n      pop\n      pop\n        /* \"#utility.yul\":11278:12673   */\n      pop\n      pop\n      jump\t// out\n        /* \"#utility.yul\":12679:12852   */\n    tag_140:\n        /* \"#utility.yul\":12819:12844   */\n      0x53747564656e74206e6f7420726567697374657265642e000000000000000000\n        /* \"#utility.yul\":12815:12816   */\n      0x00\n        /* \"#utility.yul\":12807:12813   */\n      dup3\n        /* \"#utility.yul\":12803:12817   */\n      add\n        /* \"#utility.yul\":12796:12845   */\n      mstore\n        /* \"#utility.yul\":12679:12852   */\n      pop\n      jump\t// out\n        /* \"#utility.yul\":12858:13224   */\n    tag_141:\n        /* \"#utility.yul\":13000:13003   */\n      0x00\n        /* \"#utility.yul\":13021:13088   */\n      tag_293\n        /* \"#utility.yul\":13085:13087   */\n      0x17\n        /* \"#utility.yul\":13080:13083   */\n      dup4\n        /* \"#utility.yul\":13021:13088   */\n      tag_118\n      jump\t// in\n    tag_293:\n        /* \"#utility.yul\":13014:13088   */\n      swap2\n      pop\n        /* \"#utility.yul\":13097:13190   */\n      tag_294\n        /* \"#utility.yul\":13186:13189   */\n      dup3\n        /* \"#utility.yul\":13097:13190   */\n      tag_140\n      jump\t// in\n    tag_294:\n        /* \"#utility.yul\":13215:13217   */\n      0x20\n        /* \"#utility.yul\":13210:13213   */\n      dup3\n        /* \"#utility.yul\":13206:13218   */\n      add\n        /* \"#utility.yul\":13199:13218   */\n      swap1\n      pop\n        /* \"#utility.yul\":12858:13224   */\n      swap2\n      swap1\n      pop\n      jump\t// out\n        /* \"#utility.yul\":13230:13649   */\n    tag_77:\n        /* \"#utility.yul\":13396:13400   */\n      0x00\n        /* \"#utility.yul\":13434:13436   */\n      0x20\n        /* \"#utility.yul\":13423:13432   */\n      dup3\n        /* \"#utility.yul\":13419:13437   */\n      add\n        /* \"#utility.yul\":13411:13437   */\n      swap1\n      pop\n        /* \"#utility.yul\":13483:13492   */\n      dup2\n        /* \"#utility.yul\":13477:13481   */\n      dup2\n        /* \"#utility.yul\":13473:13493   */\n      sub\n        /* \"#utility.yul\":13469:13470   */\n      0x00\n        /* \"#utility.yul\":13458:13467   */\n      dup4\n        /* \"#utility.yul\":13454:13471   */\n      add\n        /* \"#utility.yul\":13447:13494   */\n      mstore\n        /* \"#utility.yul\":13511:13642   */\n      tag_296\n        /* \"#utility.yul\":13637:13641   */\n      dup2\n        /* \"#utility.yul\":13511:13642   */\n      tag_141\n      jump\t// in\n    tag_296:\n        /* \"#utility.yul\":13503:13642   */\n      swap1\n      pop\n        /* \"#utility.yul\":13230:13649   */\n      swap2\n      swap1\n      pop\n      jump\t// out\n        /* \"#utility.yul\":13655:13821   */\n    tag_142:\n        /* \"#utility.yul\":13795:13813   */\n      0x4d656e746f72206e6f7420666f756e6400000000000000000000000000000000\n        /* \"#utility.yul\":13791:13792   */\n      0x00\n        /* \"#utility.yul\":13783:13789   */\n      dup3\n        /* \"#utility.yul\":13779:13793   */\n      add\n        /* \"#utility.yul\":13772:13814   */\n      mstore\n        /* \"#utility.yul\":13655:13821   */\n      pop\n      jump\t// out\n        /* \"#utility.yul\":13827:14193   */\n    tag_143:\n        /* \"#utility.yul\":13969:13972   */\n      0x00\n        /* \"#utility.yul\":13990:14057   */\n      tag_299\n        /* \"#utility.yul\":14054:14056   */\n      0x10\n        /* \"#utility.yul\":14049:14052   */\n      dup4\n        /* \"#utility.yul\":13990:14057   */\n      tag_118\n      jump\t// in\n    tag_299:\n        /* \"#utility.yul\":13983:14057   */\n      swap2\n      pop\n        /* \"#utility.yul\":14066:14159   */\n      tag_300\n        /* \"#utility.yul\":14155:14158   */\n      dup3\n        /* \"#utility.yul\":14066:14159   */\n      tag_142\n      jump\t// in\n    tag_300:\n        /* \"#utility.yul\":14184:14186   */\n      0x20\n        /* \"#utility.yul\":14179:14182   */\n      dup3\n        /* \"#utility.yul\":14175:14187   */\n      add\n        /* \"#utility.yul\":14168:14187   */\n      swap1\n      pop\n        /* \"#utility.yul\":13827:14193   */\n      swap2\n      swap1\n      pop\n      jump\t// out\n        /* \"#utility.yul\":14199:14618   */\n    tag_80:\n        /* \"#utility.yul\":14365:14369   */\n      0x00\n        /* \"#utility.yul\":14403:14405   */\n      0x20\n        /* \"#utility.yul\":14392:14401   */\n      dup3\n        /* \"#utility.yul\":14388:14406   */\n      add\n        /* \"#utility.yul\":14380:14406   */\n      swap1\n      pop\n        /* \"#utility.yul\":14452:14461   */\n      dup2\n        /* \"#utility.yul\":14446:14450   */\n      dup2\n        /* \"#utility.yul\":14442:14462   */\n      sub\n        /* \"#utility.yul\":14438:14439   */\n      0x00\n        /* \"#utility.yul\":14427:14436   */\n      dup4\n        /* \"#utility.yul\":14423:14440   */\n      add\n        /* \"#utility.yul\":14416:14463   */\n      mstore\n        /* \"#utility.yul\":14480:14611   */\n      tag_302\n        /* \"#utility.yul\":14606:14610   */\n      dup2\n        /* \"#utility.yul\":14480:14611   */\n      tag_143\n      jump\t// in\n    tag_302:\n        /* \"#utility.yul\":14472:14611   */\n      swap1\n      pop\n        /* \"#utility.yul\":14199:14618   */\n      swap2\n      swap1\n      pop\n      jump\t// out\n        /* \"#utility.yul\":14624:14771   */\n    tag_144:\n        /* \"#utility.yul\":14725:14736   */\n      0x00\n        /* \"#utility.yul\":14762:14765   */\n      dup2\n        /* \"#utility.yul\":14747:14765   */\n      swap1\n      pop\n        /* \"#utility.yul\":14624:14771   */\n      swap3\n      swap2\n      pop\n      pop\n      jump\t// out\n        /* \"#utility.yul\":14777:14921   */\n    tag_145:\n        /* \"#utility.yul\":14829:14833   */\n      0x00\n        /* \"#utility.yul\":14852:14855   */\n      dup2\n        /* \"#utility.yul\":14844:14855   */\n      swap1\n      pop\n        /* \"#utility.yul\":14875:14878   */\n      dup2\n        /* \"#utility.yul\":14872:14873   */\n      0x00\n        /* \"#utility.yul\":14865:14879   */\n      mstore\n        /* \"#utility.yul\":14909:14913   */\n      0x20\n        /* \"#utility.yul\":14906:14907   */\n      0x00\n        /* \"#utility.yul\":14896:14914   */\n      keccak256\n        /* \"#utility.yul\":14888:14914   */\n      swap1\n      pop\n        /* \"#utility.yul\":14777:14921   */\n      swap2\n      swap1\n      pop\n      jump\t// out\n        /* \"#utility.yul\":14949:15827   */\n    tag_146:\n        /* \"#utility.yul\":15054:15057   */\n      0x00\n        /* \"#utility.yul\":15091:15096   */\n      dup2\n        /* \"#utility.yul\":15085:15097   */\n      sload\n        /* \"#utility.yul\":15120:15156   */\n      tag_306\n        /* \"#utility.yul\":15146:15155   */\n      dup2\n        /* \"#utility.yul\":15120:15156   */\n      tag_64\n      jump\t// in\n    tag_306:\n        /* \"#utility.yul\":15172:15260   */\n      tag_307\n        /* \"#utility.yul\":15253:15259   */\n      dup2\n        /* \"#utility.yul\":15248:15251   */\n      dup7\n        /* \"#utility.yul\":15172:15260   */\n      tag_144\n      jump\t// in\n    tag_307:\n        /* \"#utility.yul\":15165:15260   */\n      swap5\n      pop\n        /* \"#utility.yul\":15291:15292   */\n      0x01\n        /* \"#utility.yul\":15280:15289   */\n      dup3\n        /* \"#utility.yul\":15276:15293   */\n      and\n        /* \"#utility.yul\":15307:15308   */\n      0x00\n        /* \"#utility.yul\":15302:15468   */\n      dup2\n      eq\n      tag_309\n      jumpi\n        /* \"#utility.yul\":15482:15483   */\n      0x01\n        /* \"#utility.yul\":15477:15821   */\n      dup2\n      eq\n      tag_310\n      jumpi\n        /* \"#utility.yul\":15269:15821   */\n      jump(tag_308)\n        /* \"#utility.yul\":15302:15468   */\n    tag_309:\n        /* \"#utility.yul\":15386:15390   */\n      0xff\n        /* \"#utility.yul\":15382:15391   */\n      not\n        /* \"#utility.yul\":15371:15380   */\n      dup4\n        /* \"#utility.yul\":15367:15392   */\n      and\n        /* \"#utility.yul\":15362:15365   */\n      dup7\n        /* \"#utility.yul\":15355:15393   */\n      mstore\n        /* \"#utility.yul\":15448:15454   */\n      dup2\n        /* \"#utility.yul\":15441:15455   */\n      iszero\n        /* \"#utility.yul\":15434:15456   */\n      iszero\n        /* \"#utility.yul\":15426:15432   */\n      dup3\n        /* \"#utility.yul\":15422:15457   */\n      mul\n        /* \"#utility.yul\":15417:15420   */\n      dup7\n        /* \"#utility.yul\":15413:15458   */\n      add\n        /* \"#utility.yul\":15406:15458   */\n      swap4\n      pop\n        /* \"#utility.yul\":15302:15468   */\n      jump(tag_308)\n        /* \"#utility.yul\":15477:15821   */\n    tag_310:\n        /* \"#utility.yul\":15544:15585   */\n      tag_311\n        /* \"#utility.yul\":15579:15584   */\n      dup6\n        /* \"#utility.yul\":15544:15585   */\n      tag_145\n      jump\t// in\n    tag_311:\n        /* \"#utility.yul\":15607:15608   */\n      0x00\n        /* \"#utility.yul\":15621:15775   */\n    tag_312:\n        /* \"#utility.yul\":15635:15641   */\n      dup4\n        /* \"#utility.yul\":15632:15633   */\n      dup2\n        /* \"#utility.yul\":15629:15642   */\n      lt\n        /* \"#utility.yul\":15621:15775   */\n      iszero\n      tag_314\n      jumpi\n        /* \"#utility.yul\":15709:15716   */\n      dup2\n        /* \"#utility.yul\":15703:15717   */\n      sload\n        /* \"#utility.yul\":15699:15700   */\n      dup2\n        /* \"#utility.yul\":15694:15697   */\n      dup10\n        /* \"#utility.yul\":15690:15701   */\n      add\n        /* \"#utility.yul\":15683:15718   */\n      mstore\n        /* \"#utility.yul\":15759:15760   */\n      0x01\n        /* \"#utility.yul\":15750:15757   */\n      dup3\n        /* \"#utility.yul\":15746:15761   */\n      add\n        /* \"#utility.yul\":15735:15761   */\n      swap2\n      pop\n        /* \"#utility.yul\":15657:15661   */\n      0x20\n        /* \"#utility.yul\":15654:15655   */\n      dup2\n        /* \"#utility.yul\":15650:15662   */\n      add\n        /* \"#utility.yul\":15645:15662   */\n      swap1\n      pop\n        /* \"#utility.yul\":15621:15775   */\n      jump(tag_312)\n    tag_314:\n        /* \"#utility.yul\":15804:15810   */\n      dup4\n        /* \"#utility.yul\":15799:15802   */\n      dup9\n        /* \"#utility.yul\":15795:15811   */\n      add\n        /* \"#utility.yul\":15788:15811   */\n      swap6\n      pop\n        /* \"#utility.yul\":15484:15821   */\n      pop\n      pop\n        /* \"#utility.yul\":15269:15821   */\n    tag_308:\n      pop\n        /* \"#utility.yul\":15058:15827   */\n      pop\n      pop\n        /* \"#utility.yul\":14949:15827   */\n      swap3\n      swap2\n      pop\n      pop\n      jump\t// out\n        /* \"#utility.yul\":15833:16106   */\n    tag_82:\n        /* \"#utility.yul\":15964:15967   */\n      0x00\n        /* \"#utility.yul\":15986:16080   */\n      tag_316\n        /* \"#utility.yul\":16076:16079   */\n      dup3\n        /* \"#utility.yul\":16067:16073   */\n      dup5\n        /* \"#utility.yul\":15986:16080   */\n      tag_146\n      jump\t// in\n    tag_316:\n        /* \"#utility.yul\":15979:16080   */\n      swap2\n      pop\n        /* \"#utility.yul\":16097:16100   */\n      dup2\n        /* \"#utility.yul\":16090:16100   */\n      swap1\n      pop\n        /* \"#utility.yul\":15833:16106   */\n      swap3\n      swap2\n      pop\n      pop\n      jump\t// out\n        /* \"#utility.yul\":16112:16334   */\n    tag_147:\n        /* \"#utility.yul\":16252:16286   */\n      0x496e74657265737420616e642065787065727469736520646f206e6f74206d61\n        /* \"#utility.yul\":16248:16249   */\n      0x00\n        /* \"#utility.yul\":16240:16246   */\n      dup3\n        /* \"#utility.yul\":16236:16250   */\n      add\n        /* \"#utility.yul\":16229:16287   */\n      mstore\n        /* \"#utility.yul\":16321:16326   */\n      0x7463680000000000000000000000000000000000000000000000000000000000\n        /* \"#utility.yul\":16316:16318   */\n      0x20\n        /* \"#utility.yul\":16308:16314   */\n      dup3\n        /* \"#utility.yul\":16304:16319   */\n      add\n        /* \"#utility.yul\":16297:16327   */\n      mstore\n        /* \"#utility.yul\":16112:16334   */\n      pop\n      jump\t// out\n        /* \"#utility.yul\":16340:16706   */\n    tag_148:\n        /* \"#utility.yul\":16482:16485   */\n      0x00\n        /* \"#utility.yul\":16503:16570   */\n      tag_319\n        /* \"#utility.yul\":16567:16569   */\n      0x23\n        /* \"#utility.yul\":16562:16565   */\n      dup4\n        /* \"#utility.yul\":16503:16570   */\n      tag_118\n      jump\t// in\n    tag_319:\n        /* \"#utility.yul\":16496:16570   */\n      swap2\n      pop\n        /* \"#utility.yul\":16579:16672   */\n      tag_320\n        /* \"#utility.yul\":16668:16671   */\n      dup3\n        /* \"#utility.yul\":16579:16672   */\n      tag_147\n      jump\t// in\n    tag_320:\n        /* \"#utility.yul\":16697:16699   */\n      0x40\n        /* \"#utility.yul\":16692:16695   */\n      dup3\n        /* \"#utility.yul\":16688:16700   */\n      add\n        /* \"#utility.yul\":16681:16700   */\n      swap1\n      pop\n        /* \"#utility.yul\":16340:16706   */\n      swap2\n      swap1\n      pop\n      jump\t// out\n        /* \"#utility.yul\":16712:17131   */\n    tag_86:\n        /* \"#utility.yul\":16878:16882   */\n      0x00\n        /* \"#utility.yul\":16916:16918   */\n      0x20\n        /* \"#utility.yul\":16905:16914   */\n      dup3\n        /* \"#utility.yul\":16901:16919   */\n      add\n        /* \"#utility.yul\":16893:16919   */\n      swap1\n      pop\n        /* \"#utility.yul\":16965:16974   */\n      dup2\n        /* \"#utility.yul\":16959:16963   */\n      dup2\n        /* \"#utility.yul\":16955:16975   */\n      sub\n        /* \"#utility.yul\":16951:16952   */\n      0x00\n        /* \"#utility.yul\":16940:16949   */\n      dup4\n        /* \"#utility.yul\":16936:16953   */\n      add\n        /* \"#utility.yul\":16929:16976   */\n      mstore\n        /* \"#utility.yul\":16993:17124   */\n      tag_322\n        /* \"#utility.yul\":17119:17123   */\n      dup2\n        /* \"#utility.yul\":16993:17124   */\n      tag_148\n      jump\t// in\n    tag_322:\n        /* \"#utility.yul\":16985:17124   */\n      swap1\n      pop\n        /* \"#utility.yul\":16712:17131   */\n      swap2\n      swap1\n      pop\n      jump\t// out\n\n    auxdata: 0xa2646970667358221220698babcc5b343c182e42c30c7a11c964f9f8921902ee4e72b2f28f8d77b8fda064736f6c63430008160033\n}\n",
				"bytecode": {
					"linkReferences": {},
					"object": "608060405234801561000f575f80fd5b506116198061001d5f395ff3fe608060405234801561000f575f80fd5b5060043610610091575f3560e01c8063a6c807a911610064578063a6c807a91461010b578063b2dd5c071461013d578063c4c621ed1461016d578063cd01ab1614610189578063eed4ea8f146101bb57610091565b8063063c67c21461009557806322366844146100b557806380b1ecec146100d35780639fc9d7c1146100ef575b5f80fd5b61009d6101ed565b6040516100ac93929190610d76565b60405180910390f35b6100bd610319565b6040516100ca9190610dab565b60405180910390f35b6100ed60048036038101906100e89190610f11565b610369565b005b61010960048036038101906101049190610f11565b6104f1565b005b61012560048036038101906101209190610fb1565b61067a565b60405161013493929190611056565b60405180910390f35b61015760048036038101906101529190610fb1565b6107cb565b6040516101649190610dab565b60405180910390f35b61018760048036038101906101829190610fb1565b6107e8565b005b6101a3600480360381019061019e9190610fb1565b610b5c565b6040516101b293929190610d76565b60405180910390f35b6101d560048036038101906101d09190610fb1565b610bcd565b6040516101e493929190611056565b60405180910390f35b5f805f8060035f3373ffffffffffffffffffffffffffffffffffffffff1673ffffffffffffffffffffffffffffffffffffffff1681526020019081526020015f206040518060600160405290815f82015f9054906101000a900473ffffffffffffffffffffffffffffffffffffffff1673ffffffffffffffffffffffffffffffffffffffff1673ffffffffffffffffffffffffffffffffffffffff168152602001600182015f9054906101000a900473ffffffffffffffffffffffffffffffffffffffff1673ffffffffffffffffffffffffffffffffffffffff1673ffffffffffffffffffffffffffffffffffffffff1681526020016001820160149054906101000a900460ff1615151515815250509050805f01518160200151826040015193509350935050909192565b5f60025f3373ffffffffffffffffffffffffffffffffffffffff1673ffffffffffffffffffffffffffffffffffffffff1681526020019081526020015f205f9054906101000a900460ff16905090565b60025f3373ffffffffffffffffffffffffffffffffffffffff1673ffffffffffffffffffffffffffffffffffffffff1681526020019081526020015f205f9054906101000a900460ff16156103f3576040517f08c379a00000000000000000000000000000000000000000000000000000000081526004016103ea906110e3565b60405180910390fd5b5f805f3373ffffffffffffffffffffffffffffffffffffffff1673ffffffffffffffffffffffffffffffffffffffff1681526020019081526020015f20905033815f015f6101000a81548173ffffffffffffffffffffffffffffffffffffffff021916908373ffffffffffffffffffffffffffffffffffffffff160217905550828160010190816104849190611304565b50818160020190816104969190611304565b50600160025f3373ffffffffffffffffffffffffffffffffffffffff1673ffffffffffffffffffffffffffffffffffffffff1681526020019081526020015f205f6101000a81548160ff021916908315150217905550505050565b60025f3373ffffffffffffffffffffffffffffffffffffffff1673ffffffffffffffffffffffffffffffffffffffff1681526020019081526020015f205f9054906101000a900460ff161561057b576040517f08c379a0000000000000000000000000000000000000000000000000000000008152600401610572906110e3565b60405180910390fd5b5f60015f3373ffffffffffffffffffffffffffffffffffffffff1673ffffffffffffffffffffffffffffffffffffffff1681526020019081526020015f20905033815f015f6101000a81548173ffffffffffffffffffffffffffffffffffffffff021916908373ffffffffffffffffffffffffffffffffffffffff1602179055508281600101908161060d9190611304565b508181600201908161061f9190611304565b50600160025f3373ffffffffffffffffffffffffffffffffffffffff1673ffffffffffffffffffffffffffffffffffffffff1681526020019081526020015f205f6101000a81548160ff021916908315150217905550505050565b6001602052805f5260405f205f91509050805f015f9054906101000a900473ffffffffffffffffffffffffffffffffffffffff16908060010180546106be9061112e565b80601f01602080910402602001604051908101604052809291908181526020018280546106ea9061112e565b80156107355780601f1061070c57610100808354040283529160200191610735565b820191905f5260205f20905b81548152906001019060200180831161071857829003601f168201915b50505050509080600201805461074a9061112e565b80601f01602080910402602001604051908101604052809291908181526020018280546107769061112e565b80156107c15780601f10610798576101008083540402835291602001916107c1565b820191905f5260205f20905b8154815290600101906020018083116107a457829003601f168201915b5050505050905083565b6002602052805f5260405f205f915054906101000a900460ff1681565b60025f3373ffffffffffffffffffffffffffffffffffffffff1673ffffffffffffffffffffffffffffffffffffffff1681526020019081526020015f205f9054906101000a900460ff16610871576040517f08c379a00000000000000000000000000000000000000000000000000000000081526004016108689061141d565b60405180910390fd5b5f73ffffffffffffffffffffffffffffffffffffffff165f808373ffffffffffffffffffffffffffffffffffffffff1673ffffffffffffffffffffffffffffffffffffffff1681526020019081526020015f205f015f9054906101000a900473ffffffffffffffffffffffffffffffffffffffff1673ffffffffffffffffffffffffffffffffffffffff160361093c576040517f08c379a000000000000000000000000000000000000000000000000000000000815260040161093390611485565b60405180910390fd5b5f808273ffffffffffffffffffffffffffffffffffffffff1673ffffffffffffffffffffffffffffffffffffffff1681526020019081526020015f20600201604051610988919061153f565b604051809103902060015f3373ffffffffffffffffffffffffffffffffffffffff1673ffffffffffffffffffffffffffffffffffffffff1681526020019081526020015f206002016040516109dd919061153f565b604051809103902014610a25576040517f08c379a0000000000000000000000000000000000000000000000000000000008152600401610a1c906115c5565b60405180910390fd5b60405180606001604052808273ffffffffffffffffffffffffffffffffffffffff1681526020013373ffffffffffffffffffffffffffffffffffffffff1681526020016001151581525060035f3373ffffffffffffffffffffffffffffffffffffffff1673ffffffffffffffffffffffffffffffffffffffff1681526020019081526020015f205f820151815f015f6101000a81548173ffffffffffffffffffffffffffffffffffffffff021916908373ffffffffffffffffffffffffffffffffffffffff1602179055506020820151816001015f6101000a81548173ffffffffffffffffffffffffffffffffffffffff021916908373ffffffffffffffffffffffffffffffffffffffff16021790555060408201518160010160146101000a81548160ff02191690831515021790555090505050565b6003602052805f5260405f205f91509050805f015f9054906101000a900473ffffffffffffffffffffffffffffffffffffffff1690806001015f9054906101000a900473ffffffffffffffffffffffffffffffffffffffff16908060010160149054906101000a900460ff16905083565b5f602052805f5260405f205f91509050805f015f9054906101000a900473ffffffffffffffffffffffffffffffffffffffff1690806001018054610c109061112e565b80601f0160208091040260200160405190810160405280929190818152602001828054610c3c9061112e565b8015610c875780601f10610c5e57610100808354040283529160200191610c87565b820191905f5260205f20905b815481529060010190602001808311610c6a57829003601f168201915b505050505090806002018054610c9c9061112e565b80601f0160208091040260200160405190810160405280929190818152602001828054610cc89061112e565b8015610d135780601f10610cea57610100808354040283529160200191610d13565b820191905f5260205f20905b815481529060010190602001808311610cf657829003601f168201915b5050505050905083565b5f73ffffffffffffffffffffffffffffffffffffffff82169050919050565b5f610d4682610d1d565b9050919050565b610d5681610d3c565b82525050565b5f8115159050919050565b610d7081610d5c565b82525050565b5f606082019050610d895f830186610d4d565b610d966020830185610d4d565b610da36040830184610d67565b949350505050565b5f602082019050610dbe5f830184610d67565b92915050565b5f604051905090565b5f80fd5b5f80fd5b5f80fd5b5f80fd5b5f601f19601f8301169050919050565b7f4e487b71000000000000000000000000000000000000000000000000000000005f52604160045260245ffd5b610e2382610ddd565b810181811067ffffffffffffffff82111715610e4257610e41610ded565b5b80604052505050565b5f610e54610dc4565b9050610e608282610e1a565b919050565b5f67ffffffffffffffff821115610e7f57610e7e610ded565b5b610e8882610ddd565b9050602081019050919050565b828183375f83830152505050565b5f610eb5610eb084610e65565b610e4b565b905082815260208101848484011115610ed157610ed0610dd9565b5b610edc848285610e95565b509392505050565b5f82601f830112610ef857610ef7610dd5565b5b8135610f08848260208601610ea3565b91505092915050565b5f8060408385031215610f2757610f26610dcd565b5b5f83013567ffffffffffffffff811115610f4457610f43610dd1565b5b610f5085828601610ee4565b925050602083013567ffffffffffffffff811115610f7157610f70610dd1565b5b610f7d85828601610ee4565b9150509250929050565b610f9081610d3c565b8114610f9a575f80fd5b50565b5f81359050610fab81610f87565b92915050565b5f60208284031215610fc657610fc5610dcd565b5b5f610fd384828501610f9d565b91505092915050565b5f81519050919050565b5f82825260208201905092915050565b5f5b83811015611013578082015181840152602081019050610ff8565b5f8484015250505050565b5f61102882610fdc565b6110328185610fe6565b9350611042818560208601610ff6565b61104b81610ddd565b840191505092915050565b5f6060820190506110695f830186610d4d565b818103602083015261107b818561101e565b9050818103604083015261108f818461101e565b9050949350505050565b7f5573657220616c726561647920726567697374657265640000000000000000005f82015250565b5f6110cd601783610fe6565b91506110d882611099565b602082019050919050565b5f6020820190508181035f8301526110fa816110c1565b9050919050565b7f4e487b71000000000000000000000000000000000000000000000000000000005f52602260045260245ffd5b5f600282049050600182168061114557607f821691505b60208210810361115857611157611101565b5b50919050565b5f819050815f5260205f209050919050565b5f6020601f8301049050919050565b5f82821b905092915050565b5f600883026111ba7fffffffffffffffffffffffffffffffffffffffffffffffffffffffffffffffff8261117f565b6111c4868361117f565b95508019841693508086168417925050509392505050565b5f819050919050565b5f819050919050565b5f6112086112036111fe846111dc565b6111e5565b6111dc565b9050919050565b5f819050919050565b611221836111ee565b61123561122d8261120f565b84845461118b565b825550505050565b5f90565b61124961123d565b611254818484611218565b505050565b5b818110156112775761126c5f82611241565b60018101905061125a565b5050565b601f8211156112bc5761128d8161115e565b61129684611170565b810160208510156112a5578190505b6112b96112b185611170565b830182611259565b50505b505050565b5f82821c905092915050565b5f6112dc5f19846008026112c1565b1980831691505092915050565b5f6112f483836112cd565b9150826002028217905092915050565b61130d82610fdc565b67ffffffffffffffff81111561132657611325610ded565b5b611330825461112e565b61133b82828561127b565b5f60209050601f83116001811461136c575f841561135a578287015190505b61136485826112e9565b8655506113cb565b601f19841661137a8661115e565b5f5b828110156113a15784890151825560018201915060208501945060208101905061137c565b868310156113be57848901516113ba601f8916826112cd565b8355505b6001600288020188555050505b505050505050565b7f53747564656e74206e6f7420726567697374657265642e0000000000000000005f82015250565b5f611407601783610fe6565b9150611412826113d3565b602082019050919050565b5f6020820190508181035f830152611434816113fb565b9050919050565b7f4d656e746f72206e6f7420666f756e64000000000000000000000000000000005f82015250565b5f61146f601083610fe6565b915061147a8261143b565b602082019050919050565b5f6020820190508181035f83015261149c81611463565b9050919050565b5f81905092915050565b5f819050815f5260205f209050919050565b5f81546114cb8161112e565b6114d581866114a3565b9450600182165f81146114ef576001811461150457611536565b60ff1983168652811515820286019350611536565b61150d856114ad565b5f5b8381101561152e5781548189015260018201915060208101905061150f565b838801955050505b50505092915050565b5f61154a82846114bf565b915081905092915050565b7f496e74657265737420616e642065787065727469736520646f206e6f74206d615f8201527f7463680000000000000000000000000000000000000000000000000000000000602082015250565b5f6115af602383610fe6565b91506115ba82611555565b604082019050919050565b5f6020820190508181035f8301526115dc816115a3565b905091905056fea2646970667358221220698babcc5b343c182e42c30c7a11c964f9f8921902ee4e72b2f28f8d77b8fda064736f6c63430008160033",
					"opcodes": "PUSH1 0x80 PUSH1 0x40 MSTORE CALLVALUE DUP1 ISZERO PUSH2 0xF JUMPI PUSH0 DUP1 REVERT JUMPDEST POP PUSH2 0x1619 DUP1 PUSH2 0x1D PUSH0 CODECOPY PUSH0 RETURN INVALID PUSH1 0x80 PUSH1 0x40 MSTORE CALLVALUE DUP1 ISZERO PUSH2 0xF JUMPI PUSH0 DUP1 REVERT JUMPDEST POP PUSH1 0x4 CALLDATASIZE LT PUSH2 0x91 JUMPI PUSH0 CALLDATALOAD PUSH1 0xE0 SHR DUP1 PUSH4 0xA6C807A9 GT PUSH2 0x64 JUMPI DUP1 PUSH4 0xA6C807A9 EQ PUSH2 0x10B JUMPI DUP1 PUSH4 0xB2DD5C07 EQ PUSH2 0x13D JUMPI DUP1 PUSH4 0xC4C621ED EQ PUSH2 0x16D JUMPI DUP1 PUSH4 0xCD01AB16 EQ PUSH2 0x189 JUMPI DUP1 PUSH4 0xEED4EA8F EQ PUSH2 0x1BB JUMPI PUSH2 0x91 JUMP JUMPDEST DUP1 PUSH4 0x63C67C2 EQ PUSH2 0x95 JUMPI DUP1 PUSH4 0x22366844 EQ PUSH2 0xB5 JUMPI DUP1 PUSH4 0x80B1ECEC EQ PUSH2 0xD3 JUMPI DUP1 PUSH4 0x9FC9D7C1 EQ PUSH2 0xEF JUMPI JUMPDEST PUSH0 DUP1 REVERT JUMPDEST PUSH2 0x9D PUSH2 0x1ED JUMP JUMPDEST PUSH1 0x40 MLOAD PUSH2 0xAC SWAP4 SWAP3 SWAP2 SWAP1 PUSH2 0xD76 JUMP JUMPDEST PUSH1 0x40 MLOAD DUP1 SWAP2 SUB SWAP1 RETURN JUMPDEST PUSH2 0xBD PUSH2 0x319 JUMP JUMPDEST PUSH1 0x40 MLOAD PUSH2 0xCA SWAP2 SWAP1 PUSH2 0xDAB JUMP JUMPDEST PUSH1 0x40 MLOAD DUP1 SWAP2 SUB SWAP1 RETURN JUMPDEST PUSH2 0xED PUSH1 0x4 DUP1 CALLDATASIZE SUB DUP2 ADD SWAP1 PUSH2 0xE8 SWAP2 SWAP1 PUSH2 0xF11 JUMP JUMPDEST PUSH2 0x369 JUMP JUMPDEST STOP JUMPDEST PUSH2 0x109 PUSH1 0x4 DUP1 CALLDATASIZE SUB DUP2 ADD SWAP1 PUSH2 0x104 SWAP2 SWAP1 PUSH2 0xF11 JUMP JUMPDEST PUSH2 0x4F1 JUMP JUMPDEST STOP JUMPDEST PUSH2 0x125 PUSH1 0x4 DUP1 CALLDATASIZE SUB DUP2 ADD SWAP1 PUSH2 0x120 SWAP2 SWAP1 PUSH2 0xFB1 JUMP JUMPDEST PUSH2 0x67A JUMP JUMPDEST PUSH1 0x40 MLOAD PUSH2 0x134 SWAP4 SWAP3 SWAP2 SWAP1 PUSH2 0x1056 JUMP JUMPDEST PUSH1 0x40 MLOAD DUP1 SWAP2 SUB SWAP1 RETURN JUMPDEST PUSH2 0x157 PUSH1 0x4 DUP1 CALLDATASIZE SUB DUP2 ADD SWAP1 PUSH2 0x152 SWAP2 SWAP1 PUSH2 0xFB1 JUMP JUMPDEST PUSH2 0x7CB JUMP JUMPDEST PUSH1 0x40 MLOAD PUSH2 0x164 SWAP2 SWAP1 PUSH2 0xDAB JUMP JUMPDEST PUSH1 0x40 MLOAD DUP1 SWAP2 SUB SWAP1 RETURN JUMPDEST PUSH2 0x187 PUSH1 0x4 DUP1 CALLDATASIZE SUB DUP2 ADD SWAP1 PUSH2 0x182 SWAP2 SWAP1 PUSH2 0xFB1 JUMP JUMPDEST PUSH2 0x7E8 JUMP JUMPDEST STOP JUMPDEST PUSH2 0x1A3 PUSH1 0x4 DUP1 CALLDATASIZE SUB DUP2 ADD SWAP1 PUSH2 0x19E SWAP2 SWAP1 PUSH2 0xFB1 JUMP JUMPDEST PUSH2 0xB5C JUMP JUMPDEST PUSH1 0x40 MLOAD PUSH2 0x1B2 SWAP4 SWAP3 SWAP2 SWAP1 PUSH2 0xD76 JUMP JUMPDEST PUSH1 0x40 MLOAD DUP1 SWAP2 SUB SWAP1 RETURN JUMPDEST PUSH2 0x1D5 PUSH1 0x4 DUP1 CALLDATASIZE SUB DUP2 ADD SWAP1 PUSH2 0x1D0 SWAP2 SWAP1 PUSH2 0xFB1 JUMP JUMPDEST PUSH2 0xBCD JUMP JUMPDEST PUSH1 0x40 MLOAD PUSH2 0x1E4 SWAP4 SWAP3 SWAP2 SWAP1 PUSH2 0x1056 JUMP JUMPDEST PUSH1 0x40 MLOAD DUP1 SWAP2 SUB SWAP1 RETURN JUMPDEST PUSH0 DUP1 PUSH0 DUP1 PUSH1 0x3 PUSH0 CALLER PUSH20 0xFFFFFFFFFFFFFFFFFFFFFFFFFFFFFFFFFFFFFFFF AND PUSH20 0xFFFFFFFFFFFFFFFFFFFFFFFFFFFFFFFFFFFFFFFF AND DUP2 MSTORE PUSH1 0x20 ADD SWAP1 DUP2 MSTORE PUSH1 0x20 ADD PUSH0 KECCAK256 PUSH1 0x40 MLOAD DUP1 PUSH1 0x60 ADD PUSH1 0x40 MSTORE SWAP1 DUP2 PUSH0 DUP3 ADD PUSH0 SWAP1 SLOAD SWAP1 PUSH2 0x100 EXP SWAP1 DIV PUSH20 0xFFFFFFFFFFFFFFFFFFFFFFFFFFFFFFFFFFFFFFFF AND PUSH20 0xFFFFFFFFFFFFFFFFFFFFFFFFFFFFFFFFFFFFFFFF AND PUSH20 0xFFFFFFFFFFFFFFFFFFFFFFFFFFFFFFFFFFFFFFFF AND DUP2 MSTORE PUSH1 0x20 ADD PUSH1 0x1 DUP3 ADD PUSH0 SWAP1 SLOAD SWAP1 PUSH2 0x100 EXP SWAP1 DIV PUSH20 0xFFFFFFFFFFFFFFFFFFFFFFFFFFFFFFFFFFFFFFFF AND PUSH20 0xFFFFFFFFFFFFFFFFFFFFFFFFFFFFFFFFFFFFFFFF AND PUSH20 0xFFFFFFFFFFFFFFFFFFFFFFFFFFFFFFFFFFFFFFFF AND DUP2 MSTORE PUSH1 0x20 ADD PUSH1 0x1 DUP3 ADD PUSH1 0x14 SWAP1 SLOAD SWAP1 PUSH2 0x100 EXP SWAP1 DIV PUSH1 0xFF AND ISZERO ISZERO ISZERO ISZERO DUP2 MSTORE POP POP SWAP1 POP DUP1 PUSH0 ADD MLOAD DUP2 PUSH1 0x20 ADD MLOAD DUP3 PUSH1 0x40 ADD MLOAD SWAP4 POP SWAP4 POP SWAP4 POP POP SWAP1 SWAP2 SWAP3 JUMP JUMPDEST PUSH0 PUSH1 0x2 PUSH0 CALLER PUSH20 0xFFFFFFFFFFFFFFFFFFFFFFFFFFFFFFFFFFFFFFFF AND PUSH20 0xFFFFFFFFFFFFFFFFFFFFFFFFFFFFFFFFFFFFFFFF AND DUP2 MSTORE PUSH1 0x20 ADD SWAP1 DUP2 MSTORE PUSH1 0x20 ADD PUSH0 KECCAK256 PUSH0 SWAP1 SLOAD SWAP1 PUSH2 0x100 EXP SWAP1 DIV PUSH1 0xFF AND SWAP1 POP SWAP1 JUMP JUMPDEST PUSH1 0x2 PUSH0 CALLER PUSH20 0xFFFFFFFFFFFFFFFFFFFFFFFFFFFFFFFFFFFFFFFF AND PUSH20 0xFFFFFFFFFFFFFFFFFFFFFFFFFFFFFFFFFFFFFFFF AND DUP2 MSTORE PUSH1 0x20 ADD SWAP1 DUP2 MSTORE PUSH1 0x20 ADD PUSH0 KECCAK256 PUSH0 SWAP1 SLOAD SWAP1 PUSH2 0x100 EXP SWAP1 DIV PUSH1 0xFF AND ISZERO PUSH2 0x3F3 JUMPI PUSH1 0x40 MLOAD PUSH32 0x8C379A000000000000000000000000000000000000000000000000000000000 DUP2 MSTORE PUSH1 0x4 ADD PUSH2 0x3EA SWAP1 PUSH2 0x10E3 JUMP JUMPDEST PUSH1 0x40 MLOAD DUP1 SWAP2 SUB SWAP1 REVERT JUMPDEST PUSH0 DUP1 PUSH0 CALLER PUSH20 0xFFFFFFFFFFFFFFFFFFFFFFFFFFFFFFFFFFFFFFFF AND PUSH20 0xFFFFFFFFFFFFFFFFFFFFFFFFFFFFFFFFFFFFFFFF AND DUP2 MSTORE PUSH1 0x20 ADD SWAP1 DUP2 MSTORE PUSH1 0x20 ADD PUSH0 KECCAK256 SWAP1 POP CALLER DUP2 PUSH0 ADD PUSH0 PUSH2 0x100 EXP DUP2 SLOAD DUP2 PUSH20 0xFFFFFFFFFFFFFFFFFFFFFFFFFFFFFFFFFFFFFFFF MUL NOT AND SWAP1 DUP4 PUSH20 0xFFFFFFFFFFFFFFFFFFFFFFFFFFFFFFFFFFFFFFFF AND MUL OR SWAP1 SSTORE POP DUP3 DUP2 PUSH1 0x1 ADD SWAP1 DUP2 PUSH2 0x484 SWAP2 SWAP1 PUSH2 0x1304 JUMP JUMPDEST POP DUP2 DUP2 PUSH1 0x2 ADD SWAP1 DUP2 PUSH2 0x496 SWAP2 SWAP1 PUSH2 0x1304 JUMP JUMPDEST POP PUSH1 0x1 PUSH1 0x2 PUSH0 CALLER PUSH20 0xFFFFFFFFFFFFFFFFFFFFFFFFFFFFFFFFFFFFFFFF AND PUSH20 0xFFFFFFFFFFFFFFFFFFFFFFFFFFFFFFFFFFFFFFFF AND DUP2 MSTORE PUSH1 0x20 ADD SWAP1 DUP2 MSTORE PUSH1 0x20 ADD PUSH0 KECCAK256 PUSH0 PUSH2 0x100 EXP DUP2 SLOAD DUP2 PUSH1 0xFF MUL NOT AND SWAP1 DUP4 ISZERO ISZERO MUL OR SWAP1 SSTORE POP POP POP POP JUMP JUMPDEST PUSH1 0x2 PUSH0 CALLER PUSH20 0xFFFFFFFFFFFFFFFFFFFFFFFFFFFFFFFFFFFFFFFF AND PUSH20 0xFFFFFFFFFFFFFFFFFFFFFFFFFFFFFFFFFFFFFFFF AND DUP2 MSTORE PUSH1 0x20 ADD SWAP1 DUP2 MSTORE PUSH1 0x20 ADD PUSH0 KECCAK256 PUSH0 SWAP1 SLOAD SWAP1 PUSH2 0x100 EXP SWAP1 DIV PUSH1 0xFF AND ISZERO PUSH2 0x57B JUMPI PUSH1 0x40 MLOAD PUSH32 0x8C379A000000000000000000000000000000000000000000000000000000000 DUP2 MSTORE PUSH1 0x4 ADD PUSH2 0x572 SWAP1 PUSH2 0x10E3 JUMP JUMPDEST PUSH1 0x40 MLOAD DUP1 SWAP2 SUB SWAP1 REVERT JUMPDEST PUSH0 PUSH1 0x1 PUSH0 CALLER PUSH20 0xFFFFFFFFFFFFFFFFFFFFFFFFFFFFFFFFFFFFFFFF AND PUSH20 0xFFFFFFFFFFFFFFFFFFFFFFFFFFFFFFFFFFFFFFFF AND DUP2 MSTORE PUSH1 0x20 ADD SWAP1 DUP2 MSTORE PUSH1 0x20 ADD PUSH0 KECCAK256 SWAP1 POP CALLER DUP2 PUSH0 ADD PUSH0 PUSH2 0x100 EXP DUP2 SLOAD DUP2 PUSH20 0xFFFFFFFFFFFFFFFFFFFFFFFFFFFFFFFFFFFFFFFF MUL NOT AND SWAP1 DUP4 PUSH20 0xFFFFFFFFFFFFFFFFFFFFFFFFFFFFFFFFFFFFFFFF AND MUL OR SWAP1 SSTORE POP DUP3 DUP2 PUSH1 0x1 ADD SWAP1 DUP2 PUSH2 0x60D SWAP2 SWAP1 PUSH2 0x1304 JUMP JUMPDEST POP DUP2 DUP2 PUSH1 0x2 ADD SWAP1 DUP2 PUSH2 0x61F SWAP2 SWAP1 PUSH2 0x1304 JUMP JUMPDEST POP PUSH1 0x1 PUSH1 0x2 PUSH0 CALLER PUSH20 0xFFFFFFFFFFFFFFFFFFFFFFFFFFFFFFFFFFFFFFFF AND PUSH20 0xFFFFFFFFFFFFFFFFFFFFFFFFFFFFFFFFFFFFFFFF AND DUP2 MSTORE PUSH1 0x20 ADD SWAP1 DUP2 MSTORE PUSH1 0x20 ADD PUSH0 KECCAK256 PUSH0 PUSH2 0x100 EXP DUP2 SLOAD DUP2 PUSH1 0xFF MUL NOT AND SWAP1 DUP4 ISZERO ISZERO MUL OR SWAP1 SSTORE POP POP POP POP JUMP JUMPDEST PUSH1 0x1 PUSH1 0x20 MSTORE DUP1 PUSH0 MSTORE PUSH1 0x40 PUSH0 KECCAK256 PUSH0 SWAP2 POP SWAP1 POP DUP1 PUSH0 ADD PUSH0 SWAP1 SLOAD SWAP1 PUSH2 0x100 EXP SWAP1 DIV PUSH20 0xFFFFFFFFFFFFFFFFFFFFFFFFFFFFFFFFFFFFFFFF AND SWAP1 DUP1 PUSH1 0x1 ADD DUP1 SLOAD PUSH2 0x6BE SWAP1 PUSH2 0x112E JUMP JUMPDEST DUP1 PUSH1 0x1F ADD PUSH1 0x20 DUP1 SWAP2 DIV MUL PUSH1 0x20 ADD PUSH1 0x40 MLOAD SWAP1 DUP2 ADD PUSH1 0x40 MSTORE DUP1 SWAP3 SWAP2 SWAP1 DUP2 DUP2 MSTORE PUSH1 0x20 ADD DUP3 DUP1 SLOAD PUSH2 0x6EA SWAP1 PUSH2 0x112E JUMP JUMPDEST DUP1 ISZERO PUSH2 0x735 JUMPI DUP1 PUSH1 0x1F LT PUSH2 0x70C JUMPI PUSH2 0x100 DUP1 DUP4 SLOAD DIV MUL DUP4 MSTORE SWAP2 PUSH1 0x20 ADD SWAP2 PUSH2 0x735 JUMP JUMPDEST DUP3 ADD SWAP2 SWAP1 PUSH0 MSTORE PUSH1 0x20 PUSH0 KECCAK256 SWAP1 JUMPDEST DUP2 SLOAD DUP2 MSTORE SWAP1 PUSH1 0x1 ADD SWAP1 PUSH1 0x20 ADD DUP1 DUP4 GT PUSH2 0x718 JUMPI DUP3 SWAP1 SUB PUSH1 0x1F AND DUP3 ADD SWAP2 JUMPDEST POP POP POP POP POP SWAP1 DUP1 PUSH1 0x2 ADD DUP1 SLOAD PUSH2 0x74A SWAP1 PUSH2 0x112E JUMP JUMPDEST DUP1 PUSH1 0x1F ADD PUSH1 0x20 DUP1 SWAP2 DIV MUL PUSH1 0x20 ADD PUSH1 0x40 MLOAD SWAP1 DUP2 ADD PUSH1 0x40 MSTORE DUP1 SWAP3 SWAP2 SWAP1 DUP2 DUP2 MSTORE PUSH1 0x20 ADD DUP3 DUP1 SLOAD PUSH2 0x776 SWAP1 PUSH2 0x112E JUMP JUMPDEST DUP1 ISZERO PUSH2 0x7C1 JUMPI DUP1 PUSH1 0x1F LT PUSH2 0x798 JUMPI PUSH2 0x100 DUP1 DUP4 SLOAD DIV MUL DUP4 MSTORE SWAP2 PUSH1 0x20 ADD SWAP2 PUSH2 0x7C1 JUMP JUMPDEST DUP3 ADD SWAP2 SWAP1 PUSH0 MSTORE PUSH1 0x20 PUSH0 KECCAK256 SWAP1 JUMPDEST DUP2 SLOAD DUP2 MSTORE SWAP1 PUSH1 0x1 ADD SWAP1 PUSH1 0x20 ADD DUP1 DUP4 GT PUSH2 0x7A4 JUMPI DUP3 SWAP1 SUB PUSH1 0x1F AND DUP3 ADD SWAP2 JUMPDEST POP POP POP POP POP SWAP1 POP DUP4 JUMP JUMPDEST PUSH1 0x2 PUSH1 0x20 MSTORE DUP1 PUSH0 MSTORE PUSH1 0x40 PUSH0 KECCAK256 PUSH0 SWAP2 POP SLOAD SWAP1 PUSH2 0x100 EXP SWAP1 DIV PUSH1 0xFF AND DUP2 JUMP JUMPDEST PUSH1 0x2 PUSH0 CALLER PUSH20 0xFFFFFFFFFFFFFFFFFFFFFFFFFFFFFFFFFFFFFFFF AND PUSH20 0xFFFFFFFFFFFFFFFFFFFFFFFFFFFFFFFFFFFFFFFF AND DUP2 MSTORE PUSH1 0x20 ADD SWAP1 DUP2 MSTORE PUSH1 0x20 ADD PUSH0 KECCAK256 PUSH0 SWAP1 SLOAD SWAP1 PUSH2 0x100 EXP SWAP1 DIV PUSH1 0xFF AND PUSH2 0x871 JUMPI PUSH1 0x40 MLOAD PUSH32 0x8C379A000000000000000000000000000000000000000000000000000000000 DUP2 MSTORE PUSH1 0x4 ADD PUSH2 0x868 SWAP1 PUSH2 0x141D JUMP JUMPDEST PUSH1 0x40 MLOAD DUP1 SWAP2 SUB SWAP1 REVERT JUMPDEST PUSH0 PUSH20 0xFFFFFFFFFFFFFFFFFFFFFFFFFFFFFFFFFFFFFFFF AND PUSH0 DUP1 DUP4 PUSH20 0xFFFFFFFFFFFFFFFFFFFFFFFFFFFFFFFFFFFFFFFF AND PUSH20 0xFFFFFFFFFFFFFFFFFFFFFFFFFFFFFFFFFFFFFFFF AND DUP2 MSTORE PUSH1 0x20 ADD SWAP1 DUP2 MSTORE PUSH1 0x20 ADD PUSH0 KECCAK256 PUSH0 ADD PUSH0 SWAP1 SLOAD SWAP1 PUSH2 0x100 EXP SWAP1 DIV PUSH20 0xFFFFFFFFFFFFFFFFFFFFFFFFFFFFFFFFFFFFFFFF AND PUSH20 0xFFFFFFFFFFFFFFFFFFFFFFFFFFFFFFFFFFFFFFFF AND SUB PUSH2 0x93C JUMPI PUSH1 0x40 MLOAD PUSH32 0x8C379A000000000000000000000000000000000000000000000000000000000 DUP2 MSTORE PUSH1 0x4 ADD PUSH2 0x933 SWAP1 PUSH2 0x1485 JUMP JUMPDEST PUSH1 0x40 MLOAD DUP1 SWAP2 SUB SWAP1 REVERT JUMPDEST PUSH0 DUP1 DUP3 PUSH20 0xFFFFFFFFFFFFFFFFFFFFFFFFFFFFFFFFFFFFFFFF AND PUSH20 0xFFFFFFFFFFFFFFFFFFFFFFFFFFFFFFFFFFFFFFFF AND DUP2 MSTORE PUSH1 0x20 ADD SWAP1 DUP2 MSTORE PUSH1 0x20 ADD PUSH0 KECCAK256 PUSH1 0x2 ADD PUSH1 0x40 MLOAD PUSH2 0x988 SWAP2 SWAP1 PUSH2 0x153F JUMP JUMPDEST PUSH1 0x40 MLOAD DUP1 SWAP2 SUB SWAP1 KECCAK256 PUSH1 0x1 PUSH0 CALLER PUSH20 0xFFFFFFFFFFFFFFFFFFFFFFFFFFFFFFFFFFFFFFFF AND PUSH20 0xFFFFFFFFFFFFFFFFFFFFFFFFFFFFFFFFFFFFFFFF AND DUP2 MSTORE PUSH1 0x20 ADD SWAP1 DUP2 MSTORE PUSH1 0x20 ADD PUSH0 KECCAK256 PUSH1 0x2 ADD PUSH1 0x40 MLOAD PUSH2 0x9DD SWAP2 SWAP1 PUSH2 0x153F JUMP JUMPDEST PUSH1 0x40 MLOAD DUP1 SWAP2 SUB SWAP1 KECCAK256 EQ PUSH2 0xA25 JUMPI PUSH1 0x40 MLOAD PUSH32 0x8C379A000000000000000000000000000000000000000000000000000000000 DUP2 MSTORE PUSH1 0x4 ADD PUSH2 0xA1C SWAP1 PUSH2 0x15C5 JUMP JUMPDEST PUSH1 0x40 MLOAD DUP1 SWAP2 SUB SWAP1 REVERT JUMPDEST PUSH1 0x40 MLOAD DUP1 PUSH1 0x60 ADD PUSH1 0x40 MSTORE DUP1 DUP3 PUSH20 0xFFFFFFFFFFFFFFFFFFFFFFFFFFFFFFFFFFFFFFFF AND DUP2 MSTORE PUSH1 0x20 ADD CALLER PUSH20 0xFFFFFFFFFFFFFFFFFFFFFFFFFFFFFFFFFFFFFFFF AND DUP2 MSTORE PUSH1 0x20 ADD PUSH1 0x1 ISZERO ISZERO DUP2 MSTORE POP PUSH1 0x3 PUSH0 CALLER PUSH20 0xFFFFFFFFFFFFFFFFFFFFFFFFFFFFFFFFFFFFFFFF AND PUSH20 0xFFFFFFFFFFFFFFFFFFFFFFFFFFFFFFFFFFFFFFFF AND DUP2 MSTORE PUSH1 0x20 ADD SWAP1 DUP2 MSTORE PUSH1 0x20 ADD PUSH0 KECCAK256 PUSH0 DUP3 ADD MLOAD DUP2 PUSH0 ADD PUSH0 PUSH2 0x100 EXP DUP2 SLOAD DUP2 PUSH20 0xFFFFFFFFFFFFFFFFFFFFFFFFFFFFFFFFFFFFFFFF MUL NOT AND SWAP1 DUP4 PUSH20 0xFFFFFFFFFFFFFFFFFFFFFFFFFFFFFFFFFFFFFFFF AND MUL OR SWAP1 SSTORE POP PUSH1 0x20 DUP3 ADD MLOAD DUP2 PUSH1 0x1 ADD PUSH0 PUSH2 0x100 EXP DUP2 SLOAD DUP2 PUSH20 0xFFFFFFFFFFFFFFFFFFFFFFFFFFFFFFFFFFFFFFFF MUL NOT AND SWAP1 DUP4 PUSH20 0xFFFFFFFFFFFFFFFFFFFFFFFFFFFFFFFFFFFFFFFF AND MUL OR SWAP1 SSTORE POP PUSH1 0x40 DUP3 ADD MLOAD DUP2 PUSH1 0x1 ADD PUSH1 0x14 PUSH2 0x100 EXP DUP2 SLOAD DUP2 PUSH1 0xFF MUL NOT AND SWAP1 DUP4 ISZERO ISZERO MUL OR SWAP1 SSTORE POP SWAP1 POP POP POP JUMP JUMPDEST PUSH1 0x3 PUSH1 0x20 MSTORE DUP1 PUSH0 MSTORE PUSH1 0x40 PUSH0 KECCAK256 PUSH0 SWAP2 POP SWAP1 POP DUP1 PUSH0 ADD PUSH0 SWAP1 SLOAD SWAP1 PUSH2 0x100 EXP SWAP1 DIV PUSH20 0xFFFFFFFFFFFFFFFFFFFFFFFFFFFFFFFFFFFFFFFF AND SWAP1 DUP1 PUSH1 0x1 ADD PUSH0 SWAP1 SLOAD SWAP1 PUSH2 0x100 EXP SWAP1 DIV PUSH20 0xFFFFFFFFFFFFFFFFFFFFFFFFFFFFFFFFFFFFFFFF AND SWAP1 DUP1 PUSH1 0x1 ADD PUSH1 0x14 SWAP1 SLOAD SWAP1 PUSH2 0x100 EXP SWAP1 DIV PUSH1 0xFF AND SWAP1 POP DUP4 JUMP JUMPDEST PUSH0 PUSH1 0x20 MSTORE DUP1 PUSH0 MSTORE PUSH1 0x40 PUSH0 KECCAK256 PUSH0 SWAP2 POP SWAP1 POP DUP1 PUSH0 ADD PUSH0 SWAP1 SLOAD SWAP1 PUSH2 0x100 EXP SWAP1 DIV PUSH20 0xFFFFFFFFFFFFFFFFFFFFFFFFFFFFFFFFFFFFFFFF AND SWAP1 DUP1 PUSH1 0x1 ADD DUP1 SLOAD PUSH2 0xC10 SWAP1 PUSH2 0x112E JUMP JUMPDEST DUP1 PUSH1 0x1F ADD PUSH1 0x20 DUP1 SWAP2 DIV MUL PUSH1 0x20 ADD PUSH1 0x40 MLOAD SWAP1 DUP2 ADD PUSH1 0x40 MSTORE DUP1 SWAP3 SWAP2 SWAP1 DUP2 DUP2 MSTORE PUSH1 0x20 ADD DUP3 DUP1 SLOAD PUSH2 0xC3C SWAP1 PUSH2 0x112E JUMP JUMPDEST DUP1 ISZERO PUSH2 0xC87 JUMPI DUP1 PUSH1 0x1F LT PUSH2 0xC5E JUMPI PUSH2 0x100 DUP1 DUP4 SLOAD DIV MUL DUP4 MSTORE SWAP2 PUSH1 0x20 ADD SWAP2 PUSH2 0xC87 JUMP JUMPDEST DUP3 ADD SWAP2 SWAP1 PUSH0 MSTORE PUSH1 0x20 PUSH0 KECCAK256 SWAP1 JUMPDEST DUP2 SLOAD DUP2 MSTORE SWAP1 PUSH1 0x1 ADD SWAP1 PUSH1 0x20 ADD DUP1 DUP4 GT PUSH2 0xC6A JUMPI DUP3 SWAP1 SUB PUSH1 0x1F AND DUP3 ADD SWAP2 JUMPDEST POP POP POP POP POP SWAP1 DUP1 PUSH1 0x2 ADD DUP1 SLOAD PUSH2 0xC9C SWAP1 PUSH2 0x112E JUMP JUMPDEST DUP1 PUSH1 0x1F ADD PUSH1 0x20 DUP1 SWAP2 DIV MUL PUSH1 0x20 ADD PUSH1 0x40 MLOAD SWAP1 DUP2 ADD PUSH1 0x40 MSTORE DUP1 SWAP3 SWAP2 SWAP1 DUP2 DUP2 MSTORE PUSH1 0x20 ADD DUP3 DUP1 SLOAD PUSH2 0xCC8 SWAP1 PUSH2 0x112E JUMP JUMPDEST DUP1 ISZERO PUSH2 0xD13 JUMPI DUP1 PUSH1 0x1F LT PUSH2 0xCEA JUMPI PUSH2 0x100 DUP1 DUP4 SLOAD DIV MUL DUP4 MSTORE SWAP2 PUSH1 0x20 ADD SWAP2 PUSH2 0xD13 JUMP JUMPDEST DUP3 ADD SWAP2 SWAP1 PUSH0 MSTORE PUSH1 0x20 PUSH0 KECCAK256 SWAP1 JUMPDEST DUP2 SLOAD DUP2 MSTORE SWAP1 PUSH1 0x1 ADD SWAP1 PUSH1 0x20 ADD DUP1 DUP4 GT PUSH2 0xCF6 JUMPI DUP3 SWAP1 SUB PUSH1 0x1F AND DUP3 ADD SWAP2 JUMPDEST POP POP POP POP POP SWAP1 POP DUP4 JUMP JUMPDEST PUSH0 PUSH20 0xFFFFFFFFFFFFFFFFFFFFFFFFFFFFFFFFFFFFFFFF DUP3 AND SWAP1 POP SWAP2 SWAP1 POP JUMP JUMPDEST PUSH0 PUSH2 0xD46 DUP3 PUSH2 0xD1D JUMP JUMPDEST SWAP1 POP SWAP2 SWAP1 POP JUMP JUMPDEST PUSH2 0xD56 DUP2 PUSH2 0xD3C JUMP JUMPDEST DUP3 MSTORE POP POP JUMP JUMPDEST PUSH0 DUP2 ISZERO ISZERO SWAP1 POP SWAP2 SWAP1 POP JUMP JUMPDEST PUSH2 0xD70 DUP2 PUSH2 0xD5C JUMP JUMPDEST DUP3 MSTORE POP POP JUMP JUMPDEST PUSH0 PUSH1 0x60 DUP3 ADD SWAP1 POP PUSH2 0xD89 PUSH0 DUP4 ADD DUP7 PUSH2 0xD4D JUMP JUMPDEST PUSH2 0xD96 PUSH1 0x20 DUP4 ADD DUP6 PUSH2 0xD4D JUMP JUMPDEST PUSH2 0xDA3 PUSH1 0x40 DUP4 ADD DUP5 PUSH2 0xD67 JUMP JUMPDEST SWAP5 SWAP4 POP POP POP POP JUMP JUMPDEST PUSH0 PUSH1 0x20 DUP3 ADD SWAP1 POP PUSH2 0xDBE PUSH0 DUP4 ADD DUP5 PUSH2 0xD67 JUMP JUMPDEST SWAP3 SWAP2 POP POP JUMP JUMPDEST PUSH0 PUSH1 0x40 MLOAD SWAP1 POP SWAP1 JUMP JUMPDEST PUSH0 DUP1 REVERT JUMPDEST PUSH0 DUP1 REVERT JUMPDEST PUSH0 DUP1 REVERT JUMPDEST PUSH0 DUP1 REVERT JUMPDEST PUSH0 PUSH1 0x1F NOT PUSH1 0x1F DUP4 ADD AND SWAP1 POP SWAP2 SWAP1 POP JUMP JUMPDEST PUSH32 0x4E487B7100000000000000000000000000000000000000000000000000000000 PUSH0 MSTORE PUSH1 0x41 PUSH1 0x4 MSTORE PUSH1 0x24 PUSH0 REVERT JUMPDEST PUSH2 0xE23 DUP3 PUSH2 0xDDD JUMP JUMPDEST DUP2 ADD DUP2 DUP2 LT PUSH8 0xFFFFFFFFFFFFFFFF DUP3 GT OR ISZERO PUSH2 0xE42 JUMPI PUSH2 0xE41 PUSH2 0xDED JUMP JUMPDEST JUMPDEST DUP1 PUSH1 0x40 MSTORE POP POP POP JUMP JUMPDEST PUSH0 PUSH2 0xE54 PUSH2 0xDC4 JUMP JUMPDEST SWAP1 POP PUSH2 0xE60 DUP3 DUP3 PUSH2 0xE1A JUMP JUMPDEST SWAP2 SWAP1 POP JUMP JUMPDEST PUSH0 PUSH8 0xFFFFFFFFFFFFFFFF DUP3 GT ISZERO PUSH2 0xE7F JUMPI PUSH2 0xE7E PUSH2 0xDED JUMP JUMPDEST JUMPDEST PUSH2 0xE88 DUP3 PUSH2 0xDDD JUMP JUMPDEST SWAP1 POP PUSH1 0x20 DUP2 ADD SWAP1 POP SWAP2 SWAP1 POP JUMP JUMPDEST DUP3 DUP2 DUP4 CALLDATACOPY PUSH0 DUP4 DUP4 ADD MSTORE POP POP POP JUMP JUMPDEST PUSH0 PUSH2 0xEB5 PUSH2 0xEB0 DUP5 PUSH2 0xE65 JUMP JUMPDEST PUSH2 0xE4B JUMP JUMPDEST SWAP1 POP DUP3 DUP2 MSTORE PUSH1 0x20 DUP2 ADD DUP5 DUP5 DUP5 ADD GT ISZERO PUSH2 0xED1 JUMPI PUSH2 0xED0 PUSH2 0xDD9 JUMP JUMPDEST JUMPDEST PUSH2 0xEDC DUP5 DUP3 DUP6 PUSH2 0xE95 JUMP JUMPDEST POP SWAP4 SWAP3 POP POP POP JUMP JUMPDEST PUSH0 DUP3 PUSH1 0x1F DUP4 ADD SLT PUSH2 0xEF8 JUMPI PUSH2 0xEF7 PUSH2 0xDD5 JUMP JUMPDEST JUMPDEST DUP2 CALLDATALOAD PUSH2 0xF08 DUP5 DUP3 PUSH1 0x20 DUP7 ADD PUSH2 0xEA3 JUMP JUMPDEST SWAP2 POP POP SWAP3 SWAP2 POP POP JUMP JUMPDEST PUSH0 DUP1 PUSH1 0x40 DUP4 DUP6 SUB SLT ISZERO PUSH2 0xF27 JUMPI PUSH2 0xF26 PUSH2 0xDCD JUMP JUMPDEST JUMPDEST PUSH0 DUP4 ADD CALLDATALOAD PUSH8 0xFFFFFFFFFFFFFFFF DUP2 GT ISZERO PUSH2 0xF44 JUMPI PUSH2 0xF43 PUSH2 0xDD1 JUMP JUMPDEST JUMPDEST PUSH2 0xF50 DUP6 DUP3 DUP7 ADD PUSH2 0xEE4 JUMP JUMPDEST SWAP3 POP POP PUSH1 0x20 DUP4 ADD CALLDATALOAD PUSH8 0xFFFFFFFFFFFFFFFF DUP2 GT ISZERO PUSH2 0xF71 JUMPI PUSH2 0xF70 PUSH2 0xDD1 JUMP JUMPDEST JUMPDEST PUSH2 0xF7D DUP6 DUP3 DUP7 ADD PUSH2 0xEE4 JUMP JUMPDEST SWAP2 POP POP SWAP3 POP SWAP3 SWAP1 POP JUMP JUMPDEST PUSH2 0xF90 DUP2 PUSH2 0xD3C JUMP JUMPDEST DUP2 EQ PUSH2 0xF9A JUMPI PUSH0 DUP1 REVERT JUMPDEST POP JUMP JUMPDEST PUSH0 DUP2 CALLDATALOAD SWAP1 POP PUSH2 0xFAB DUP2 PUSH2 0xF87 JUMP JUMPDEST SWAP3 SWAP2 POP POP JUMP JUMPDEST PUSH0 PUSH1 0x20 DUP3 DUP5 SUB SLT ISZERO PUSH2 0xFC6 JUMPI PUSH2 0xFC5 PUSH2 0xDCD JUMP JUMPDEST JUMPDEST PUSH0 PUSH2 0xFD3 DUP5 DUP3 DUP6 ADD PUSH2 0xF9D JUMP JUMPDEST SWAP2 POP POP SWAP3 SWAP2 POP POP JUMP JUMPDEST PUSH0 DUP2 MLOAD SWAP1 POP SWAP2 SWAP1 POP JUMP JUMPDEST PUSH0 DUP3 DUP3 MSTORE PUSH1 0x20 DUP3 ADD SWAP1 POP SWAP3 SWAP2 POP POP JUMP JUMPDEST PUSH0 JUMPDEST DUP4 DUP2 LT ISZERO PUSH2 0x1013 JUMPI DUP1 DUP3 ADD MLOAD DUP2 DUP5 ADD MSTORE PUSH1 0x20 DUP2 ADD SWAP1 POP PUSH2 0xFF8 JUMP JUMPDEST PUSH0 DUP5 DUP5 ADD MSTORE POP POP POP POP JUMP JUMPDEST PUSH0 PUSH2 0x1028 DUP3 PUSH2 0xFDC JUMP JUMPDEST PUSH2 0x1032 DUP2 DUP6 PUSH2 0xFE6 JUMP JUMPDEST SWAP4 POP PUSH2 0x1042 DUP2 DUP6 PUSH1 0x20 DUP7 ADD PUSH2 0xFF6 JUMP JUMPDEST PUSH2 0x104B DUP2 PUSH2 0xDDD JUMP JUMPDEST DUP5 ADD SWAP2 POP POP SWAP3 SWAP2 POP POP JUMP JUMPDEST PUSH0 PUSH1 0x60 DUP3 ADD SWAP1 POP PUSH2 0x1069 PUSH0 DUP4 ADD DUP7 PUSH2 0xD4D JUMP JUMPDEST DUP2 DUP2 SUB PUSH1 0x20 DUP4 ADD MSTORE PUSH2 0x107B DUP2 DUP6 PUSH2 0x101E JUMP JUMPDEST SWAP1 POP DUP2 DUP2 SUB PUSH1 0x40 DUP4 ADD MSTORE PUSH2 0x108F DUP2 DUP5 PUSH2 0x101E JUMP JUMPDEST SWAP1 POP SWAP5 SWAP4 POP POP POP POP JUMP JUMPDEST PUSH32 0x5573657220616C72656164792072656769737465726564000000000000000000 PUSH0 DUP3 ADD MSTORE POP JUMP JUMPDEST PUSH0 PUSH2 0x10CD PUSH1 0x17 DUP4 PUSH2 0xFE6 JUMP JUMPDEST SWAP2 POP PUSH2 0x10D8 DUP3 PUSH2 0x1099 JUMP JUMPDEST PUSH1 0x20 DUP3 ADD SWAP1 POP SWAP2 SWAP1 POP JUMP JUMPDEST PUSH0 PUSH1 0x20 DUP3 ADD SWAP1 POP DUP2 DUP2 SUB PUSH0 DUP4 ADD MSTORE PUSH2 0x10FA DUP2 PUSH2 0x10C1 JUMP JUMPDEST SWAP1 POP SWAP2 SWAP1 POP JUMP JUMPDEST PUSH32 0x4E487B7100000000000000000000000000000000000000000000000000000000 PUSH0 MSTORE PUSH1 0x22 PUSH1 0x4 MSTORE PUSH1 0x24 PUSH0 REVERT JUMPDEST PUSH0 PUSH1 0x2 DUP3 DIV SWAP1 POP PUSH1 0x1 DUP3 AND DUP1 PUSH2 0x1145 JUMPI PUSH1 0x7F DUP3 AND SWAP2 POP JUMPDEST PUSH1 0x20 DUP3 LT DUP2 SUB PUSH2 0x1158 JUMPI PUSH2 0x1157 PUSH2 0x1101 JUMP JUMPDEST JUMPDEST POP SWAP2 SWAP1 POP JUMP JUMPDEST PUSH0 DUP2 SWAP1 POP DUP2 PUSH0 MSTORE PUSH1 0x20 PUSH0 KECCAK256 SWAP1 POP SWAP2 SWAP1 POP JUMP JUMPDEST PUSH0 PUSH1 0x20 PUSH1 0x1F DUP4 ADD DIV SWAP1 POP SWAP2 SWAP1 POP JUMP JUMPDEST PUSH0 DUP3 DUP3 SHL SWAP1 POP SWAP3 SWAP2 POP POP JUMP JUMPDEST PUSH0 PUSH1 0x8 DUP4 MUL PUSH2 0x11BA PUSH32 0xFFFFFFFFFFFFFFFFFFFFFFFFFFFFFFFFFFFFFFFFFFFFFFFFFFFFFFFFFFFFFFFF DUP3 PUSH2 0x117F JUMP JUMPDEST PUSH2 0x11C4 DUP7 DUP4 PUSH2 0x117F JUMP JUMPDEST SWAP6 POP DUP1 NOT DUP5 AND SWAP4 POP DUP1 DUP7 AND DUP5 OR SWAP3 POP POP POP SWAP4 SWAP3 POP POP POP JUMP JUMPDEST PUSH0 DUP2 SWAP1 POP SWAP2 SWAP1 POP JUMP JUMPDEST PUSH0 DUP2 SWAP1 POP SWAP2 SWAP1 POP JUMP JUMPDEST PUSH0 PUSH2 0x1208 PUSH2 0x1203 PUSH2 0x11FE DUP5 PUSH2 0x11DC JUMP JUMPDEST PUSH2 0x11E5 JUMP JUMPDEST PUSH2 0x11DC JUMP JUMPDEST SWAP1 POP SWAP2 SWAP1 POP JUMP JUMPDEST PUSH0 DUP2 SWAP1 POP SWAP2 SWAP1 POP JUMP JUMPDEST PUSH2 0x1221 DUP4 PUSH2 0x11EE JUMP JUMPDEST PUSH2 0x1235 PUSH2 0x122D DUP3 PUSH2 0x120F JUMP JUMPDEST DUP5 DUP5 SLOAD PUSH2 0x118B JUMP JUMPDEST DUP3 SSTORE POP POP POP POP JUMP JUMPDEST PUSH0 SWAP1 JUMP JUMPDEST PUSH2 0x1249 PUSH2 0x123D JUMP JUMPDEST PUSH2 0x1254 DUP2 DUP5 DUP5 PUSH2 0x1218 JUMP JUMPDEST POP POP POP JUMP JUMPDEST JUMPDEST DUP2 DUP2 LT ISZERO PUSH2 0x1277 JUMPI PUSH2 0x126C PUSH0 DUP3 PUSH2 0x1241 JUMP JUMPDEST PUSH1 0x1 DUP2 ADD SWAP1 POP PUSH2 0x125A JUMP JUMPDEST POP POP JUMP JUMPDEST PUSH1 0x1F DUP3 GT ISZERO PUSH2 0x12BC JUMPI PUSH2 0x128D DUP2 PUSH2 0x115E JUMP JUMPDEST PUSH2 0x1296 DUP5 PUSH2 0x1170 JUMP JUMPDEST DUP2 ADD PUSH1 0x20 DUP6 LT ISZERO PUSH2 0x12A5 JUMPI DUP2 SWAP1 POP JUMPDEST PUSH2 0x12B9 PUSH2 0x12B1 DUP6 PUSH2 0x1170 JUMP JUMPDEST DUP4 ADD DUP3 PUSH2 0x1259 JUMP JUMPDEST POP POP JUMPDEST POP POP POP JUMP JUMPDEST PUSH0 DUP3 DUP3 SHR SWAP1 POP SWAP3 SWAP2 POP POP JUMP JUMPDEST PUSH0 PUSH2 0x12DC PUSH0 NOT DUP5 PUSH1 0x8 MUL PUSH2 0x12C1 JUMP JUMPDEST NOT DUP1 DUP4 AND SWAP2 POP POP SWAP3 SWAP2 POP POP JUMP JUMPDEST PUSH0 PUSH2 0x12F4 DUP4 DUP4 PUSH2 0x12CD JUMP JUMPDEST SWAP2 POP DUP3 PUSH1 0x2 MUL DUP3 OR SWAP1 POP SWAP3 SWAP2 POP POP JUMP JUMPDEST PUSH2 0x130D DUP3 PUSH2 0xFDC JUMP JUMPDEST PUSH8 0xFFFFFFFFFFFFFFFF DUP2 GT ISZERO PUSH2 0x1326 JUMPI PUSH2 0x1325 PUSH2 0xDED JUMP JUMPDEST JUMPDEST PUSH2 0x1330 DUP3 SLOAD PUSH2 0x112E JUMP JUMPDEST PUSH2 0x133B DUP3 DUP3 DUP6 PUSH2 0x127B JUMP JUMPDEST PUSH0 PUSH1 0x20 SWAP1 POP PUSH1 0x1F DUP4 GT PUSH1 0x1 DUP2 EQ PUSH2 0x136C JUMPI PUSH0 DUP5 ISZERO PUSH2 0x135A JUMPI DUP3 DUP8 ADD MLOAD SWAP1 POP JUMPDEST PUSH2 0x1364 DUP6 DUP3 PUSH2 0x12E9 JUMP JUMPDEST DUP7 SSTORE POP PUSH2 0x13CB JUMP JUMPDEST PUSH1 0x1F NOT DUP5 AND PUSH2 0x137A DUP7 PUSH2 0x115E JUMP JUMPDEST PUSH0 JUMPDEST DUP3 DUP2 LT ISZERO PUSH2 0x13A1 JUMPI DUP5 DUP10 ADD MLOAD DUP3 SSTORE PUSH1 0x1 DUP3 ADD SWAP2 POP PUSH1 0x20 DUP6 ADD SWAP5 POP PUSH1 0x20 DUP2 ADD SWAP1 POP PUSH2 0x137C JUMP JUMPDEST DUP7 DUP4 LT ISZERO PUSH2 0x13BE JUMPI DUP5 DUP10 ADD MLOAD PUSH2 0x13BA PUSH1 0x1F DUP10 AND DUP3 PUSH2 0x12CD JUMP JUMPDEST DUP4 SSTORE POP JUMPDEST PUSH1 0x1 PUSH1 0x2 DUP9 MUL ADD DUP9 SSTORE POP POP POP JUMPDEST POP POP POP POP POP POP JUMP JUMPDEST PUSH32 0x53747564656E74206E6F7420726567697374657265642E000000000000000000 PUSH0 DUP3 ADD MSTORE POP JUMP JUMPDEST PUSH0 PUSH2 0x1407 PUSH1 0x17 DUP4 PUSH2 0xFE6 JUMP JUMPDEST SWAP2 POP PUSH2 0x1412 DUP3 PUSH2 0x13D3 JUMP JUMPDEST PUSH1 0x20 DUP3 ADD SWAP1 POP SWAP2 SWAP1 POP JUMP JUMPDEST PUSH0 PUSH1 0x20 DUP3 ADD SWAP1 POP DUP2 DUP2 SUB PUSH0 DUP4 ADD MSTORE PUSH2 0x1434 DUP2 PUSH2 0x13FB JUMP JUMPDEST SWAP1 POP SWAP2 SWAP1 POP JUMP JUMPDEST PUSH32 0x4D656E746F72206E6F7420666F756E6400000000000000000000000000000000 PUSH0 DUP3 ADD MSTORE POP JUMP JUMPDEST PUSH0 PUSH2 0x146F PUSH1 0x10 DUP4 PUSH2 0xFE6 JUMP JUMPDEST SWAP2 POP PUSH2 0x147A DUP3 PUSH2 0x143B JUMP JUMPDEST PUSH1 0x20 DUP3 ADD SWAP1 POP SWAP2 SWAP1 POP JUMP JUMPDEST PUSH0 PUSH1 0x20 DUP3 ADD SWAP1 POP DUP2 DUP2 SUB PUSH0 DUP4 ADD MSTORE PUSH2 0x149C DUP2 PUSH2 0x1463 JUMP JUMPDEST SWAP1 POP SWAP2 SWAP1 POP JUMP JUMPDEST PUSH0 DUP2 SWAP1 POP SWAP3 SWAP2 POP POP JUMP JUMPDEST PUSH0 DUP2 SWAP1 POP DUP2 PUSH0 MSTORE PUSH1 0x20 PUSH0 KECCAK256 SWAP1 POP SWAP2 SWAP1 POP JUMP JUMPDEST PUSH0 DUP2 SLOAD PUSH2 0x14CB DUP2 PUSH2 0x112E JUMP JUMPDEST PUSH2 0x14D5 DUP2 DUP7 PUSH2 0x14A3 JUMP JUMPDEST SWAP5 POP PUSH1 0x1 DUP3 AND PUSH0 DUP2 EQ PUSH2 0x14EF JUMPI PUSH1 0x1 DUP2 EQ PUSH2 0x1504 JUMPI PUSH2 0x1536 JUMP JUMPDEST PUSH1 0xFF NOT DUP4 AND DUP7 MSTORE DUP2 ISZERO ISZERO DUP3 MUL DUP7 ADD SWAP4 POP PUSH2 0x1536 JUMP JUMPDEST PUSH2 0x150D DUP6 PUSH2 0x14AD JUMP JUMPDEST PUSH0 JUMPDEST DUP4 DUP2 LT ISZERO PUSH2 0x152E JUMPI DUP2 SLOAD DUP2 DUP10 ADD MSTORE PUSH1 0x1 DUP3 ADD SWAP2 POP PUSH1 0x20 DUP2 ADD SWAP1 POP PUSH2 0x150F JUMP JUMPDEST DUP4 DUP9 ADD SWAP6 POP POP POP JUMPDEST POP POP POP SWAP3 SWAP2 POP POP JUMP JUMPDEST PUSH0 PUSH2 0x154A DUP3 DUP5 PUSH2 0x14BF JUMP JUMPDEST SWAP2 POP DUP2 SWAP1 POP SWAP3 SWAP2 POP POP JUMP JUMPDEST PUSH32 0x496E74657265737420616E642065787065727469736520646F206E6F74206D61 PUSH0 DUP3 ADD MSTORE PUSH32 0x7463680000000000000000000000000000000000000000000000000000000000 PUSH1 0x20 DUP3 ADD MSTORE POP JUMP JUMPDEST PUSH0 PUSH2 0x15AF PUSH1 0x23 DUP4 PUSH2 0xFE6 JUMP JUMPDEST SWAP2 POP PUSH2 0x15BA DUP3 PUSH2 0x1555 JUMP JUMPDEST PUSH1 0x40 DUP3 ADD SWAP1 POP SWAP2 SWAP1 POP JUMP JUMPDEST PUSH0 PUSH1 0x20 DUP3 ADD SWAP1 POP DUP2 DUP2 SUB PUSH0 DUP4 ADD MSTORE PUSH2 0x15DC DUP2 PUSH2 0x15A3 JUMP JUMPDEST SWAP1 POP SWAP2 SWAP1 POP JUMP INVALID LOG2 PUSH5 0x6970667358 0x22 SLT KECCAK256 PUSH10 0x8BABCC5B343C182E42C3 0xC PUSH27 0x11C964F9F8921902EE4E72B2F28F8D77B8FDA064736F6C63430008 AND STOP CALLER "
				},
				"gasEstimates": {
					"creation": {
						"codeDepositCost": "1131400",
						"executionCost": "1172",
						"totalCost": "1132572"
					},
					"external": {
						"getMatchInfo()": "infinite",
						"isRegistered()": "2583",
						"matchMentorStudent(address)": "infinite",
						"matches(address)": "infinite",
						"mentors(address)": "infinite",
						"registerAsMentor(string,string)": "infinite",
						"registerAsStudent(string,string)": "infinite",
						"registered(address)": "2855",
						"students(address)": "infinite"
					}
				},
				"methodIdentifiers": {
					"getMatchInfo()": "063c67c2",
					"isRegistered()": "22366844",
					"matchMentorStudent(address)": "c4c621ed",
					"matches(address)": "cd01ab16",
					"mentors(address)": "eed4ea8f",
					"registerAsMentor(string,string)": "80b1ecec",
					"registerAsStudent(string,string)": "9fc9d7c1",
					"registered(address)": "b2dd5c07",
					"students(address)": "a6c807a9"
				}
			},
			"storageLayout": {
				"storage": [
					{
						"astId": 177,
						"contract": "smartMentorship/userProfile.sol:userProfile",
						"label": "mentors",
						"offset": 0,
						"slot": "0",
						"type": "t_mapping(t_address,t_struct(Mentor)158_storage)"
					},
					{
						"astId": 182,
						"contract": "smartMentorship/userProfile.sol:userProfile",
						"label": "students",
						"offset": 0,
						"slot": "1",
						"type": "t_mapping(t_address,t_struct(Student)165_storage)"
					},
					{
						"astId": 186,
						"contract": "smartMentorship/userProfile.sol:userProfile",
						"label": "registered",
						"offset": 0,
						"slot": "2",
						"type": "t_mapping(t_address,t_bool)"
					},
					{
						"astId": 191,
						"contract": "smartMentorship/userProfile.sol:userProfile",
						"label": "matches",
						"offset": 0,
						"slot": "3",
						"type": "t_mapping(t_address,t_struct(Match)172_storage)"
					}
				],
				"types": {
					"t_address": {
						"encoding": "inplace",
						"label": "address",
						"numberOfBytes": "20"
					},
					"t_bool": {
						"encoding": "inplace",
						"label": "bool",
						"numberOfBytes": "1"
					},
					"t_mapping(t_address,t_bool)": {
						"encoding": "mapping",
						"key": "t_address",
						"label": "mapping(address => bool)",
						"numberOfBytes": "32",
						"value": "t_bool"
					},
					"t_mapping(t_address,t_struct(Match)172_storage)": {
						"encoding": "mapping",
						"key": "t_address",
						"label": "mapping(address => struct userProfile.Match)",
						"numberOfBytes": "32",
						"value": "t_struct(Match)172_storage"
					},
					"t_mapping(t_address,t_struct(Mentor)158_storage)": {
						"encoding": "mapping",
						"key": "t_address",
						"label": "mapping(address => struct userProfile.Mentor)",
						"numberOfBytes": "32",
						"value": "t_struct(Mentor)158_storage"
					},
					"t_mapping(t_address,t_struct(Student)165_storage)": {
						"encoding": "mapping",
						"key": "t_address",
						"label": "mapping(address => struct userProfile.Student)",
						"numberOfBytes": "32",
						"value": "t_struct(Student)165_storage"
					},
					"t_string_storage": {
						"encoding": "bytes",
						"label": "string",
						"numberOfBytes": "32"
					},
					"t_struct(Match)172_storage": {
						"encoding": "inplace",
						"label": "struct userProfile.Match",
						"members": [
							{
								"astId": 167,
								"contract": "smartMentorship/userProfile.sol:userProfile",
								"label": "mentorAddress",
								"offset": 0,
								"slot": "0",
								"type": "t_address"
							},
							{
								"astId": 169,
								"contract": "smartMentorship/userProfile.sol:userProfile",
								"label": "studentAddress",
								"offset": 0,
								"slot": "1",
								"type": "t_address"
							},
							{
								"astId": 171,
								"contract": "smartMentorship/userProfile.sol:userProfile",
								"label": "isMatched",
								"offset": 20,
								"slot": "1",
								"type": "t_bool"
							}
						],
						"numberOfBytes": "64"
					},
					"t_struct(Mentor)158_storage": {
						"encoding": "inplace",
						"label": "struct userProfile.Mentor",
						"members": [
							{
								"astId": 153,
								"contract": "smartMentorship/userProfile.sol:userProfile",
								"label": "mentorAddress",
								"offset": 0,
								"slot": "0",
								"type": "t_address"
							},
							{
								"astId": 155,
								"contract": "smartMentorship/userProfile.sol:userProfile",
								"label": "name",
								"offset": 0,
								"slot": "1",
								"type": "t_string_storage"
							},
							{
								"astId": 157,
								"contract": "smartMentorship/userProfile.sol:userProfile",
								"label": "expertise",
								"offset": 0,
								"slot": "2",
								"type": "t_string_storage"
							}
						],
						"numberOfBytes": "96"
					},
					"t_struct(Student)165_storage": {
						"encoding": "inplace",
						"label": "struct userProfile.Student",
						"members": [
							{
								"astId": 160,
								"contract": "smartMentorship/userProfile.sol:userProfile",
								"label": "studentAddress",
								"offset": 0,
								"slot": "0",
								"type": "t_address"
							},
							{
								"astId": 162,
								"contract": "smartMentorship/userProfile.sol:userProfile",
								"label": "name",
								"offset": 0,
								"slot": "1",
								"type": "t_string_storage"
							},
							{
								"astId": 164,
								"contract": "smartMentorship/userProfile.sol:userProfile",
								"label": "interest",
								"offset": 0,
								"slot": "2",
								"type": "t_string_storage"
							}
						],
						"numberOfBytes": "96"
					}
				}
			},
			"userdoc": {
				"kind": "user",
				"methods": {},
				"version": 1
			}
		}
	}
}