{
	"data": {
		"bytecode": {
			"linkReferences": {},
			"object": "608060405234801562000010575f80fd5b5060405162001267380380620012678339818101604052810190620000369190620000e1565b805f806101000a81548173ffffffffffffffffffffffffffffffffffffffff021916908373ffffffffffffffffffffffffffffffffffffffff1602179055505062000111565b5f80fd5b5f73ffffffffffffffffffffffffffffffffffffffff82169050919050565b5f620000ab8262000080565b9050919050565b620000bd816200009f565b8114620000c8575f80fd5b50565b5f81519050620000db81620000b2565b92915050565b5f60208284031215620000f957620000f86200007c565b5b5f6200010884828501620000cb565b91505092915050565b611148806200011f5f395ff3fe608060405234801561000f575f80fd5b5060043610610055575f3560e01c80634e50c75c1461005957806352a5a7441461008d5780635e387905146100a957806382bc6ce6146100d9578063e6bb2807146100f5575b5f80fd5b610073600480360381019061006e919061076e565b610113565b6040516100849594939291906108e4565b60405180910390f35b6100a760048036038101906100a29190610a92565b610215565b005b6100c360048036038101906100be919061076e565b610374565b6040516100d09190610bd4565b60405180910390f35b6100f360048036038101906100ee9190610c17565b61051c565b005b6100fd6106bb565b60405161010a9190610c55565b60405180910390f35b6001602052805f5260405f205f91509050805f015490806001015f9054906101000a900473ffffffffffffffffffffffffffffffffffffffff1690806002015f9054906101000a900473ffffffffffffffffffffffffffffffffffffffff169080600301805461018290610c9b565b80601f01602080910402602001604051908101604052809291908181526020018280546101ae90610c9b565b80156101f95780601f106101d0576101008083540402835291602001916101f9565b820191905f5260205f20905b8154815290600101906020018083116101dc57829003601f168201915b505050505090806004015f9054906101000a900460ff16905085565b60025f81548092919061022790610cf8565b91905055505f60015f60025481526020019081526020015f209050600254815f018190555033816001015f6101000a81548173ffffffffffffffffffffffffffffffffffffffff021916908373ffffffffffffffffffffffffffffffffffffffff16021790555081816002015f6101000a81548173ffffffffffffffffffffffffffffffffffffffff021916908373ffffffffffffffffffffffffffffffffffffffff160217905550828160030190816102e19190610edc565b505f816004015f6101000a81548160ff0219169083600281111561030857610307610871565b5b02179055507fda85b2794d78f45f83374f887d13154c9e52eb6a497d769fce13326f06ceb67860025433836002015f9054906101000a900473ffffffffffffffffffffffffffffffffffffffff16866040516103679493929190610fab565b60405180910390a1505050565b61037c6106c1565b60015f8381526020019081526020015f206040518060a00160405290815f8201548152602001600182015f9054906101000a900473ffffffffffffffffffffffffffffffffffffffff1673ffffffffffffffffffffffffffffffffffffffff1673ffffffffffffffffffffffffffffffffffffffff168152602001600282015f9054906101000a900473ffffffffffffffffffffffffffffffffffffffff1673ffffffffffffffffffffffffffffffffffffffff1673ffffffffffffffffffffffffffffffffffffffff16815260200160038201805461045b90610c9b565b80601f016020809104026020016040519081016040528092919081815260200182805461048790610c9b565b80156104d25780601f106104a9576101008083540402835291602001916104d2565b820191905f5260205f20905b8154815290600101906020018083116104b557829003601f168201915b50505050508152602001600482015f9054906101000a900460ff1660028111156104ff576104fe610871565b5b600281111561051157610510610871565b5b815250509050919050565b3373ffffffffffffffffffffffffffffffffffffffff1660015f8481526020019081526020015f206001015f9054906101000a900473ffffffffffffffffffffffffffffffffffffffff1673ffffffffffffffffffffffffffffffffffffffff16146105bd576040517f08c379a00000000000000000000000000000000000000000000000000000000081526004016105b49061103f565b60405180910390fd5b5f60028111156105d0576105cf610871565b5b60015f8481526020019081526020015f206004015f9054906101000a900460ff16600281111561060357610602610871565b5b14610643576040517f08c379a000000000000000000000000000000000000000000000000000000000815260040161063a906110cd565b60405180910390fd5b8060015f8481526020019081526020015f206004015f6101000a81548160ff0219169083600281111561067957610678610871565b5b02179055507fed91da217fa10d3c57ead68f8b40f3db39243d5c1b88e7aa709cb3db2feedffa82826040516106af9291906110eb565b60405180910390a15050565b60025481565b6040518060a001604052805f81526020015f73ffffffffffffffffffffffffffffffffffffffff1681526020015f73ffffffffffffffffffffffffffffffffffffffff168152602001606081526020015f600281111561072457610723610871565b5b81525090565b5f604051905090565b5f80fd5b5f80fd5b5f819050919050565b61074d8161073b565b8114610757575f80fd5b50565b5f8135905061076881610744565b92915050565b5f6020828403121561078357610782610733565b5b5f6107908482850161075a565b91505092915050565b6107a28161073b565b82525050565b5f73ffffffffffffffffffffffffffffffffffffffff82169050919050565b5f6107d1826107a8565b9050919050565b6107e1816107c7565b82525050565b5f81519050919050565b5f82825260208201905092915050565b5f5b8381101561081e578082015181840152602081019050610803565b5f8484015250505050565b5f601f19601f8301169050919050565b5f610843826107e7565b61084d81856107f1565b935061085d818560208601610801565b61086681610829565b840191505092915050565b7f4e487b71000000000000000000000000000000000000000000000000000000005f52602160045260245ffd5b600381106108af576108ae610871565b5b50565b5f8190506108bf8261089e565b919050565b5f6108ce826108b2565b9050919050565b6108de816108c4565b82525050565b5f60a0820190506108f75f830188610799565b61090460208301876107d8565b61091160408301866107d8565b81810360608301526109238185610839565b905061093260808301846108d5565b9695505050505050565b5f80fd5b5f80fd5b7f4e487b71000000000000000000000000000000000000000000000000000000005f52604160045260245ffd5b61097a82610829565b810181811067ffffffffffffffff8211171561099957610998610944565b5b80604052505050565b5f6109ab61072a565b90506109b78282610971565b919050565b5f67ffffffffffffffff8211156109d6576109d5610944565b5b6109df82610829565b9050602081019050919050565b828183375f83830152505050565b5f610a0c610a07846109bc565b6109a2565b905082815260208101848484011115610a2857610a27610940565b5b610a338482856109ec565b509392505050565b5f82601f830112610a4f57610a4e61093c565b5b8135610a5f8482602086016109fa565b91505092915050565b610a71816107c7565b8114610a7b575f80fd5b50565b5f81359050610a8c81610a68565b92915050565b5f8060408385031215610aa857610aa7610733565b5b5f83013567ffffffffffffffff811115610ac557610ac4610737565b5b610ad185828601610a3b565b9250506020610ae285828601610a7e565b9150509250929050565b610af58161073b565b82525050565b610b04816107c7565b82525050565b5f82825260208201905092915050565b5f610b24826107e7565b610b2e8185610b0a565b9350610b3e818560208601610801565b610b4781610829565b840191505092915050565b610b5b816108c4565b82525050565b5f60a083015f830151610b765f860182610aec565b506020830151610b896020860182610afb565b506040830151610b9c6040860182610afb565b5060608301518482036060860152610bb48282610b1a565b9150506080830151610bc96080860182610b52565b508091505092915050565b5f6020820190508181035f830152610bec8184610b61565b905092915050565b60038110610c00575f80fd5b50565b5f81359050610c1181610bf4565b92915050565b5f8060408385031215610c2d57610c2c610733565b5b5f610c3a8582860161075a565b9250506020610c4b85828601610c03565b9150509250929050565b5f602082019050610c685f830184610799565b92915050565b7f4e487b71000000000000000000000000000000000000000000000000000000005f52602260045260245ffd5b5f6002820490506001821680610cb257607f821691505b602082108103610cc557610cc4610c6e565b5b50919050565b7f4e487b71000000000000000000000000000000000000000000000000000000005f52601160045260245ffd5b5f610d028261073b565b91507fffffffffffffffffffffffffffffffffffffffffffffffffffffffffffffffff8203610d3457610d33610ccb565b5b600182019050919050565b5f819050815f5260205f209050919050565b5f6020601f8301049050919050565b5f82821b905092915050565b5f60088302610d9b7fffffffffffffffffffffffffffffffffffffffffffffffffffffffffffffffff82610d60565b610da58683610d60565b95508019841693508086168417925050509392505050565b5f819050919050565b5f610de0610ddb610dd68461073b565b610dbd565b61073b565b9050919050565b5f819050919050565b610df983610dc6565b610e0d610e0582610de7565b848454610d6c565b825550505050565b5f90565b610e21610e15565b610e2c818484610df0565b505050565b5b81811015610e4f57610e445f82610e19565b600181019050610e32565b5050565b601f821115610e9457610e6581610d3f565b610e6e84610d51565b81016020851015610e7d578190505b610e91610e8985610d51565b830182610e31565b50505b505050565b5f82821c905092915050565b5f610eb45f1984600802610e99565b1980831691505092915050565b5f610ecc8383610ea5565b9150826002028217905092915050565b610ee5826107e7565b67ffffffffffffffff811115610efe57610efd610944565b5b610f088254610c9b565b610f13828285610e53565b5f60209050601f831160018114610f44575f8415610f32578287015190505b610f3c8582610ec1565b865550610fa3565b601f198416610f5286610d3f565b5f5b82811015610f7957848901518255600182019150602085019450602081019050610f54565b86831015610f965784890151610f92601f891682610ea5565b8355505b6001600288020188555050505b505050505050565b5f608082019050610fbe5f830187610799565b610fcb60208301866107d8565b610fd860408301856107d8565b8181036060830152610fea8184610839565b905095945050505050565b7f4e6f7420617574686f72697a65640000000000000000000000000000000000005f82015250565b5f611029600e836107f1565b915061103482610ff5565b602082019050919050565b5f6020820190508181035f8301526110568161101d565b9050919050565b7f41737369676e6d656e74207374617475732063616e6e6f7420626520757064615f8201527f7465640000000000000000000000000000000000000000000000000000000000602082015250565b5f6110b76023836107f1565b91506110c28261105d565b604082019050919050565b5f6020820190508181035f8301526110e4816110ab565b9050919050565b5f6040820190506110fe5f830185610799565b61110b60208301846108d5565b939250505056fea2646970667358221220a3ffd8bf1c07acb3f9ad842abbebe6909a1b67e074a5bceead3229a2a463348864736f6c63430008160033",
			"opcodes": "PUSH1 0x80 PUSH1 0x40 MSTORE CALLVALUE DUP1 ISZERO PUSH3 0x10 JUMPI PUSH0 DUP1 REVERT JUMPDEST POP PUSH1 0x40 MLOAD PUSH3 0x1267 CODESIZE SUB DUP1 PUSH3 0x1267 DUP4 CODECOPY DUP2 DUP2 ADD PUSH1 0x40 MSTORE DUP2 ADD SWAP1 PUSH3 0x36 SWAP2 SWAP1 PUSH3 0xE1 JUMP JUMPDEST DUP1 PUSH0 DUP1 PUSH2 0x100 EXP DUP2 SLOAD DUP2 PUSH20 0xFFFFFFFFFFFFFFFFFFFFFFFFFFFFFFFFFFFFFFFF MUL NOT AND SWAP1 DUP4 PUSH20 0xFFFFFFFFFFFFFFFFFFFFFFFFFFFFFFFFFFFFFFFF AND MUL OR SWAP1 SSTORE POP POP PUSH3 0x111 JUMP JUMPDEST PUSH0 DUP1 REVERT JUMPDEST PUSH0 PUSH20 0xFFFFFFFFFFFFFFFFFFFFFFFFFFFFFFFFFFFFFFFF DUP3 AND SWAP1 POP SWAP2 SWAP1 POP JUMP JUMPDEST PUSH0 PUSH3 0xAB DUP3 PUSH3 0x80 JUMP JUMPDEST SWAP1 POP SWAP2 SWAP1 POP JUMP JUMPDEST PUSH3 0xBD DUP2 PUSH3 0x9F JUMP JUMPDEST DUP2 EQ PUSH3 0xC8 JUMPI PUSH0 DUP1 REVERT JUMPDEST POP JUMP JUMPDEST PUSH0 DUP2 MLOAD SWAP1 POP PUSH3 0xDB DUP2 PUSH3 0xB2 JUMP JUMPDEST SWAP3 SWAP2 POP POP JUMP JUMPDEST PUSH0 PUSH1 0x20 DUP3 DUP5 SUB SLT ISZERO PUSH3 0xF9 JUMPI PUSH3 0xF8 PUSH3 0x7C JUMP JUMPDEST JUMPDEST PUSH0 PUSH3 0x108 DUP5 DUP3 DUP6 ADD PUSH3 0xCB JUMP JUMPDEST SWAP2 POP POP SWAP3 SWAP2 POP POP JUMP JUMPDEST PUSH2 0x1148 DUP1 PUSH3 0x11F PUSH0 CODECOPY PUSH0 RETURN INVALID PUSH1 0x80 PUSH1 0x40 MSTORE CALLVALUE DUP1 ISZERO PUSH2 0xF JUMPI PUSH0 DUP1 REVERT JUMPDEST POP PUSH1 0x4 CALLDATASIZE LT PUSH2 0x55 JUMPI PUSH0 CALLDATALOAD PUSH1 0xE0 SHR DUP1 PUSH4 0x4E50C75C EQ PUSH2 0x59 JUMPI DUP1 PUSH4 0x52A5A744 EQ PUSH2 0x8D JUMPI DUP1 PUSH4 0x5E387905 EQ PUSH2 0xA9 JUMPI DUP1 PUSH4 0x82BC6CE6 EQ PUSH2 0xD9 JUMPI DUP1 PUSH4 0xE6BB2807 EQ PUSH2 0xF5 JUMPI JUMPDEST PUSH0 DUP1 REVERT JUMPDEST PUSH2 0x73 PUSH1 0x4 DUP1 CALLDATASIZE SUB DUP2 ADD SWAP1 PUSH2 0x6E SWAP2 SWAP1 PUSH2 0x76E JUMP JUMPDEST PUSH2 0x113 JUMP JUMPDEST PUSH1 0x40 MLOAD PUSH2 0x84 SWAP6 SWAP5 SWAP4 SWAP3 SWAP2 SWAP1 PUSH2 0x8E4 JUMP JUMPDEST PUSH1 0x40 MLOAD DUP1 SWAP2 SUB SWAP1 RETURN JUMPDEST PUSH2 0xA7 PUSH1 0x4 DUP1 CALLDATASIZE SUB DUP2 ADD SWAP1 PUSH2 0xA2 SWAP2 SWAP1 PUSH2 0xA92 JUMP JUMPDEST PUSH2 0x215 JUMP JUMPDEST STOP JUMPDEST PUSH2 0xC3 PUSH1 0x4 DUP1 CALLDATASIZE SUB DUP2 ADD SWAP1 PUSH2 0xBE SWAP2 SWAP1 PUSH2 0x76E JUMP JUMPDEST PUSH2 0x374 JUMP JUMPDEST PUSH1 0x40 MLOAD PUSH2 0xD0 SWAP2 SWAP1 PUSH2 0xBD4 JUMP JUMPDEST PUSH1 0x40 MLOAD DUP1 SWAP2 SUB SWAP1 RETURN JUMPDEST PUSH2 0xF3 PUSH1 0x4 DUP1 CALLDATASIZE SUB DUP2 ADD SWAP1 PUSH2 0xEE SWAP2 SWAP1 PUSH2 0xC17 JUMP JUMPDEST PUSH2 0x51C JUMP JUMPDEST STOP JUMPDEST PUSH2 0xFD PUSH2 0x6BB JUMP JUMPDEST PUSH1 0x40 MLOAD PUSH2 0x10A SWAP2 SWAP1 PUSH2 0xC55 JUMP JUMPDEST PUSH1 0x40 MLOAD DUP1 SWAP2 SUB SWAP1 RETURN JUMPDEST PUSH1 0x1 PUSH1 0x20 MSTORE DUP1 PUSH0 MSTORE PUSH1 0x40 PUSH0 KECCAK256 PUSH0 SWAP2 POP SWAP1 POP DUP1 PUSH0 ADD SLOAD SWAP1 DUP1 PUSH1 0x1 ADD PUSH0 SWAP1 SLOAD SWAP1 PUSH2 0x100 EXP SWAP1 DIV PUSH20 0xFFFFFFFFFFFFFFFFFFFFFFFFFFFFFFFFFFFFFFFF AND SWAP1 DUP1 PUSH1 0x2 ADD PUSH0 SWAP1 SLOAD SWAP1 PUSH2 0x100 EXP SWAP1 DIV PUSH20 0xFFFFFFFFFFFFFFFFFFFFFFFFFFFFFFFFFFFFFFFF AND SWAP1 DUP1 PUSH1 0x3 ADD DUP1 SLOAD PUSH2 0x182 SWAP1 PUSH2 0xC9B JUMP JUMPDEST DUP1 PUSH1 0x1F ADD PUSH1 0x20 DUP1 SWAP2 DIV MUL PUSH1 0x20 ADD PUSH1 0x40 MLOAD SWAP1 DUP2 ADD PUSH1 0x40 MSTORE DUP1 SWAP3 SWAP2 SWAP1 DUP2 DUP2 MSTORE PUSH1 0x20 ADD DUP3 DUP1 SLOAD PUSH2 0x1AE SWAP1 PUSH2 0xC9B JUMP JUMPDEST DUP1 ISZERO PUSH2 0x1F9 JUMPI DUP1 PUSH1 0x1F LT PUSH2 0x1D0 JUMPI PUSH2 0x100 DUP1 DUP4 SLOAD DIV MUL DUP4 MSTORE SWAP2 PUSH1 0x20 ADD SWAP2 PUSH2 0x1F9 JUMP JUMPDEST DUP3 ADD SWAP2 SWAP1 PUSH0 MSTORE PUSH1 0x20 PUSH0 KECCAK256 SWAP1 JUMPDEST DUP2 SLOAD DUP2 MSTORE SWAP1 PUSH1 0x1 ADD SWAP1 PUSH1 0x20 ADD DUP1 DUP4 GT PUSH2 0x1DC JUMPI DUP3 SWAP1 SUB PUSH1 0x1F AND DUP3 ADD SWAP2 JUMPDEST POP POP POP POP POP SWAP1 DUP1 PUSH1 0x4 ADD PUSH0 SWAP1 SLOAD SWAP1 PUSH2 0x100 EXP SWAP1 DIV PUSH1 0xFF AND SWAP1 POP DUP6 JUMP JUMPDEST PUSH1 0x2 PUSH0 DUP2 SLOAD DUP1 SWAP3 SWAP2 SWAP1 PUSH2 0x227 SWAP1 PUSH2 0xCF8 JUMP JUMPDEST SWAP2 SWAP1 POP SSTORE POP PUSH0 PUSH1 0x1 PUSH0 PUSH1 0x2 SLOAD DUP2 MSTORE PUSH1 0x20 ADD SWAP1 DUP2 MSTORE PUSH1 0x20 ADD PUSH0 KECCAK256 SWAP1 POP PUSH1 0x2 SLOAD DUP2 PUSH0 ADD DUP2 SWAP1 SSTORE POP CALLER DUP2 PUSH1 0x1 ADD PUSH0 PUSH2 0x100 EXP DUP2 SLOAD DUP2 PUSH20 0xFFFFFFFFFFFFFFFFFFFFFFFFFFFFFFFFFFFFFFFF MUL NOT AND SWAP1 DUP4 PUSH20 0xFFFFFFFFFFFFFFFFFFFFFFFFFFFFFFFFFFFFFFFF AND MUL OR SWAP1 SSTORE POP DUP2 DUP2 PUSH1 0x2 ADD PUSH0 PUSH2 0x100 EXP DUP2 SLOAD DUP2 PUSH20 0xFFFFFFFFFFFFFFFFFFFFFFFFFFFFFFFFFFFFFFFF MUL NOT AND SWAP1 DUP4 PUSH20 0xFFFFFFFFFFFFFFFFFFFFFFFFFFFFFFFFFFFFFFFF AND MUL OR SWAP1 SSTORE POP DUP3 DUP2 PUSH1 0x3 ADD SWAP1 DUP2 PUSH2 0x2E1 SWAP2 SWAP1 PUSH2 0xEDC JUMP JUMPDEST POP PUSH0 DUP2 PUSH1 0x4 ADD PUSH0 PUSH2 0x100 EXP DUP2 SLOAD DUP2 PUSH1 0xFF MUL NOT AND SWAP1 DUP4 PUSH1 0x2 DUP2 GT ISZERO PUSH2 0x308 JUMPI PUSH2 0x307 PUSH2 0x871 JUMP JUMPDEST JUMPDEST MUL OR SWAP1 SSTORE POP PUSH32 0xDA85B2794D78F45F83374F887D13154C9E52EB6A497D769FCE13326F06CEB678 PUSH1 0x2 SLOAD CALLER DUP4 PUSH1 0x2 ADD PUSH0 SWAP1 SLOAD SWAP1 PUSH2 0x100 EXP SWAP1 DIV PUSH20 0xFFFFFFFFFFFFFFFFFFFFFFFFFFFFFFFFFFFFFFFF AND DUP7 PUSH1 0x40 MLOAD PUSH2 0x367 SWAP5 SWAP4 SWAP3 SWAP2 SWAP1 PUSH2 0xFAB JUMP JUMPDEST PUSH1 0x40 MLOAD DUP1 SWAP2 SUB SWAP1 LOG1 POP POP POP JUMP JUMPDEST PUSH2 0x37C PUSH2 0x6C1 JUMP JUMPDEST PUSH1 0x1 PUSH0 DUP4 DUP2 MSTORE PUSH1 0x20 ADD SWAP1 DUP2 MSTORE PUSH1 0x20 ADD PUSH0 KECCAK256 PUSH1 0x40 MLOAD DUP1 PUSH1 0xA0 ADD PUSH1 0x40 MSTORE SWAP1 DUP2 PUSH0 DUP3 ADD SLOAD DUP2 MSTORE PUSH1 0x20 ADD PUSH1 0x1 DUP3 ADD PUSH0 SWAP1 SLOAD SWAP1 PUSH2 0x100 EXP SWAP1 DIV PUSH20 0xFFFFFFFFFFFFFFFFFFFFFFFFFFFFFFFFFFFFFFFF AND PUSH20 0xFFFFFFFFFFFFFFFFFFFFFFFFFFFFFFFFFFFFFFFF AND PUSH20 0xFFFFFFFFFFFFFFFFFFFFFFFFFFFFFFFFFFFFFFFF AND DUP2 MSTORE PUSH1 0x20 ADD PUSH1 0x2 DUP3 ADD PUSH0 SWAP1 SLOAD SWAP1 PUSH2 0x100 EXP SWAP1 DIV PUSH20 0xFFFFFFFFFFFFFFFFFFFFFFFFFFFFFFFFFFFFFFFF AND PUSH20 0xFFFFFFFFFFFFFFFFFFFFFFFFFFFFFFFFFFFFFFFF AND PUSH20 0xFFFFFFFFFFFFFFFFFFFFFFFFFFFFFFFFFFFFFFFF AND DUP2 MSTORE PUSH1 0x20 ADD PUSH1 0x3 DUP3 ADD DUP1 SLOAD PUSH2 0x45B SWAP1 PUSH2 0xC9B JUMP JUMPDEST DUP1 PUSH1 0x1F ADD PUSH1 0x20 DUP1 SWAP2 DIV MUL PUSH1 0x20 ADD PUSH1 0x40 MLOAD SWAP1 DUP2 ADD PUSH1 0x40 MSTORE DUP1 SWAP3 SWAP2 SWAP1 DUP2 DUP2 MSTORE PUSH1 0x20 ADD DUP3 DUP1 SLOAD PUSH2 0x487 SWAP1 PUSH2 0xC9B JUMP JUMPDEST DUP1 ISZERO PUSH2 0x4D2 JUMPI DUP1 PUSH1 0x1F LT PUSH2 0x4A9 JUMPI PUSH2 0x100 DUP1 DUP4 SLOAD DIV MUL DUP4 MSTORE SWAP2 PUSH1 0x20 ADD SWAP2 PUSH2 0x4D2 JUMP JUMPDEST DUP3 ADD SWAP2 SWAP1 PUSH0 MSTORE PUSH1 0x20 PUSH0 KECCAK256 SWAP1 JUMPDEST DUP2 SLOAD DUP2 MSTORE SWAP1 PUSH1 0x1 ADD SWAP1 PUSH1 0x20 ADD DUP1 DUP4 GT PUSH2 0x4B5 JUMPI DUP3 SWAP1 SUB PUSH1 0x1F AND DUP3 ADD SWAP2 JUMPDEST POP POP POP POP POP DUP2 MSTORE PUSH1 0x20 ADD PUSH1 0x4 DUP3 ADD PUSH0 SWAP1 SLOAD SWAP1 PUSH2 0x100 EXP SWAP1 DIV PUSH1 0xFF AND PUSH1 0x2 DUP2 GT ISZERO PUSH2 0x4FF JUMPI PUSH2 0x4FE PUSH2 0x871 JUMP JUMPDEST JUMPDEST PUSH1 0x2 DUP2 GT ISZERO PUSH2 0x511 JUMPI PUSH2 0x510 PUSH2 0x871 JUMP JUMPDEST JUMPDEST DUP2 MSTORE POP POP SWAP1 POP SWAP2 SWAP1 POP JUMP JUMPDEST CALLER PUSH20 0xFFFFFFFFFFFFFFFFFFFFFFFFFFFFFFFFFFFFFFFF AND PUSH1 0x1 PUSH0 DUP5 DUP2 MSTORE PUSH1 0x20 ADD SWAP1 DUP2 MSTORE PUSH1 0x20 ADD PUSH0 KECCAK256 PUSH1 0x1 ADD PUSH0 SWAP1 SLOAD SWAP1 PUSH2 0x100 EXP SWAP1 DIV PUSH20 0xFFFFFFFFFFFFFFFFFFFFFFFFFFFFFFFFFFFFFFFF AND PUSH20 0xFFFFFFFFFFFFFFFFFFFFFFFFFFFFFFFFFFFFFFFF AND EQ PUSH2 0x5BD JUMPI PUSH1 0x40 MLOAD PUSH32 0x8C379A000000000000000000000000000000000000000000000000000000000 DUP2 MSTORE PUSH1 0x4 ADD PUSH2 0x5B4 SWAP1 PUSH2 0x103F JUMP JUMPDEST PUSH1 0x40 MLOAD DUP1 SWAP2 SUB SWAP1 REVERT JUMPDEST PUSH0 PUSH1 0x2 DUP2 GT ISZERO PUSH2 0x5D0 JUMPI PUSH2 0x5CF PUSH2 0x871 JUMP JUMPDEST JUMPDEST PUSH1 0x1 PUSH0 DUP5 DUP2 MSTORE PUSH1 0x20 ADD SWAP1 DUP2 MSTORE PUSH1 0x20 ADD PUSH0 KECCAK256 PUSH1 0x4 ADD PUSH0 SWAP1 SLOAD SWAP1 PUSH2 0x100 EXP SWAP1 DIV PUSH1 0xFF AND PUSH1 0x2 DUP2 GT ISZERO PUSH2 0x603 JUMPI PUSH2 0x602 PUSH2 0x871 JUMP JUMPDEST JUMPDEST EQ PUSH2 0x643 JUMPI PUSH1 0x40 MLOAD PUSH32 0x8C379A000000000000000000000000000000000000000000000000000000000 DUP2 MSTORE PUSH1 0x4 ADD PUSH2 0x63A SWAP1 PUSH2 0x10CD JUMP JUMPDEST PUSH1 0x40 MLOAD DUP1 SWAP2 SUB SWAP1 REVERT JUMPDEST DUP1 PUSH1 0x1 PUSH0 DUP5 DUP2 MSTORE PUSH1 0x20 ADD SWAP1 DUP2 MSTORE PUSH1 0x20 ADD PUSH0 KECCAK256 PUSH1 0x4 ADD PUSH0 PUSH2 0x100 EXP DUP2 SLOAD DUP2 PUSH1 0xFF MUL NOT AND SWAP1 DUP4 PUSH1 0x2 DUP2 GT ISZERO PUSH2 0x679 JUMPI PUSH2 0x678 PUSH2 0x871 JUMP JUMPDEST JUMPDEST MUL OR SWAP1 SSTORE POP PUSH32 0xED91DA217FA10D3C57EAD68F8B40F3DB39243D5C1B88E7AA709CB3DB2FEEDFFA DUP3 DUP3 PUSH1 0x40 MLOAD PUSH2 0x6AF SWAP3 SWAP2 SWAP1 PUSH2 0x10EB JUMP JUMPDEST PUSH1 0x40 MLOAD DUP1 SWAP2 SUB SWAP1 LOG1 POP POP JUMP JUMPDEST PUSH1 0x2 SLOAD DUP2 JUMP JUMPDEST PUSH1 0x40 MLOAD DUP1 PUSH1 0xA0 ADD PUSH1 0x40 MSTORE DUP1 PUSH0 DUP2 MSTORE PUSH1 0x20 ADD PUSH0 PUSH20 0xFFFFFFFFFFFFFFFFFFFFFFFFFFFFFFFFFFFFFFFF AND DUP2 MSTORE PUSH1 0x20 ADD PUSH0 PUSH20 0xFFFFFFFFFFFFFFFFFFFFFFFFFFFFFFFFFFFFFFFF AND DUP2 MSTORE PUSH1 0x20 ADD PUSH1 0x60 DUP2 MSTORE PUSH1 0x20 ADD PUSH0 PUSH1 0x2 DUP2 GT ISZERO PUSH2 0x724 JUMPI PUSH2 0x723 PUSH2 0x871 JUMP JUMPDEST JUMPDEST DUP2 MSTORE POP SWAP1 JUMP JUMPDEST PUSH0 PUSH1 0x40 MLOAD SWAP1 POP SWAP1 JUMP JUMPDEST PUSH0 DUP1 REVERT JUMPDEST PUSH0 DUP1 REVERT JUMPDEST PUSH0 DUP2 SWAP1 POP SWAP2 SWAP1 POP JUMP JUMPDEST PUSH2 0x74D DUP2 PUSH2 0x73B JUMP JUMPDEST DUP2 EQ PUSH2 0x757 JUMPI PUSH0 DUP1 REVERT JUMPDEST POP JUMP JUMPDEST PUSH0 DUP2 CALLDATALOAD SWAP1 POP PUSH2 0x768 DUP2 PUSH2 0x744 JUMP JUMPDEST SWAP3 SWAP2 POP POP JUMP JUMPDEST PUSH0 PUSH1 0x20 DUP3 DUP5 SUB SLT ISZERO PUSH2 0x783 JUMPI PUSH2 0x782 PUSH2 0x733 JUMP JUMPDEST JUMPDEST PUSH0 PUSH2 0x790 DUP5 DUP3 DUP6 ADD PUSH2 0x75A JUMP JUMPDEST SWAP2 POP POP SWAP3 SWAP2 POP POP JUMP JUMPDEST PUSH2 0x7A2 DUP2 PUSH2 0x73B JUMP JUMPDEST DUP3 MSTORE POP POP JUMP JUMPDEST PUSH0 PUSH20 0xFFFFFFFFFFFFFFFFFFFFFFFFFFFFFFFFFFFFFFFF DUP3 AND SWAP1 POP SWAP2 SWAP1 POP JUMP JUMPDEST PUSH0 PUSH2 0x7D1 DUP3 PUSH2 0x7A8 JUMP JUMPDEST SWAP1 POP SWAP2 SWAP1 POP JUMP JUMPDEST PUSH2 0x7E1 DUP2 PUSH2 0x7C7 JUMP JUMPDEST DUP3 MSTORE POP POP JUMP JUMPDEST PUSH0 DUP2 MLOAD SWAP1 POP SWAP2 SWAP1 POP JUMP JUMPDEST PUSH0 DUP3 DUP3 MSTORE PUSH1 0x20 DUP3 ADD SWAP1 POP SWAP3 SWAP2 POP POP JUMP JUMPDEST PUSH0 JUMPDEST DUP4 DUP2 LT ISZERO PUSH2 0x81E JUMPI DUP1 DUP3 ADD MLOAD DUP2 DUP5 ADD MSTORE PUSH1 0x20 DUP2 ADD SWAP1 POP PUSH2 0x803 JUMP JUMPDEST PUSH0 DUP5 DUP5 ADD MSTORE POP POP POP POP JUMP JUMPDEST PUSH0 PUSH1 0x1F NOT PUSH1 0x1F DUP4 ADD AND SWAP1 POP SWAP2 SWAP1 POP JUMP JUMPDEST PUSH0 PUSH2 0x843 DUP3 PUSH2 0x7E7 JUMP JUMPDEST PUSH2 0x84D DUP2 DUP6 PUSH2 0x7F1 JUMP JUMPDEST SWAP4 POP PUSH2 0x85D DUP2 DUP6 PUSH1 0x20 DUP7 ADD PUSH2 0x801 JUMP JUMPDEST PUSH2 0x866 DUP2 PUSH2 0x829 JUMP JUMPDEST DUP5 ADD SWAP2 POP POP SWAP3 SWAP2 POP POP JUMP JUMPDEST PUSH32 0x4E487B7100000000000000000000000000000000000000000000000000000000 PUSH0 MSTORE PUSH1 0x21 PUSH1 0x4 MSTORE PUSH1 0x24 PUSH0 REVERT JUMPDEST PUSH1 0x3 DUP2 LT PUSH2 0x8AF JUMPI PUSH2 0x8AE PUSH2 0x871 JUMP JUMPDEST JUMPDEST POP JUMP JUMPDEST PUSH0 DUP2 SWAP1 POP PUSH2 0x8BF DUP3 PUSH2 0x89E JUMP JUMPDEST SWAP2 SWAP1 POP JUMP JUMPDEST PUSH0 PUSH2 0x8CE DUP3 PUSH2 0x8B2 JUMP JUMPDEST SWAP1 POP SWAP2 SWAP1 POP JUMP JUMPDEST PUSH2 0x8DE DUP2 PUSH2 0x8C4 JUMP JUMPDEST DUP3 MSTORE POP POP JUMP JUMPDEST PUSH0 PUSH1 0xA0 DUP3 ADD SWAP1 POP PUSH2 0x8F7 PUSH0 DUP4 ADD DUP9 PUSH2 0x799 JUMP JUMPDEST PUSH2 0x904 PUSH1 0x20 DUP4 ADD DUP8 PUSH2 0x7D8 JUMP JUMPDEST PUSH2 0x911 PUSH1 0x40 DUP4 ADD DUP7 PUSH2 0x7D8 JUMP JUMPDEST DUP2 DUP2 SUB PUSH1 0x60 DUP4 ADD MSTORE PUSH2 0x923 DUP2 DUP6 PUSH2 0x839 JUMP JUMPDEST SWAP1 POP PUSH2 0x932 PUSH1 0x80 DUP4 ADD DUP5 PUSH2 0x8D5 JUMP JUMPDEST SWAP7 SWAP6 POP POP POP POP POP POP JUMP JUMPDEST PUSH0 DUP1 REVERT JUMPDEST PUSH0 DUP1 REVERT JUMPDEST PUSH32 0x4E487B7100000000000000000000000000000000000000000000000000000000 PUSH0 MSTORE PUSH1 0x41 PUSH1 0x4 MSTORE PUSH1 0x24 PUSH0 REVERT JUMPDEST PUSH2 0x97A DUP3 PUSH2 0x829 JUMP JUMPDEST DUP2 ADD DUP2 DUP2 LT PUSH8 0xFFFFFFFFFFFFFFFF DUP3 GT OR ISZERO PUSH2 0x999 JUMPI PUSH2 0x998 PUSH2 0x944 JUMP JUMPDEST JUMPDEST DUP1 PUSH1 0x40 MSTORE POP POP POP JUMP JUMPDEST PUSH0 PUSH2 0x9AB PUSH2 0x72A JUMP JUMPDEST SWAP1 POP PUSH2 0x9B7 DUP3 DUP3 PUSH2 0x971 JUMP JUMPDEST SWAP2 SWAP1 POP JUMP JUMPDEST PUSH0 PUSH8 0xFFFFFFFFFFFFFFFF DUP3 GT ISZERO PUSH2 0x9D6 JUMPI PUSH2 0x9D5 PUSH2 0x944 JUMP JUMPDEST JUMPDEST PUSH2 0x9DF DUP3 PUSH2 0x829 JUMP JUMPDEST SWAP1 POP PUSH1 0x20 DUP2 ADD SWAP1 POP SWAP2 SWAP1 POP JUMP JUMPDEST DUP3 DUP2 DUP4 CALLDATACOPY PUSH0 DUP4 DUP4 ADD MSTORE POP POP POP JUMP JUMPDEST PUSH0 PUSH2 0xA0C PUSH2 0xA07 DUP5 PUSH2 0x9BC JUMP JUMPDEST PUSH2 0x9A2 JUMP JUMPDEST SWAP1 POP DUP3 DUP2 MSTORE PUSH1 0x20 DUP2 ADD DUP5 DUP5 DUP5 ADD GT ISZERO PUSH2 0xA28 JUMPI PUSH2 0xA27 PUSH2 0x940 JUMP JUMPDEST JUMPDEST PUSH2 0xA33 DUP5 DUP3 DUP6 PUSH2 0x9EC JUMP JUMPDEST POP SWAP4 SWAP3 POP POP POP JUMP JUMPDEST PUSH0 DUP3 PUSH1 0x1F DUP4 ADD SLT PUSH2 0xA4F JUMPI PUSH2 0xA4E PUSH2 0x93C JUMP JUMPDEST JUMPDEST DUP2 CALLDATALOAD PUSH2 0xA5F DUP5 DUP3 PUSH1 0x20 DUP7 ADD PUSH2 0x9FA JUMP JUMPDEST SWAP2 POP POP SWAP3 SWAP2 POP POP JUMP JUMPDEST PUSH2 0xA71 DUP2 PUSH2 0x7C7 JUMP JUMPDEST DUP2 EQ PUSH2 0xA7B JUMPI PUSH0 DUP1 REVERT JUMPDEST POP JUMP JUMPDEST PUSH0 DUP2 CALLDATALOAD SWAP1 POP PUSH2 0xA8C DUP2 PUSH2 0xA68 JUMP JUMPDEST SWAP3 SWAP2 POP POP JUMP JUMPDEST PUSH0 DUP1 PUSH1 0x40 DUP4 DUP6 SUB SLT ISZERO PUSH2 0xAA8 JUMPI PUSH2 0xAA7 PUSH2 0x733 JUMP JUMPDEST JUMPDEST PUSH0 DUP4 ADD CALLDATALOAD PUSH8 0xFFFFFFFFFFFFFFFF DUP2 GT ISZERO PUSH2 0xAC5 JUMPI PUSH2 0xAC4 PUSH2 0x737 JUMP JUMPDEST JUMPDEST PUSH2 0xAD1 DUP6 DUP3 DUP7 ADD PUSH2 0xA3B JUMP JUMPDEST SWAP3 POP POP PUSH1 0x20 PUSH2 0xAE2 DUP6 DUP3 DUP7 ADD PUSH2 0xA7E JUMP JUMPDEST SWAP2 POP POP SWAP3 POP SWAP3 SWAP1 POP JUMP JUMPDEST PUSH2 0xAF5 DUP2 PUSH2 0x73B JUMP JUMPDEST DUP3 MSTORE POP POP JUMP JUMPDEST PUSH2 0xB04 DUP2 PUSH2 0x7C7 JUMP JUMPDEST DUP3 MSTORE POP POP JUMP JUMPDEST PUSH0 DUP3 DUP3 MSTORE PUSH1 0x20 DUP3 ADD SWAP1 POP SWAP3 SWAP2 POP POP JUMP JUMPDEST PUSH0 PUSH2 0xB24 DUP3 PUSH2 0x7E7 JUMP JUMPDEST PUSH2 0xB2E DUP2 DUP6 PUSH2 0xB0A JUMP JUMPDEST SWAP4 POP PUSH2 0xB3E DUP2 DUP6 PUSH1 0x20 DUP7 ADD PUSH2 0x801 JUMP JUMPDEST PUSH2 0xB47 DUP2 PUSH2 0x829 JUMP JUMPDEST DUP5 ADD SWAP2 POP POP SWAP3 SWAP2 POP POP JUMP JUMPDEST PUSH2 0xB5B DUP2 PUSH2 0x8C4 JUMP JUMPDEST DUP3 MSTORE POP POP JUMP JUMPDEST PUSH0 PUSH1 0xA0 DUP4 ADD PUSH0 DUP4 ADD MLOAD PUSH2 0xB76 PUSH0 DUP7 ADD DUP3 PUSH2 0xAEC JUMP JUMPDEST POP PUSH1 0x20 DUP4 ADD MLOAD PUSH2 0xB89 PUSH1 0x20 DUP7 ADD DUP3 PUSH2 0xAFB JUMP JUMPDEST POP PUSH1 0x40 DUP4 ADD MLOAD PUSH2 0xB9C PUSH1 0x40 DUP7 ADD DUP3 PUSH2 0xAFB JUMP JUMPDEST POP PUSH1 0x60 DUP4 ADD MLOAD DUP5 DUP3 SUB PUSH1 0x60 DUP7 ADD MSTORE PUSH2 0xBB4 DUP3 DUP3 PUSH2 0xB1A JUMP JUMPDEST SWAP2 POP POP PUSH1 0x80 DUP4 ADD MLOAD PUSH2 0xBC9 PUSH1 0x80 DUP7 ADD DUP3 PUSH2 0xB52 JUMP JUMPDEST POP DUP1 SWAP2 POP POP SWAP3 SWAP2 POP POP JUMP JUMPDEST PUSH0 PUSH1 0x20 DUP3 ADD SWAP1 POP DUP2 DUP2 SUB PUSH0 DUP4 ADD MSTORE PUSH2 0xBEC DUP2 DUP5 PUSH2 0xB61 JUMP JUMPDEST SWAP1 POP SWAP3 SWAP2 POP POP JUMP JUMPDEST PUSH1 0x3 DUP2 LT PUSH2 0xC00 JUMPI PUSH0 DUP1 REVERT JUMPDEST POP JUMP JUMPDEST PUSH0 DUP2 CALLDATALOAD SWAP1 POP PUSH2 0xC11 DUP2 PUSH2 0xBF4 JUMP JUMPDEST SWAP3 SWAP2 POP POP JUMP JUMPDEST PUSH0 DUP1 PUSH1 0x40 DUP4 DUP6 SUB SLT ISZERO PUSH2 0xC2D JUMPI PUSH2 0xC2C PUSH2 0x733 JUMP JUMPDEST JUMPDEST PUSH0 PUSH2 0xC3A DUP6 DUP3 DUP7 ADD PUSH2 0x75A JUMP JUMPDEST SWAP3 POP POP PUSH1 0x20 PUSH2 0xC4B DUP6 DUP3 DUP7 ADD PUSH2 0xC03 JUMP JUMPDEST SWAP2 POP POP SWAP3 POP SWAP3 SWAP1 POP JUMP JUMPDEST PUSH0 PUSH1 0x20 DUP3 ADD SWAP1 POP PUSH2 0xC68 PUSH0 DUP4 ADD DUP5 PUSH2 0x799 JUMP JUMPDEST SWAP3 SWAP2 POP POP JUMP JUMPDEST PUSH32 0x4E487B7100000000000000000000000000000000000000000000000000000000 PUSH0 MSTORE PUSH1 0x22 PUSH1 0x4 MSTORE PUSH1 0x24 PUSH0 REVERT JUMPDEST PUSH0 PUSH1 0x2 DUP3 DIV SWAP1 POP PUSH1 0x1 DUP3 AND DUP1 PUSH2 0xCB2 JUMPI PUSH1 0x7F DUP3 AND SWAP2 POP JUMPDEST PUSH1 0x20 DUP3 LT DUP2 SUB PUSH2 0xCC5 JUMPI PUSH2 0xCC4 PUSH2 0xC6E JUMP JUMPDEST JUMPDEST POP SWAP2 SWAP1 POP JUMP JUMPDEST PUSH32 0x4E487B7100000000000000000000000000000000000000000000000000000000 PUSH0 MSTORE PUSH1 0x11 PUSH1 0x4 MSTORE PUSH1 0x24 PUSH0 REVERT JUMPDEST PUSH0 PUSH2 0xD02 DUP3 PUSH2 0x73B JUMP JUMPDEST SWAP2 POP PUSH32 0xFFFFFFFFFFFFFFFFFFFFFFFFFFFFFFFFFFFFFFFFFFFFFFFFFFFFFFFFFFFFFFFF DUP3 SUB PUSH2 0xD34 JUMPI PUSH2 0xD33 PUSH2 0xCCB JUMP JUMPDEST JUMPDEST PUSH1 0x1 DUP3 ADD SWAP1 POP SWAP2 SWAP1 POP JUMP JUMPDEST PUSH0 DUP2 SWAP1 POP DUP2 PUSH0 MSTORE PUSH1 0x20 PUSH0 KECCAK256 SWAP1 POP SWAP2 SWAP1 POP JUMP JUMPDEST PUSH0 PUSH1 0x20 PUSH1 0x1F DUP4 ADD DIV SWAP1 POP SWAP2 SWAP1 POP JUMP JUMPDEST PUSH0 DUP3 DUP3 SHL SWAP1 POP SWAP3 SWAP2 POP POP JUMP JUMPDEST PUSH0 PUSH1 0x8 DUP4 MUL PUSH2 0xD9B PUSH32 0xFFFFFFFFFFFFFFFFFFFFFFFFFFFFFFFFFFFFFFFFFFFFFFFFFFFFFFFFFFFFFFFF DUP3 PUSH2 0xD60 JUMP JUMPDEST PUSH2 0xDA5 DUP7 DUP4 PUSH2 0xD60 JUMP JUMPDEST SWAP6 POP DUP1 NOT DUP5 AND SWAP4 POP DUP1 DUP7 AND DUP5 OR SWAP3 POP POP POP SWAP4 SWAP3 POP POP POP JUMP JUMPDEST PUSH0 DUP2 SWAP1 POP SWAP2 SWAP1 POP JUMP JUMPDEST PUSH0 PUSH2 0xDE0 PUSH2 0xDDB PUSH2 0xDD6 DUP5 PUSH2 0x73B JUMP JUMPDEST PUSH2 0xDBD JUMP JUMPDEST PUSH2 0x73B JUMP JUMPDEST SWAP1 POP SWAP2 SWAP1 POP JUMP JUMPDEST PUSH0 DUP2 SWAP1 POP SWAP2 SWAP1 POP JUMP JUMPDEST PUSH2 0xDF9 DUP4 PUSH2 0xDC6 JUMP JUMPDEST PUSH2 0xE0D PUSH2 0xE05 DUP3 PUSH2 0xDE7 JUMP JUMPDEST DUP5 DUP5 SLOAD PUSH2 0xD6C JUMP JUMPDEST DUP3 SSTORE POP POP POP POP JUMP JUMPDEST PUSH0 SWAP1 JUMP JUMPDEST PUSH2 0xE21 PUSH2 0xE15 JUMP JUMPDEST PUSH2 0xE2C DUP2 DUP5 DUP5 PUSH2 0xDF0 JUMP JUMPDEST POP POP POP JUMP JUMPDEST JUMPDEST DUP2 DUP2 LT ISZERO PUSH2 0xE4F JUMPI PUSH2 0xE44 PUSH0 DUP3 PUSH2 0xE19 JUMP JUMPDEST PUSH1 0x1 DUP2 ADD SWAP1 POP PUSH2 0xE32 JUMP JUMPDEST POP POP JUMP JUMPDEST PUSH1 0x1F DUP3 GT ISZERO PUSH2 0xE94 JUMPI PUSH2 0xE65 DUP2 PUSH2 0xD3F JUMP JUMPDEST PUSH2 0xE6E DUP5 PUSH2 0xD51 JUMP JUMPDEST DUP2 ADD PUSH1 0x20 DUP6 LT ISZERO PUSH2 0xE7D JUMPI DUP2 SWAP1 POP JUMPDEST PUSH2 0xE91 PUSH2 0xE89 DUP6 PUSH2 0xD51 JUMP JUMPDEST DUP4 ADD DUP3 PUSH2 0xE31 JUMP JUMPDEST POP POP JUMPDEST POP POP POP JUMP JUMPDEST PUSH0 DUP3 DUP3 SHR SWAP1 POP SWAP3 SWAP2 POP POP JUMP JUMPDEST PUSH0 PUSH2 0xEB4 PUSH0 NOT DUP5 PUSH1 0x8 MUL PUSH2 0xE99 JUMP JUMPDEST NOT DUP1 DUP4 AND SWAP2 POP POP SWAP3 SWAP2 POP POP JUMP JUMPDEST PUSH0 PUSH2 0xECC DUP4 DUP4 PUSH2 0xEA5 JUMP JUMPDEST SWAP2 POP DUP3 PUSH1 0x2 MUL DUP3 OR SWAP1 POP SWAP3 SWAP2 POP POP JUMP JUMPDEST PUSH2 0xEE5 DUP3 PUSH2 0x7E7 JUMP JUMPDEST PUSH8 0xFFFFFFFFFFFFFFFF DUP2 GT ISZERO PUSH2 0xEFE JUMPI PUSH2 0xEFD PUSH2 0x944 JUMP JUMPDEST JUMPDEST PUSH2 0xF08 DUP3 SLOAD PUSH2 0xC9B JUMP JUMPDEST PUSH2 0xF13 DUP3 DUP3 DUP6 PUSH2 0xE53 JUMP JUMPDEST PUSH0 PUSH1 0x20 SWAP1 POP PUSH1 0x1F DUP4 GT PUSH1 0x1 DUP2 EQ PUSH2 0xF44 JUMPI PUSH0 DUP5 ISZERO PUSH2 0xF32 JUMPI DUP3 DUP8 ADD MLOAD SWAP1 POP JUMPDEST PUSH2 0xF3C DUP6 DUP3 PUSH2 0xEC1 JUMP JUMPDEST DUP7 SSTORE POP PUSH2 0xFA3 JUMP JUMPDEST PUSH1 0x1F NOT DUP5 AND PUSH2 0xF52 DUP7 PUSH2 0xD3F JUMP JUMPDEST PUSH0 JUMPDEST DUP3 DUP2 LT ISZERO PUSH2 0xF79 JUMPI DUP5 DUP10 ADD MLOAD DUP3 SSTORE PUSH1 0x1 DUP3 ADD SWAP2 POP PUSH1 0x20 DUP6 ADD SWAP5 POP PUSH1 0x20 DUP2 ADD SWAP1 POP PUSH2 0xF54 JUMP JUMPDEST DUP7 DUP4 LT ISZERO PUSH2 0xF96 JUMPI DUP5 DUP10 ADD MLOAD PUSH2 0xF92 PUSH1 0x1F DUP10 AND DUP3 PUSH2 0xEA5 JUMP JUMPDEST DUP4 SSTORE POP JUMPDEST PUSH1 0x1 PUSH1 0x2 DUP9 MUL ADD DUP9 SSTORE POP POP POP JUMPDEST POP POP POP POP POP POP JUMP JUMPDEST PUSH0 PUSH1 0x80 DUP3 ADD SWAP1 POP PUSH2 0xFBE PUSH0 DUP4 ADD DUP8 PUSH2 0x799 JUMP JUMPDEST PUSH2 0xFCB PUSH1 0x20 DUP4 ADD DUP7 PUSH2 0x7D8 JUMP JUMPDEST PUSH2 0xFD8 PUSH1 0x40 DUP4 ADD DUP6 PUSH2 0x7D8 JUMP JUMPDEST DUP2 DUP2 SUB PUSH1 0x60 DUP4 ADD MSTORE PUSH2 0xFEA DUP2 DUP5 PUSH2 0x839 JUMP JUMPDEST SWAP1 POP SWAP6 SWAP5 POP POP POP POP POP JUMP JUMPDEST PUSH32 0x4E6F7420617574686F72697A6564000000000000000000000000000000000000 PUSH0 DUP3 ADD MSTORE POP JUMP JUMPDEST PUSH0 PUSH2 0x1029 PUSH1 0xE DUP4 PUSH2 0x7F1 JUMP JUMPDEST SWAP2 POP PUSH2 0x1034 DUP3 PUSH2 0xFF5 JUMP JUMPDEST PUSH1 0x20 DUP3 ADD SWAP1 POP SWAP2 SWAP1 POP JUMP JUMPDEST PUSH0 PUSH1 0x20 DUP3 ADD SWAP1 POP DUP2 DUP2 SUB PUSH0 DUP4 ADD MSTORE PUSH2 0x1056 DUP2 PUSH2 0x101D JUMP JUMPDEST SWAP1 POP SWAP2 SWAP1 POP JUMP JUMPDEST PUSH32 0x41737369676E6D656E74207374617475732063616E6E6F742062652075706461 PUSH0 DUP3 ADD MSTORE PUSH32 0x7465640000000000000000000000000000000000000000000000000000000000 PUSH1 0x20 DUP3 ADD MSTORE POP JUMP JUMPDEST PUSH0 PUSH2 0x10B7 PUSH1 0x23 DUP4 PUSH2 0x7F1 JUMP JUMPDEST SWAP2 POP PUSH2 0x10C2 DUP3 PUSH2 0x105D JUMP JUMPDEST PUSH1 0x40 DUP3 ADD SWAP1 POP SWAP2 SWAP1 POP JUMP JUMPDEST PUSH0 PUSH1 0x20 DUP3 ADD SWAP1 POP DUP2 DUP2 SUB PUSH0 DUP4 ADD MSTORE PUSH2 0x10E4 DUP2 PUSH2 0x10AB JUMP JUMPDEST SWAP1 POP SWAP2 SWAP1 POP JUMP JUMPDEST PUSH0 PUSH1 0x40 DUP3 ADD SWAP1 POP PUSH2 0x10FE PUSH0 DUP4 ADD DUP6 PUSH2 0x799 JUMP JUMPDEST PUSH2 0x110B PUSH1 0x20 DUP4 ADD DUP5 PUSH2 0x8D5 JUMP JUMPDEST SWAP4 SWAP3 POP POP POP JUMP INVALID LOG2 PUSH5 0x6970667358 0x22 SLT KECCAK256 LOG3 SELFDESTRUCT 0xD8 0xBF SHR SMOD 0xAC 0xB3 0xF9 0xAD DUP5 0x2A 0xBB 0xEB 0xE6 SWAP1 SWAP11 SHL PUSH8 0xE074A5BCEEAD3229 LOG2 LOG4 PUSH4 0x34886473 PUSH16 0x6C634300081600330000000000000000 "
		},
		"gasEstimates": {
			"creation": {
				"codeDepositCost": "884800",
				"executionCost": "infinite",
				"totalCost": "infinite"
			},
			"external": {
				"assignmentCount()": "2491",
				"assignments(uint256)": "infinite",
				"createAssignment(string,address)": "infinite",
				"getAssignment(uint256)": "infinite",
				"updateAssignmentStatus(uint256,uint8)": "infinite"
			}
		},
		"methodIdentifiers": {
			"assignmentCount()": "e6bb2807",
			"assignments(uint256)": "4e50c75c",
			"createAssignment(string,address)": "52a5a744",
			"getAssignment(uint256)": "5e387905",
			"updateAssignmentStatus(uint256,uint8)": "82bc6ce6"
		}
	},
	"abi": [
		{
			"inputs": [
				{
					"internalType": "address",
					"name": "_userProfileAddress",
					"type": "address"
				}
			],
			"stateMutability": "nonpayable",
			"type": "constructor"
		},
		{
			"anonymous": false,
			"inputs": [
				{
					"indexed": false,
					"internalType": "uint256",
					"name": "assignmentId",
					"type": "uint256"
				},
				{
					"indexed": false,
					"internalType": "address",
					"name": "mentorAddress",
					"type": "address"
				},
				{
					"indexed": false,
					"internalType": "address",
					"name": "studentAddress",
					"type": "address"
				},
				{
					"indexed": false,
					"internalType": "string",
					"name": "description",
					"type": "string"
				}
			],
			"name": "AssignmentCreated",
			"type": "event"
		},
		{
			"anonymous": false,
			"inputs": [
				{
					"indexed": false,
					"internalType": "uint256",
					"name": "assignmentId",
					"type": "uint256"
				},
				{
					"indexed": false,
					"internalType": "enum studentAssignments.AssignmentStatus",
					"name": "status",
					"type": "uint8"
				}
			],
			"name": "AssignmentStatusUpdated",
			"type": "event"
		},
		{
			"inputs": [],
			"name": "assignmentCount",
			"outputs": [
				{
					"internalType": "uint256",
					"name": "",
					"type": "uint256"
				}
			],
			"stateMutability": "view",
			"type": "function"
		},
		{
			"inputs": [
				{
					"internalType": "uint256",
					"name": "",
					"type": "uint256"
				}
			],
			"name": "assignments",
			"outputs": [
				{
					"internalType": "uint256",
					"name": "assignmentId",
					"type": "uint256"
				},
				{
					"internalType": "address",
					"name": "mentorAddress",
					"type": "address"
				},
				{
					"internalType": "address",
					"name": "studentAddress",
					"type": "address"
				},
				{
					"internalType": "string",
					"name": "description",
					"type": "string"
				},
				{
					"internalType": "enum studentAssignments.AssignmentStatus",
					"name": "status",
					"type": "uint8"
				}
			],
			"stateMutability": "view",
			"type": "function"
		},
		{
			"inputs": [
				{
					"internalType": "string",
					"name": "_description",
					"type": "string"
				},
				{
					"internalType": "address",
					"name": "_studentAddress",
					"type": "address"
				}
			],
			"name": "createAssignment",
			"outputs": [],
			"stateMutability": "nonpayable",
			"type": "function"
		},
		{
			"inputs": [
				{
					"internalType": "uint256",
					"name": "_assignmentId",
					"type": "uint256"
				}
			],
			"name": "getAssignment",
			"outputs": [
				{
					"components": [
						{
							"internalType": "uint256",
							"name": "assignmentId",
							"type": "uint256"
						},
						{
							"internalType": "address",
							"name": "mentorAddress",
							"type": "address"
						},
						{
							"internalType": "address",
							"name": "studentAddress",
							"type": "address"
						},
						{
							"internalType": "string",
							"name": "description",
							"type": "string"
						},
						{
							"internalType": "enum studentAssignments.AssignmentStatus",
							"name": "status",
							"type": "uint8"
						}
					],
					"internalType": "struct studentAssignments.Assignment",
					"name": "",
					"type": "tuple"
				}
			],
			"stateMutability": "view",
			"type": "function"
		},
		{
			"inputs": [
				{
					"internalType": "uint256",
					"name": "_assignmentId",
					"type": "uint256"
				},
				{
					"internalType": "enum studentAssignments.AssignmentStatus",
					"name": "_status",
					"type": "uint8"
				}
			],
			"name": "updateAssignmentStatus",
			"outputs": [],
			"stateMutability": "nonpayable",
			"type": "function"
		}
	]
}